:1000000092C000000C94793B0C94A03BB4C000005B
:10001000B2C00000B0C00000AEC000000C94B340FD
:10002000AAC000000C942541A6C00000A4C0000096
:10003000A2C00000A0C000009EC000009CC0000044
:100040000C94C73B98C000000C94113F0C94433FA4
:1000500092C0000090C000008EC000008CC0000064
:100060000C94583788C000000B1112115B11541406
:1000700076118F11981176114C124C125D126E127E
:100080008712A412BC12C61E8B1F3C20EC20AA2192
:10009000662222235E23084AD73B3BCE016E84BCF6
:1000A000BFFDC12F3D6C74319ABD56833DDA3D00D2
:1000B000C77F11BED9E4BB4C3E916BAAAABE00001B
:1000C00000803F0000000008000201000003040758
:1000D0000000000000000000010204081020408021
:1000E0000102040810200102040810200404040482
:1000F00004040404020202020202030303030303D2
:100100000000000023002600290000000000250058
:1001100028002B0000000000240027002A00020015
:10012000F63A683FD43F11241FBECFEFD8E0DEBFC0
:10013000CDBF13E0A0E0B1E0E8E0FAE802C005902E
:100140000D92AC39B107D9F727E0ACE9B3E001C0B3
:100150001D92A83FB207E1F710E0C3E9D0E004C068
:100160002197FE010E94E144C039D107C9F70E94DE
:1001700082410C94024544CF662311F061E001C036
:1001800060E00C94FA3C662311F061E001C060E08D
:100190000C94363D0E94653D21E0019709F020E076
:1001A000822F08958091B7029091B80290938405B0
:1001B00080938305089583E895E00C948C3A10921F
:1001C000670710926507109266071092ED0610926D
:1001D000EE061092EF061092F0061092C6051092ED
:1001E000640710926207109263071092E90610925A
:1001F000EA061092EB061092EC061092C50580916B
:100200004C038093C20580914D038093C00580917B
:100210004E038093C10580914F038093C405809164
:1002200050038093C30508950F931F93CF93DF93DB
:10023000809168019091690101E0209193053091CE
:1002400094052817390709F000E00093C00511E074
:1002500020919505309196052817390709F010E08F
:100260001093C10580919F052091A005C091830145
:10027000D0E0909167079F3018F49F5F90936707D5
:1002800090916507911104C081E0809365074FC08C
:1002900090E0821B910997FF03C091958195910988
:1002A00021E0C817D9070CF020E080916607813063
:1002B00009F440C08230C1F42223E1F180916B0542
:1002C00090916C05A0916D05B0916E058093ED063F
:1002D0009093EE06A093EF06B093F00683E0809330
:1002E00066071092670726C0809167078A3018F466
:1002F000211120C01CC02223D1F02091ED063091A5
:10030000EE064091EF065091F00660916B057091FA
:100310006C0580916D0590916E050E948742811158
:1003200006C081E0809366078093C60503C082E023
:10033000809366078091A1052091A20590916407A2
:100340009F3018F49F5F909364079091620791111A
:1003500004C081E0809362074FC090E0821B910946
:1003600097FF03C091958195910921E0C817D9079E
:100370000CF020E080916307813009F440C08230A6
:10038000C1F42223E1F180916F0590917005A09155
:100390007105B09172058093E9069093EA06A093E7
:1003A000EB06B093EC0683E080936307109264073A
:1003B00026C0809164078A3018F4211120C01CC027
:1003C0002223D1F02091E9063091EA064091EB0614
:1003D0005091EC0660916F057091700580917105E8
:1003E000909172050E948742811106C081E080933E
:1003F00063078093C50503C082E080936307409143
:10040000C60581E090E0411105C02091C50521118C
:1004100001C080E0011104C0111102C09C0102C0A2
:1004200021E030E05091B40590918E01591741F0D0
:10043000442329F081E09091C505911101C080E02D
:1004400081110BC08091DA05811107C081E0909184
:10045000C705911103C080E001C081E08093C2050F
:1004600091E098279093C305232B09F081E08093B6
:10047000C405DF91CF911F910F9108958091C9021A
:100480009091CA0290939C0580939B058091CB022A
:100490009091CC0290939E0580939D050895609164
:1004A000A5027091A6028091A7029091A8020E94D5
:1004B00019416091A9027091AA028091AB029091BA
:1004C000AC020C9419418091A5020E94573C909374
:1004D0009C0580939B058091A9020E94573C9093B4
:1004E0009E0580939D050895CF92DF92EF92FF9233
:1004F0000F931F93F901882339F19081913021F1F5
:1005000090919101691309C000915A0110915B010A
:1005100020915C0130915D0108C00091560110915D
:1005200057012091580130915901DA01CD90DD90A9
:10053000ED90FC9013970C0D1D1D2E1D3F1D0D936E
:100540001D932D933C93139780831F910F91FF90E0
:10055000EF90DF90CF900895AF92BF92CF92DF924D
:10056000EF92FF920F931F93CF93DF936B017C0168
:10057000F9016481758186819781608371838283AB
:100580009383C482D582E682F7822085211109C037
:10059000C082D182E282F38281E080878187828774
:1005A00045C0EF018A01A18421E0A21236C0A70153
:1005B00096010E948742BA84882301F120E030E04E
:1005C00040E85FE3C701B6010E948742811116C06F
:1005D0006B2D70E080E090E00E9424439B01AC0111
:1005E00065EF76E888E494E40E948B42F80160832A
:1005F000718382839383A986AA8618C0F4E6FB15CB
:1006000040F482E08987F8011082118212821382FD
:100610000DC061E06B0D6A8709C0A70196010E94B9
:100620008742882319F081E089878A87DF91CF91FB
:100630001F910F91FF90EF90DF90CF90BF90AF9000
:1006400008958091150380934C0780911603809341
:100650004D078091170380934E0780911803809374
:100660004F0780911903809350078091A9019091C1
:10067000AA01A091AB01B091AC0180939D0690932B
:100680009E06A0939F06B093A006409159025091F8
:100690005A0260915B0270915C0240939506509300
:1006A00096066093970670939806809175029091D4
:1006B0007602A0917702B09178028093A106909380
:1006C000A206A093A306B093A40640939906509364
:1006D0009A0660939B0670939C068093A506909360
:1006E000A606A093A706B093A80680911A0380934C
:1006F00051078091AD019091AE01A091AF01B091F1
:10070000B0018093A9069093AA06A093AB06B0937C
:10071000AC0680917D0290917E02A0917F02B09103
:1007200080028093C1069093C206A093C306B09343
:10073000C4064091790250917A0260917B027091D7
:100740007C028091850290918602A0918702B091EF
:100750008802EDEAF6E04193519361937193848BA3
:10076000958BA68BB78B26E0E13CF207A1F7809131
:10077000890290918A02A0918B02B0918C028093A1
:10078000D9069093DA06A093DB06B093DC0680913D
:100790001B038093520780913803809359078091FF
:1007A0005B0390915C03A0915D03B0915E03809325
:1007B000F5059093F605A093F705B093F8058091A1
:1007C000530390915403A0915503B0915603809325
:1007D000F1059093F205A093F305B093F405109200
:1007E000D1071092D2071092D3071092ED05109204
:1007F000EE051092EF051092F0051092C6071092C8
:10080000C7071092C8071092E9051092EA051092E6
:10081000EB051092EC0580912E0190912F01A09193
:100820003001B09131018093010690930206A093AC
:100830000306B09304068091F5019091F601A09112
:10084000F701B091F8018093050690930606A093F6
:100850000706B09308068093090690930A06A093B2
:100860000B06B0930C0680930D0690930E06A09392
:100870000F06B09310068093110690931206A09372
:100880001306B09314068093150690931606A09352
:100890001706B09318068091F9019091FA01A09182
:1008A000FB01B091FC018093190690931A06A09366
:1008B0001B06B0931C068091210290912202A09108
:1008C0002302B09124028093770590937805A0933A
:1008D0007905B0937A058091370380935A07809108
:1008E000250290912602A0912702B09128028093C0
:1008F000DD069093DE06A093DF06B093E0068091BC
:10090000D1029091D20290939A058093990510920A
:100910004207109241071092A1071092A20710926D
:100920007305109274051092750510927605109259
:10093000BE051092BF051092DD05809131029091A5
:100940003202A0913302B0913402809363059093F8
:100950006405A0936505B09366058091350290917A
:100960003602A0913702B091380280936B059093C4
:100970006C05A0936D05B0936E058091390290913E
:100980003A02A0913B02B0913C028093670590939C
:100990006805A0936905B0936A0580913D02909126
:1009A0003E02A0913F02B091400280936F05909368
:1009B0007005A0937105B093720508951092AF076A
:1009C0001092B0071092B10708952F923F924F9264
:1009D0005F926F927F928F929F92AF92BF92CF92CF
:1009E000DF92EF92FF920F931F93CF93DF93CDB7D8
:1009F000DEB7E0970FB6F894DEBF0FBECDBFE09034
:100A00004C07D0904D07DE1418F42090910107C0D8
:100A1000ED1418F420908B0102C02090A3012091C6
:100A20009D0530919E0580916C0190916D0182171A
:100A3000930718F43090360302C0309035032DED43
:100A400037E045EF55E0622D832D4EDD6091F505D1
:100A50007091F6058091F7059091F8050E94264364
:100A600020913E0130913F01409140015091410160
:100A70000E9459446D877E878F87988B20914E07FF
:100A8000298780914F078D8F821718F4109191015B
:100A900009C09985AD8D9A1718F410918B0102C089
:100AA0001091A30120919B0530919C0580916C01D0
:100AB00090916D018217930718F40091340302C0DE
:100AC000009133032CED37E041EF55E0612F802F8B
:100AD0000BDD6091F1057091F2058091F305909125
:100AE000F4050E94264320913E0130913F01409140
:100AF0004001509141010E945944698B7A8B8B8B44
:100B00009C8B40909506509096066090970670904A
:100B100098068090990690909A06A0909B06B090B7
:100B20009C0660910D0370910E03072E000C880B3C
:100B3000990B0E94264320E030E040E056E30E94FB
:100B4000594469837A838B839C836E2D70E06D1981
:100B50007109072E000C880B990B0E9426439B01FC
:100B6000AC0169817A818B819C810E9459446B011F
:100B70007C012091510230915202409153025091D8
:100B80005402C301B2010E9459449B01AC01C70148
:100B9000B6010E94C0416B017C0120915502309149
:100BA00056024091570250915802C501B4010E946B
:100BB00059449B01AC01C701B6010E94C04120917C
:100BC0004D0230914E0240914F02509150020E94CE
:100BD0008B426D8B7E8B8F8B988FD0905103E090E2
:100BE000870120914102309142024091430250918D
:100BF00044020E94594469837A838B839C832091A9
:100C00004502309146024091470250914802C3018B
:100C1000B2010E9459449B01AC0169817A818B81A8
:100C20009C810E94C1412B013C01209149023091DD
:100C30004A0240914B0250914C02C501B4010E94FE
:100C400059449B01AC01C301B2010E94C1412091F2
:100C50000A0130910B0140910C0150910D010E944D
:100C60008B424B015C01ED9CB001112494E0769520
:100C700067959A95E1F770E080E090E00E94244348
:100C800020914E0130914F014091500150915101FE
:100C90000E948B429B01AC01C501B4010E945944E2
:100CA0004B015C01632D70E080E090E00E942443E2
:100CB00029EC37E04DEE55E04FDC8091A801811121
:100CC00004C080915007882349F08091A901909138
:100CD000AA01A091AB01B091AC0108C080919D0622
:100CE00090919E06A0919F06B091A00689839A8359
:100CF000AB83BC8320914201309143014091440178
:100D00005091450169817A818B819C810E9459446F
:100D10006D837E838F8398872091260130912701F0
:100D200040912801509129010E94C1412D813E81AD
:100D30004F8158850E948B42698F7A8F8B8F9C8F51
:100D400080919101281209C06091ED057091EE0526
:100D50008091EF059091F00512C02091ED05309142
:100D6000EE054091EF055091F005609129027091D8
:100D70002A0280912B0290912C020E945944A501D5
:100D800094010E94C041298D3A8D4B8D5C8D0E944B
:100D900059449B01AC01C501B4010E94C14160935B
:100DA0006305709364058093650590936605809054
:100DB000A1069090A206A090A306B090A406C090B1
:100DC000A506D090A606E090A706F090A806609130
:100DD0000F0370911003072E000C880B990B0E94D3
:100DE000264320E030E040E056E30E9459442B01C6
:100DF0003C019985692F70E0AD8D6A1B7109072E42
:100E0000000C880B990B0E9426439B01AC01C30187
:100E1000B2010E9459442B013C0120916D02309196
:100E20006E0240916F0250917002C501B4010E94A0
:100E300059449B01AC01C301B2010E94C0412B0186
:100E40003C012091710230917202409173025091E5
:100E50007402C701B6010E9459449B01AC01C30151
:100E6000B2010E94C0412091690230916A02409112
:100E70006B0250916C020E948B426D8F7E8F8F8F20
:100E800098A3B0915203B9872090870120915D0209
:100E900030915E0240915F02509160020E9459447D
:100EA0002B013C012091610230916202409163026A
:100EB00050916402C501B4010E9459449B01AC01E8
:100EC000C301B2010E94C1414B015C012091650246
:100ED000309166024091670250916802C701B601E5
:100EE0000E9459449B01AC01C501B4010E94C1415B
:100EF00020910A0130910B0140910C0150910D019C
:100F00000E948B426B017C01E9852E9EB001112469
:100F100084E0769567958A95E1F770E080E090E04F
:100F20000E94244320914E0130914F014091500185
:100F3000509151010E948B429B01AC01C701B60147
:100F40000E9459446B017C01602F70E080E090E0CA
:100F50000E9424432EEB37E049EE55E0FDDA009184
:100F6000A801011104C080915107882349F04090E5
:100F7000AD015090AE016090AF017090B00108C01B
:100F80004090A9065090AA066090AB067090AC06FF
:100F9000209142013091430140914401509145011B
:100FA000C301B2010E94594469877A878B879C8765
:100FB000209126013091270140912801509129016B
:100FC0000E94C14129853A854B855C850E948B42F0
:100FD00069A37AA38BA39CA380919101181309C0E4
:100FE0006091E9057091EA058091EB059091EC051F
:100FF00012C02091E9053091EA054091EB0550912E
:10100000EC0560912D0270912E0280912F0290913B
:1010100030020E945944A70196010E94C04129A1B3
:101020003AA14BA15CA10E945944A70196010E94DC
:10103000C1416B017C0160936705709368058093E3
:10104000690590936A052091AD063091AE064091F6
:10105000AF065091B0066D857E858F8598890E9478
:10106000C0412091C1063091C2064091C306509103
:10107000C4060E94C1416DA37EA38FA398A79B01C4
:10108000AC01609181027091820280918302909103
:1010900084020E94594460936B0570936C058093A1
:1010A0006D0590936E052091C5063091C60640915E
:1010B000C7065091C80669897A898B899C890E94E4
:1010C000C0412091D9063091DA064091DB0650915B
:1010D000DC060E94C14169A77AA78BA79CA79B0148
:1010E000AC0160918D0270918E0280918F0290917F
:1010F00090020E94594460936F057093700580932D
:10110000710590937205A701960160916305709136
:10111000640580916505909166050E94C0416B0150
:101120007C0160916E0170916F0180E090E00E94FF
:1011300024439B01AC01C701B6010E948B42209160
:10114000E5013091E6014091E7015091E8010E94EC
:1011500059442091010630910206409103065091B6
:1011600004060E94C1416B017C01609317057093D6
:1011700018058093190590931A058090F1019090BD
:10118000F201A090F301B090F401A50194010E9436
:101190004E4418166CF42091DD013091DE0140912F
:1011A000DF015091E001C701B6010E94C04114C0A7
:1011B0002091D9013091DA014091DB015091DC019D
:1011C000C701B6010E94874287FF0EC0A5019401A6
:1011D000C701B6010E94C1416093170570931805BD
:1011E0008093190590931A05809117059091180521
:1011F000A0911905B0911A058DA79EA7AFA7B8AB0E
:101200002091E9013091EA014091EB015091EC010C
:101210006091ED017091EE018091EF019091F001EC
:101220000E948B422DA53EA54FA558A90E94594466
:101230004B015C0160931B0570931C0580931D0599
:1012400090931E05209105063091060640910706F1
:10125000509108060E94C0412091190630911A064B
:1012600040911B0650911C060E94C1416B017C01FC
:1012700060931F05709320058093210590932205AC
:101280009B01AC016091FD017091FE018091FF0115
:10129000909100020E9459446093770570937805FD
:1012A0008093790590937A058DA59EA5AFA5B8A9E1
:1012B0008093010690930206A0930306B093040660
:1012C0008091090690910A06A0910B06B0910C0638
:1012D0008093050690930606A0930706B093080630
:1012E00080910D0690910E06A0910F06B091100608
:1012F0008093090690930A06A0930B06B0930C0600
:101300008091110690911206A0911306B0911406D7
:1013100080930D0690930E06A0930F06B0931006CF
:101320008091150690911606A0911706B0911806A7
:101330008093110690931206A0931306B09314069F
:101340008092150690921606A0921706B092180683
:10135000C0921906D0921A06E0921B06F0921C0663
:101360009091A7018091AF07992309F43AC18111A7
:1013700003C081E08093AF0790915A078091B00736
:10138000992309F447C0811113C0809125029091DF
:101390002602A0912702B09128028093DD06909347
:1013A000DE06A093DF06B093E00681E08093B007ED
:1013B000809159073816A9F06091780170917901F0
:1013C00080E090E00E9424432091DD063091DE060B
:1013D0004091DF065091E0060E94C1416B017C0103
:1013E00008C0C090DD06D090DE06E090DF06F090E9
:1013F000E006C701B6010E94F84270939A05609317
:101400009905C092DD06D092DE06E092DF06F092EA
:10141000E0060CC0882351F08091D1029091D20255
:1014200090939A05809399051092B0078091410797
:10143000909142078F3FAFE39A0728F4019690936B
:101440004207809341078091A107811110C081E07C
:101450008093A10792E09093A20710924207109206
:10146000410795E09093BE059093BF0595C080918C
:10147000A2078230A1F12091990530919A0583301D
:1014800018F4813041F078C0833009F447C08430CB
:1014900009F45FC071C02639310550F095E0909392
:1014A000BE059093BF058093DD059093A2075FC0B2
:1014B00020914107309142072031374208F489C01A
:1014C0001092DD0540E050E068E473E4409373055A
:1014D00050937405609375057093760576C080917E
:1014E0004107909142078031974208F472C01092F0
:1014F000DD0580E090E0A8ECB2E480937305909362
:101500007405A0937505B093760581E08093BE05C0
:101510008093BF0584E08093A2075BC02639310524
:1015200048F085E08093BE058093BF0581E08093FD
:10153000DD051BC0809141079091420780319742A1
:1015400008F447C01092DD0580E090E0A6E1B3E426
:1015500033C026393105E8F185E08093BE058093DC
:10156000BF0581E08093DD0583E08093A2071092A0
:101570004207109241072DC02639310580F082E0E4
:101580008093A207109242071092410785E0809352
:10159000BE058093BF0581E08093DD051AC0809170
:1015A0004107909142078031974298F01092DD05F3
:1015B00080E090E0AAE7B3E480937305909374050C
:1015C000A0937505B093760581E08093BE05809366
:1015D000BF0581E09091DD05911180E080935A076D
:1015E00017C08823A9F08091B007882351F080911B
:1015F000D1029091D20290939A058093990510920E
:10160000B0078091B10781111092B1071092AF0716
:101610000023A9F08091A9019091AA01A091AB01AA
:10162000B091AC0189839A83AB83BC834090AD01B8
:101630005090AE016090AF017090B0012EC08091CB
:10164000A601882351F1C0904601D0904701E09057
:101650004801F0904901298D3A8D4B8D5C8DC70171
:10166000B6010E94C0412D813E814F8158850E9464
:10167000594469837A838B839C8329A13AA14BA126
:101680005CA1C701B6010E94C04129853A854B85FE
:101690005C850E9459442B013C0180919F058093F9
:1016A0004C078091A00580934D078091A105809300
:1016B0004E078091A20580934F07809195069091E7
:1016C0009606A0919706B0919806809399069093FC
:1016D0009A06A0939B06B0939C068D899E89AF893C
:1016E000B88D8093950690939606A0939706B09335
:1016F000980680911C038093500789819A81AB8161
:10170000BC8180939D0690939E06A0939F06B09304
:10171000A0068091A1069091A206A091A306B09187
:10172000A4068093A5069093A606A093A706B0935F
:10173000A8068D8D9E8DAF8DB8A18093A106909344
:10174000A206A093A306B093A40680911D038093E4
:1017500051074092A9065092AA066092AB06709279
:10176000AC068091B1069091B206A091B306B091FB
:10177000B4068093AD069093AE06A093AF06B093E7
:10178000B0068091B5069091B606A091B706B091CB
:10179000B8068093B1069093B206A093B306B093B7
:1017A000B4068091B9069091BA06A091BB06B0919B
:1017B000BC068093B5069093B606A093B706B09387
:1017C000B8068091BD069091BE06A091BF06B0916B
:1017D000C0068093B9069093BA06A093BB06B09357
:1017E000BC068D859E85AF85B8898093BD06909394
:1017F000BE06A093BF06B093C0068DA19EA1AFA167
:10180000B8A58093C1069093C206A093C306B09377
:10181000C4068091C9069091CA06A091CB06B091EA
:10182000CC068093C5069093C606A093C706B093D6
:10183000C8068091CD069091CE06A091CF06B091BA
:10184000D0068093C9069093CA06A093CB06B093A6
:10185000CC068091D1069091D206A091D306B0918A
:10186000D4068093CD069093CE06A093CF06B09376
:10187000D0068091D5069091D606A091D706B0915A
:10188000D8068093D1069093D206A093D306B09346
:10189000D40689899A89AB89BC898093D5069093AF
:1018A000D606A093D706B093D80689A59AA5ABA56E
:1018B000BCA58093D9069093DA06A093DB06B0937B
:1018C000DC068091B4058093520730925907E09668
:1018D0000FB6F894DEBF0FBECDBFDF91CF911F9141
:1018E0000F91FF90EF90DF90CF90BF90AF909F90BF
:1018F0008F907F906F905F904F903F902F900895C2
:101900004F925F926F927F928F929F92AF92BF920F
:10191000CF92DF92EF92FF92CF93DF9300D000D06F
:10192000CDB7DEB72B013C0169017A0160918501D9
:1019300070E080E090E00E94244369837A838B8387
:101940009C839B01AC01C301B2010E94C0414B01C9
:101950005C0120E030E0A9010E94874229813A81A0
:101960004B815C8187FF10C0C301B2010E94C1415D
:101970000E94F3423B0120E030E044EB53E4C50118
:10198000B4010E94C1411BC0C301B2010E94C14108
:101990002B013C0120E030E044EB53E40E944E4434
:1019A000181614F520E030E044EB53E4C301B20113
:1019B0000E94C0410E94F3423B01C501B4010E9454
:1019C000F342072E000C880B990B0E9426439B01C3
:1019D000AC01C701B6010E944E4487FF29C0B30184
:1019E000770C880B990B1AC0C501B4010E94F34211
:1019F000072E000C880B990B0E9426439B01AC011B
:101A0000C701B6010E944E4487FD17C0C301B20151
:101A10000E94F342072E000C880B990B0E9426436C
:101A20009B01AC01C701B6010E94874218162CF039
:101A300060E070E080E89FE303C060E070E0CB010D
:101A40000F900F900F900F90DF91CF91FF90EF903C
:101A5000DF90CF90BF90AF909F908F907F906F90CE
:101A60005F904F90089510929805109297050895F1
:101A7000CF92DF92EF92FF92CF93DF93C0907B05DE
:101A8000D0907C05E0907D05F0907E05C0918505A5
:101A9000D0918605BE010D2E000C880B990B0E947B
:101AA0002643A70196012CDF20E030E0A9010E9427
:101AB000874281113FC0C0918705D0918805BE0142
:101AC0000D2E000C880B990B0E942643A70196014E
:101AD00017DF20E030E0A9010E94874281112AC06F
:101AE000C0918905D0918A05BE010D2E000C880B8E
:101AF000990B0E942643A701960102DF20E030E007
:101B0000A9010E948742811115C0C0918B05D09117
:101B10008C05BE010D2E000C880B990B0E942643EC
:101B2000A7019601EDDE20E030E0A9010E94874286
:101B3000882329F0D0939805C093970508C0809119
:101B40007E0190917F019093980580939705DF9196
:101B5000CF91FF90EF90DF90CF90089580918F010B
:101B600080934B0780913B03809358078091AF028D
:101B70009091B00290938605809385058091B10283
:101B80009091B20290938805809387058091B3026B
:101B90009091B40290938A05809389058091B50253
:101BA0009091B60290938C0580938B050895909147
:101BB0004B078091A201981721F080915807882344
:101BC00019F080913A0302C0809139032091640199
:101BD0003091650140915E0150915F01E09160019B
:101BE000F09161016091620170916301882389F035
:101BF000309386052093850550938805409387058B
:101C0000F0938A05E093890570938C0560938B05AA
:101C100010C0F0938605E093850570938805609366
:101C2000870550938A054093890530938C0520934E
:101C30008B059091B40590934B07809358070895B6
:101C40008F929F92AF92BF92CF92DF92EF92FF92CC
:101C5000CF93DF9380917E07811107C081E080934D
:101C60007E0792E090937F0770C1C0917F07C330D9
:101C700009F47BC030F4C13059F0C23009F462C0BD
:101C80005CC1C43009F49EC0C53009F4C4C055C15C
:101C90008091090790910A07A0910B07B0910C075A
:101CA0000197A105B10509F05DC2D091B5058091FC
:101CB0009B01D8137AC1609197057091980580E0D7
:101CC00090E00E9424434B015C01C0905305D090EA
:101CD0005405E0905505F0905605A70196010E9425
:101CE000874281110DC08091A0018093B20560915F
:101CF0005705709158058091590590915A0514C067
:101D000020915705309158054091590550915A0539
:101D1000C501B4010E948742811147C180919F0192
:101D20008093B205C701B6010E94F84270933A074A
:101D300060933907C093810784E080937F07C09345
:101D4000D4052DC18091B40581110CC285E080932A
:101D50007F0781E08093800710921D0610921E0677
:101D600010921F0610922006FDC160919705709198
:101D7000980580E090E00E9424436B017C01209153
:101D80004B0530914C0540914D0550914E050E94F8
:101D900087428823D9F220914F0530915005409118
:101DA000510550915205C701B6010E948742882310
:101DB00069F28091D905882309F4D4C181E0809328
:101DC0007F07D0C180918107833050F01092D405F5
:101DD00086E080937F071092D3058091A30118C0FD
:101DE0002091390730913A07809197059091980595
:101DF0002817390709F0B6C18091D605882309F460
:101E0000B1C11092D40583E080937F078091910146
:101E10008093B205A7C120E030E0A90160911D06C2
:101E200070911E0680911F06909120060E948742A5
:101E3000882319F010928007E6CF809180078230C6
:101E400009F490C16091970570919805833008F06E
:101E50005FC0813009F05CC080E090E00E942443C4
:101E60006B017C012091570530915805409159052F
:101E700050915A050E948742811106C083E08093E9
:101E8000800780919E01C4CF20914B0530914C0575
:101E900040914D0550914E05C701B6010E94874201
:101EA000811105C084E08093800785E1B1CF209146
:101EB0004F05309150054091510550915205C70191
:101EC000B6010E948742811105C085E0809380079A
:101ED00084E19ECF209153053091540540915505E2
:101EE00050915605C701B6010E94874281113AC13F
:101EF00082E08093800780E090E0A0E8BFE38093D9
:101F00001D0690931E06A0931F06B09320062AC1BB
:101F100080E090E00E9424432091530530915405C5
:101F200040915505509156050E94874281111AC172
:101F30008091D6058111DCCF15C18091B405811146
:101F400011C182E080937F0781E08093D305809365
:101F5000810708C1209157053091580540915905D6
:101F600050915A05C501B4010E94874281114AC0AF
:101F700080919E018093B205C701B6010E94F8428C
:101F800070933A0760933907809181078F5F809340
:101F9000810784E080937F0781E08093D40580915E
:101FA000B3058F5F8093B305DDC080919801D8178A
:101FB00021F080919501D81325C06091970570910B
:101FC000980580E090E00E9424434B015C01C090A2
:101FD0005305D0905405E0905505F0905605A701A3
:101FE00096010E9487428111B5CF8091A001809314
:101FF000B2056091570570915805809159059091EF
:102000005A0546C080919301D81709F456C08091B3
:102010009A01D81721F080919901D81346C0609198
:1020200097057091980580E090E00E9424434B0151
:102030005C01C0905305D0905405E0905505F09098
:102040005605A70196010E94874281110DC080911B
:102050009E018093B205609157057091580580915B
:10206000590590915A058ACF20915705309158050E
:102070004091590550915A05C501B4010E9487420B
:10208000811113C080919F018093B205C701B601F1
:102090000E94F84270933A076093390781E0809379
:1020A000810794E090937F0778CF80919401D817AF
:1020B00021F080919601D81350C0609197057091DE
:1020C000980580E090E00E9424434B015C01C090A1
:1020D0005305D0905405E0905505F0905605A701A2
:1020E00096010E948742C091B30581110DC0809175
:1020F0009E018093B20560915705709158058091BB
:10210000590590915A0514C02091570530915805F2
:102110004091590550915A05C501B4010E9487426A
:10212000811111C080919E018093B205C701B60153
:102130000E94F84270933A076093390780918107B3
:102140008F5F8093810784E080937F0781E0809395
:10215000D405CF5FC093B30505C080919701D81710
:1021600009F4ABCFDF91CF91FF90EF90DF90CF904C
:10217000BF90AF909F908F9008958F929F92AF9253
:10218000BF92CF92DF92EF92FF92CF93809174072C
:10219000811104C081E08093740713C0809175079A
:1021A000823009F4F5C0833009F409C1813009F0A7
:1021B00091C22091B40590919201291781F010925B
:1021C000760792E09093750710927B079091A30198
:1021D0009093B00510927D078093D00565C38091E0
:1021E0007D07813051F4109276078093A70783E032
:1021F000809375078093780757C3E09176078E2FF9
:1022000090E0FC013197E830F10508F0B0C0EC5CDB
:10221000FF4F0C94E1448091D905882309F444C30D
:1022200082E006C38091050790910607A0910707F9
:10223000B09108070197A105B10509F035C3C09118
:10224000B50580919B01C81741F080919A01C8178C
:1022500021F080919901C813C8C2609197057091CF
:10226000980580E090E00E9424436B017C0120915E
:102270003B0530913C0540913D0550913E050E9443
:102280008742811102C083E00FC020914305309145
:1022900044054091450550914605C701B6010E948D
:1022A00087428111A2C289E08093760780919C01C8
:1022B0008093B005F9C2609197057091980580E010
:1022C00090E00E94244320914305309144054091C1
:1022D0004505509146050E9487428111E5C28091D3
:1022E000D605882309F4E0C281E0FDC1609197051D
:1022F0007091980580E090E00E94244320913B0576
:1023000030913C0540913D0550913E050E94874229
:102310008111CAC28091D605882309F4C5C284E020
:102320008093760781E080937D078091A301C0CFE1
:10233000609197057091980580E090E00E94244399
:1023400020913F0530914005409141055091420553
:102350000E9487428111A8C28091D605882309F482
:10236000A3C21092760783E080937507ADC1609198
:1023700097057091980580E090E00E942443209199
:102380003F05309140054091410550914205BECF37
:102390002091B4059091920180917B0729130BC085
:1023A000893C48F084E08093750781E0809377074B
:1023B0001092A60779C28F5F80937B0775C28091C8
:1023C0007807813021F0823009F436C149C180910B
:1023D000A707811105C01092790710927A0774C17E
:1023E00080917907823049F020F4813009F45CC291
:1023F00017C0833011F0843099F4809105079091D3
:102400000607A0910707B09108070197A105B1053C
:1024100009F04AC281E0809379071092A70744C26D
:1024200080903F0590904005A0904105B0904205F6
:10243000609197057091980580E090E00E94244398
:102440006B017C019B01AC01C501B4010E94874274
:10245000811114C08091D605882381F080917C077A
:10246000823060F08091D905882341F010927A077C
:102470008091A3018093B00582E0C1C0E0917A070A
:102480008E2F90E0FC013197E730F10508F0A0C0F5
:10249000E45CFF4F0C94E14480910507909106079E
:1024A000A0910707B09108070197A105B10509F0B0
:1024B000FBC184E080937A0795C1809105079091D4
:1024C0000607A0910707B09108070197A105B1057C
:1024D00009F0EAC186E080937A07E8CE20914305AF
:1024E000309144054091450550914605C701B6011C
:1024F0000E9487428111D8C18091D605882309F4B2
:10250000D3C185E080937A0780919101D1CE8091EB
:10251000D905882309F4C8C18091B5059091990126
:10252000891721F090919B01891302C083E05FC05D
:1025300090919301891721F0909195018913B4C16D
:1025400010927A0784E05BC0A5019401C701B6012F
:102550000E9487428111A8C18091D605882309F481
:10256000A3C188E080937A07809191018093B005A0
:1025700080917C078F5F97C08091D905882311F0E7
:1025800082E035C08091B50590919501891721F0C1
:1025900090919B018913E5CF2091F1063091F206CD
:1025A0004091F3065091F40660912705709128053B
:1025B0008091290590912A050E94C04120E030E0D9
:1025C0004AE753E40E944E4418160CF472CF6CC1D3
:1025D0008091B505909195012091D905891721F039
:1025E00030919B01831306C0222361F081E0809328
:1025F0007A075AC1222331F010927A0783E0809340
:10260000790752C1891721F090919B0189134CC120
:1026100087E080937A078091270590912805A09103
:102620002905B0912A058093F1069093F206A093B4
:10263000F306B093F40638C12091B405909192014D
:10264000291332C1109278078093750710927B0787
:102650008091A3018093B00510927D0781E0BCCDED
:10266000609197057091980580E090E00E94244366
:102670006B017C0120913F0530914005409141055F
:10268000509142050E948742811110C081E08093E1
:10269000780795E09093790798E090937A07909166
:1026A00091019093B00580937C07FEC020913B057B
:1026B00030913C0540913D0550913E05C701B60162
:1026C0000E9487428111F0C082E0809378071092C7
:1026D000D005EAC08091A607882341F010927707C1
:1026E00081E080937507809376070ECF80917707FE
:1026F000823009F4D9C060919705709198058330B4
:1027000008F052C0813009F04FC080E090E00E9494
:1027100024436B017C0120913F053091400540919D
:102720004105509142050E948742811104C083E017
:102730008093770799C020914305309144054091DB
:10274000450550914605C701B6010E948742811197
:1027500004C084E08093770745C0209147053091FD
:1027600048054091490550914A05C701B6010E94AC
:102770008742811104C085E08093770797CD20912F
:102780003B0530913C0540913D0550913E05C70108
:10279000B6010E948742811187C082E0809377074B
:1027A00081E08093A60780C080E090E00E942443EF
:1027B00020913B0530913C0540913D0550913E05EF
:1027C000E8CF209143053091440540914505509153
:1027D0004605C701B6010E94874281110EC088E0FC
:1027E0008093760780919D0163CD80919801C817F1
:1027F00011F180919501C817F1F080919301C813F0
:1028000036C0609197057091980580E090E00E9435
:1028100024436B017C012091430530914405409194
:102820004505509146050E94874281112DC086E0E2
:102830008093760739C0609197057091980580E084
:1028400090E00E9424436B017C0120913B05309174
:102850003C0540913D0550913E050E948742811103
:10286000B0CF87E08093760780919E0121CD809143
:102870009401C81731F280919601C81711F2809126
:102880009701C81311C0BDCF20913B0530913C0585
:1028900040913D0550913E05C701B6010E94874217
:1028A000811102C085E0DECFCF91FF90EF90DF90E5
:1028B000CF90BF90AF909F908F9008954F925F926E
:1028C0006F927F92AF92BF92CF92DF92EF92FF9280
:1028D0000F931F93CF93DF93CDB7DEB728970FB633
:1028E000F894DEBF0FBECDBF69837A838B839C8350
:1028F00029013A01ED82FE820F83188720912F056E
:102900003091300540913105509132050E94874247
:10291000811121C0A8019701C301B2010E94874221
:10292000811119C020E030E844E853E469A17AA19C
:102930008BA19CA10E944E4487FF7DC020E030E81F
:1029400049E853E469A17AA18BA19CA10E94874226
:1029500018160CF070C02091370530913805409161
:10296000390550913A0569817A818B819C810E9459
:102970008742811117C02D8D3E8D4F8D58A1C30107
:10298000B2010E94874281110DC020E030E044E393
:1029900053E469A17AA18BA19CA10E94874288235C
:1029A00009F449C020913305309134054091350533
:1029B0005091360569817A818B819C810E94874282
:1029C000811116C0298D3A8D4B8D5C8DC301B201EA
:1029D0000E94874281110CC020E030E044EB52E4B9
:1029E00069A17AA18BA19CA10E948742882319F139
:1029F00020912B0530912C0540912D0550912E05ED
:102A000069817A818B819C810E948742811118C0E3
:102A1000A6019501C301B2010E948742811110C035
:102A200020E030E0A90169A17AA18BA19CA10E94BC
:102A30008742811105C060E070E080E89FE303C039
:102A400060E070E0CB0128960FB6F894DEBF0FBEB1
:102A5000CDBFDF91CF911F910F91FF90EF90DF904D
:102A6000CF90BF90AF907F906F905F904F90089500
:102A70000F931F93CF93DF93F8019481911108C0B6
:102A800081E084838583408351836283738314C090
:102A90009581913089F4882379F0E901CB01BA015D
:102AA00022E0258320813181428153810E94C041EF
:102AB000688379838A839B83DF91CF911F910F91E4
:102AC0000895CF9380914A038093530780914B03DD
:102AD00080935407C0918A01C093440760916001BC
:102AE00070916101072E000C880B990B0E94264300
:102AF0006093810670938206809383069093840688
:102B00001092840710923C0710923B0710928207A4
:102B100010928307109285071092B4051092B505A4
:102B20001092A8071092800710927E0710927F07DC
:102B300010923A07109239071092810710921D06E1
:102B400010921E0610921F06109220061092B205D7
:102B500081E08093D3051092D4051092B305909133
:102B600041039093D205909142039093D1059091A7
:102B700026039093B1051092760710927807109271
:102B8000790710927A0710927707109274071092C3
:102B9000750710927B0710927C0710927D071092A8
:102BA000A6071092A7071092F1061092F206109253
:102BB000F3061092F4061092B0058093D005809130
:102BC00043038093CF058091A501809345078093AF
:102BD000460780934707109272071092730710926E
:102BE0007007109271071092AF051092CE051092E7
:102BF0006D0710926B0710926C07109238071092B5
:102C0000370710926E0710926F071092CD05109241
:102C1000AD0593E09093AE051092BC071092BD07EE
:102C20001092B8071092B9071092BA071092BB071A
:102C30001092E5051092E6051092E7051092E8055E
:102C40001092B6071092B7071092B2071092B3070E
:102C50001092B4071092B5071092E1051092E205A8
:102C60001092E3051092E405209144032093CC05D3
:102C7000209145032093CB05209127032093AC0599
:102C800010926A0710926807109269071092A507C0
:102C90001092AA059093AB059091A3019093A9057A
:102CA0008093A8058093A705C093A605809146034D
:102CB0008093C905C093A505809147038093CA05F9
:102CC00080912B038093A305809128038093A40512
:102CD000809148038093C805809149038093C7057C
:102CE000CF9108958FEF80935C0780935D071092DA
:102CF000AE0708952F923F924F925F926F927F920C
:102D00008F929F92AF92BF92CF92DF92EF92FF92FB
:102D10000F931F93CF93DF93CDB7DEB72B970FB6EB
:102D2000F894DEBF0FBECDBF8091C005882319F097
:102D30002091860102C020918F058091C1058823D2
:102D400019F08091860102C08091910540913B0766
:102D500050913C074F3F31E0530730F44F5F5F4FD6
:102D600050933C0740933B079091820791110DC00F
:102D700091E09093820732E0309383079093840729
:102D800010923C0710923B077DC0909183079130D1
:102D900009F478C09091C205992331F0109284070C
:102DA00091E0909383075EC090918407923009F47C
:102DB00069C018F4913031F043C09330F1F0943091
:102DC000B9F13EC090914407983049F493E0909354
:102DD000840710923C0710923B0799E151C0409143
:102DE0003B0750913C074039514008F44BC09CE1EF
:102DF0009093B4051092850745C0909153079111A7
:102E000041C040913B0750913C0745305105D0F1FE
:102E100095E09093840710923C0710923B079AE14B
:102E20009093B405909185079F5F909385072AC082
:102E300040913B0750913C074530510538F622C080
:102E400090915407911110C090918507923080F0B5
:102E500040913B0750913C074530510548F092E0C6
:102E6000909384079BE10CC09091B1059F3150F085
:102E700094E09093840710923C0710923B079DE1E9
:102E80009093B40590918707909386079091BA0527
:102E9000909387073091A807311105C031E0309336
:102EA000A807909386073091DE05311108C0309154
:102EB0008607391304C09091D6059923A9F02230D2
:102EC00008F0E7C6882339F0909195019093B505F5
:102ED000222351F0DEC6222309F4E1C69091990124
:102EE0009093B5058111D8C69091A4058091910168
:102EF000981325C020916F053091700540917105A0
:102F00005091720560916B0570916C0580916D0513
:102F100090916E050E94C14120914E0130914F0168
:102F200040915001509151010E948B4260932705BE
:102F3000709328058093290590932A0510C08091ED
:102F4000520190915301A0915401B0915501809389
:102F5000270590932805A0932905B0932A05809012
:102F6000810690908206A0908306B090840690918E
:102F70005C07E091B405E951E43028F4F0E0E15950
:102F8000FC4F808101C083E080935C079817E1F0DB
:102F90009230D1F490915D07933039F0943051F430
:102FA00090918A019093A60505C09091AE0791116A
:102FB0001092AE079FEF90935D07813009F4E1C056
:102FC00054F4882399F01DC6813009F4D8C01CF44C
:102FD000882351F016C6823009F49AC1833009F073
:102FE00010C68091A3010BC69923E9F010928007C7
:102FF00010927E0710927F0710923A0710923907BD
:103000001092810710921D0610921E0610921F0644
:10301000109220061092B20581E08093D3051092A1
:10302000D4051092B30560918B0570918C05072E25
:10303000000C880B990B0E94264360934B057093FC
:103040004C0580934D0590934E05609189057091D4
:103050008A05072E000C880B990B0E94264360936B
:103060004F057093500580935105909352056091E0
:10307000850570918605072E000C880B990B0E9420
:1030800026436093530570935405809355059093A0
:1030900056056091870570918805072E000C880BF6
:1030A000990B0E94264360935705709358058093AF
:1030B000590590935A054091D80721E030E04130FE
:1030C00011F020E030E08091DB0590E0281739070F
:1030D00041F031E020E0433009F430E0832F922FBB
:1030E00002C080E090E04091D90761E070E041309B
:1030F00011F060E070E02091DC0530E062177307AA
:1031000039F0433029F0892B99F001E010E004C038
:10311000892BE1F000E010E01092090710920A07F5
:1031200010920B0710920C070E94200E012B71F0D9
:1031300081E090E0A0E0B0E08093090790930A0757
:10314000A0930B07B0930C070E94200E8091DB0523
:103150008093D8078091DC058093D9078091B205D0
:103160008093A3058091B3058093B1058091D40528
:103170008093D1058091D3058093D20542C59130CB
:1031800029F1109276071092780710927907109221
:103190007A071092770710927407109275071092B1
:1031A0007B0710927C0710927D071092A607109261
:1031B000A7071092F1061092F2061092F3061092F1
:1031C000F4061092B00581E08093D00560918505EA
:1031D00070918605072E000C880B990B0E942643E0
:1031E00060933B0570933C0580933D0590933E05AD
:1031F0006091870570918805072E000C880B990B4C
:103200000E94264360933F057093400580934105DB
:103210009093420560918B0570918C05072E000CF0
:10322000880B990B0E9426436093430570934405D5
:1032300080934505909346056091890570918A05B4
:10324000072E000C880B990B0E94264360934705BC
:10325000709348058093490590934A054091D6079D
:1032600021E030E0413011F020E030E08091DB05DA
:1032700090E02817390741F031E020E0433009F4AD
:1032800030E0832F922F02C080E090E04091D7077A
:1032900061E070E0413011F060E070E02091DC0509
:1032A00030E06217730739F0433029F0892B99F029
:1032B00001E010E004C0892BE1F000E010E0109282
:1032C00005071092060710920707109208070E9440
:1032D000BD10012B71F081E090E0A0E0B0E08093A0
:1032E000050790930607A0930707B09308070E946D
:1032F000BD108091DB058093D6078091DC0580931B
:10330000D7078091D0058093CF058091B00577C411
:10331000809173078F3018F48F5F809373078091CB
:103320007007811109C081E0809370078093CE05FA
:103330008093710786E042C080917107813071F4FB
:10334000809147078430E1F51092CE0582E08093AA
:103350007107809372071092730732C080917207D1
:10336000823099F0833009F1813051F58091A101CB
:10337000823021F484E08093720722C0813001F50D
:1033800085E08093720787E019C0909146079130DD
:1033900021F493E09093720711C0923059F3809119
:1033A00073078A3068F081E009C080914507823058
:1033B00009F3813029F48093720785E08093AF058B
:1033C00060914A0170914B0180914C0190914D01A7
:1033D000C0904E01D0904F01E0905001F09051010B
:1033E000009170011091710120915D07E091AF058E
:1033F000E150E63028F4F0E0E759FC4F308101C09D
:1034000034E030935D07231771F0233039F0243016
:1034100051F420918A012093A60505C02091AE07A2
:1034200021111092AE07323009F4BEC334F43323B5
:1034300079F0313009F465C2BBC3333009F40BC3F2
:10344000343009F0B5C3809189018093A605ACC3DF
:103450006091890570918A05072E000C880B990BE5
:103460000E9426432B013C0160932B0570932C0591
:1034700080932D0590932E056091850570918605AA
:10348000072E000C880B990B0E9426437B018C01B0
:10349000862F9F2DA02FB12F80932F05909330055D
:1034A000A0933105B093320560918705709188052E
:1034B000072E000C880B990B0E94264369837A83A0
:1034C0008B839C83472F382F292F862F942FA32F50
:1034D000B22F8093330590933405A0933505B093B4
:1034E000360560918B0570918C05072E000C880BBA
:1034F000990B0E9426436D837E836C01472F862F94
:10350000942FAC2DBD2D8093370590933805A09353
:103510003905B0933A0520E030E04CE853E4C501AA
:10352000B4010E948742181654F020E030E042E8CF
:1035300053E4C501B4010E944E4487FF41C020E01E
:1035400030E048EC52E4C501B4010E9487421816ED
:1035500054F020E030E040EA52E4C501B4010E949A
:103560004E4487FF32C020E030E040E251E4C50124
:10357000B4010E94874218166CF520E030E04FEA53
:1035800053E4C501B4010E944E4487FF23C020E0EC
:1035900030E04EE353E4C501B4010E94874218169F
:1035A000E4F020E030E04AE253E4C501B4010E94B7
:1035B0004E4487FD17C074E3872EE3E4EB8716C003
:1035C00067E8862E23E42B8711C054EB852E32E466
:1035D0003B870CC0812C1B8609C048EC842E83E4F9
:1035E0008B8704C038EC832E93E49B8780916B0714
:1035F000811110C081E080936B0782E080936C079B
:1036000085E08093AE058093AD0510926E07109211
:103610006F0774C180916C07823019F08330D1F04C
:103620006DC180919705909198058039E1E09E07E2
:1036300009F464C12091D605222309F45FC1909357
:1036400038078093370783E080936C0791E090936D
:103650006D073AC130906E07332021F18091D60575
:10366000882301F150E040E02B85652F742F882DD1
:10367000922F0E94F84220919705309198052617C5
:10368000370781F080916F07803160F010926D07ED
:1036900084E080936C0781E08093CD0582E0809385
:1036A000AE052CC190906D0721E0921639F0809103
:1036B000D60532E0931609F468C0BCC0311006C0CC
:1036C00090926E0785E18093AD0515C16091370733
:1036D0007091380780E090E00E942443EB85EF93DF
:1036E0008F921F921F9223E42F9324E32F931F9214
:1036F0001F9222E42F9324EB2F931F921F92A12C51
:10370000B12C6501E12CF12C07E813E4B0E0A0E056
:10371000EB852B2F3A2F482D5E2FD0D80FB6F8947B
:10372000DEBF0FBECDBFA60195010E948742882350
:1037300049F010926D0790926C071092CD0590920F
:10374000AE05DCC031E082E0331206C080936E0724
:1037500094E19093AD05D0C03812D0C08091D605C9
:10376000882309F4CBC050E040E02B85652F742FEF
:10377000882D922F0E94F84220919705309198054C
:103780002617370709F082CFB9C0882309F4B6C0DD
:103790002090970530909805B10180E090E00E945C
:1037A00024439B01AC01609137077091380780E09A
:1037B00090E02F83388749875A870E942443EB85FE
:1037C000EF938F921F921F92DF92CF92EE81EF9331
:1037D000ED81EF93EC81EF93EB81EF93EA81EF932F
:1037E000E981EF93630152012F81388549855A851C
:1037F00065D80FB6F894DEBF0FBECDBF20E030E035
:10380000A9010E94874281115BC050E040E02B85F6
:10381000652F742F882D922F0E94F84226163706A6
:1038200009F46CC080916F078F5F80936F0790924F
:103830006D0764C0882309F461C02090970530901B
:103840009805B10180E090E00E9424439B01AC0107
:10385000609137077091380780E090E02F833887B8
:1038600049875A870E942443EB85EF938F921F92DA
:103870001F921F930F93FF92EF92DF92CF92EE81F0
:10388000EF93ED81EF93B981AA81FB81EC81AB2E9F
:10389000BA2ECF2EDE2E830172012F813885498505
:1038A0005A850CD80FB6F894DEBF0FBECDBF20E00E
:1038B00030E0A9010E948742882361F010926F07CF
:1038C00081E080936D0783E08093AE0585E080936F
:1038D000AD0514C050E040E02B85652F742F882D76
:1038E000922F0E94F8422616370641F080916F070A
:1038F0008F5F80936F0783E080936D078091AD05A4
:1039000055C1A70196010E948B424B015C01B80191
:1039100080E090E00E942443A70196010E948B4220
:103920009B01AC01C501B4010E9459446B017C01AB
:1039300080919C018093A30540916F055091700583
:10394000609171057091720508EB17E025EE35E086
:103950008091D6058DD87090D605772031F1809171
:10396000E5059091E605A091E705B091E805BC0159
:10397000CD019F77A70196010E94C0414B015C01D8
:103980004091760150917701BA0180E090E00E9469
:1039900024439B01AC0111E0C501B4010E944E44D7
:1039A00018160CF010E0812F01C080E08093CB0549
:1039B00040916B0550916C0560916D0570916E059D
:1039C00002EB17E021EE35E0872D52D80091D605A5
:1039D000002341F18091E1059091E205A091E3057A
:1039E000B091E405BC01CD019F77A70196010E942B
:1039F000C0416B017C018091760190917701BC01FF
:103A000080E090E00E9424439B01AC0111E0B12CC6
:103A1000C701B6010E944E4418160CF010E0812F29
:103A20009B2D02C080E090E08093CC052091CB05D7
:103A3000211102C0892B29F0002341F080919001CF
:103A400007C0002319F08091A10102C08091A50157
:103A50008093AC05ADC09091AE0791110FC010924C
:103A60006A0710926807109269071092A5071092D2
:103A7000AA053093AB0581E08093AE0780916A0779
:103A80008F3018F48F5F80936A07809168078111E7
:103A90000FC081E08093680786E08093690785E026
:103AA0008093AA0583E08093AB051092A50771C0AF
:103AB00080916907833061F028F4813049F08230C9
:103AC00081F05FC08430A9F0853009F462C059C02C
:103AD00080916A078A3008F45CC081E08093A50772
:103AE00050C080916A078A3008F453C01092A5072D
:103AF00048C08091970590919805009759F480915E
:103B0000A507811146C08091D605882309F441C0DC
:103B100081E019C08A35910551F48091A507882369
:103B2000C1F18091D6058823A1F182E00CC0843BCD
:103B3000910579F48091A50781112BC08091D6055C
:103B4000882339F183E08093690710926A0785E042
:103B50001EC08E309140E9F48091A5078823C9F0FA
:103B60008091D6058823A9F080916A078A3088F071
:103B700085E0809369078093AA0584E08093AB0574
:103B800008C084E08093690710926A0785E18093FA
:103B9000AA059091AB059093A8058091AA05809302
:103BA000A9059093A70502C08091A3018093A30566
:103BB0008091CD0581110BC08091CC05811107C08A
:103BC00081E09091CB05911103C080E001C081E0BC
:103BD0008093C9058091A6058093A5058091CE05A7
:103BE0008093CA058091AC05809345078091AE050E
:103BF000809346078091A7058093470702C0809372
:103C0000A3058091C9058093C7058091D105809354
:103C1000C8058091D905882319F08091BB0502C0A1
:103C20008091A3058093A4058091CF0580935307CD
:103C30008091D205809354078091A5058093440715
:103C40008091770590917805A0917905B0917A05DA
:103C50008093810690938206A0938306B093840696
:103C60002B960FB6F894DEBF0FBECDBFDF91CF917C
:103C70001F910F91FF90EF90DF90CF90BF90AF908A
:103C80009F908F907F906F905F904F903F902F907C
:103C90000895823008F422C980919B0102C080916E
:103CA00093018093B50520C94F925F926F927F92E6
:103CB0008F929F92AF92BF92CF92DF92EF92FF923C
:103CC0000F931F93CF93DF9320919707209396072D
:103CD00090919407909397078090F9069090FA0638
:103CE000A090FB06B090FC068092F5069092F60636
:103CF000A092F706B092F806C0905B05D0905C05E4
:103D0000E0905D05F0905E05C092F906D092FA064B
:103D1000E092FB06F092FC063091990730939807E9
:103D20008091A4058093990740918907411120C093
:103D3000C092F506D092F606E092F706F092F806E9
:103D40008093980781E08093890789E080938A07B0
:103D5000109295078091A3018093B90580917E010F
:103D600090917F0190938E0580938D050C9485270B
:103D7000E0918A074E2F50E0FA013197E830F105C3
:103D800008F04CC5ED5BFF4F0C94E144381306C0BE
:103D90009091A907992311F40C9485279091910192
:103DA00089130AC08093B90588E080938A0781E06F
:103DB00080938B070C94852790918B01891307C002
:103DC0008093B90587E080938A070C9485279091AA
:103DD000A001891313C086E080938A07109294078C
:103DE00081E08093920792E09093930790918D01E8
:103DF0009093B9058093A9070C94852790919E0113
:103E0000891313C084E080938A071092940781E09D
:103E100080938F0792E09093900790918D019093FB
:103E2000B9058093A9070C94852790919F01891368
:103E300013C085E080938A071092940781E08093F5
:103E40008D0792E090938E0790918C019093B90525
:103E50008093A9070C9485279091A301891336C0FC
:103E60008093B90581E080938A078091A70584300B
:103E700011F00C9485272091970530919805809139
:103E80007E0190917F012817390711F00C94852746
:103E9000809185059091860590938E0580938D0580
:103EA0000C9485279091A001891709F494CF9091E3
:103EB0009E01891709F4A6CF90919F01891709F4F3
:103EC000B8CF9091A301891709F4D9C390919D01AE
:103ED00089130FC083E080938A0782E08093910763
:103EE00080918D018093B90581E08093A9070C949E
:103EF000852790919C0189130C94852782E08093FB
:103F00008A0780938C0780918C018093B90581E0AA
:103F10008093A907FAC7381304C09091A90791119B
:103F2000F1C49091910189130BC010928C0780937A
:103F3000B90588E080938A0781E080938B07E5C705
:103F400090918B01891308C010928C078093B9055A
:103F500087E080938A07D9C79091A001891314C084
:103F600010928C0786E080938A071092940781E074
:103F70008093920792E09093930790918D01909394
:103F8000B9058093A907C1C790919E01891314C0F8
:103F900010928C0784E080938A071092940781E046
:103FA00080938F0792E09093900790918D0190936A
:103FB000B9058093A907A9C790919F01891314C0DF
:103FC00010928C0785E080938A071092940781E015
:103FD00080938D0792E090938E0790918C0190933F
:103FE000B9058093A90791C79091A301891321C0B6
:103FF00010928C078093B90581E080938A078091A5
:10400000A705843009F081C7209197053091980564
:1040100080917E0190917F012817390709F075C7BB
:10402000809185059091860590938E0580938D05EE
:104030006CC790919D01891310C010928C0783E08A
:1040400080938A0782E08093910780918D0180930D
:10405000B90581E08093A90758C790919C01891305
:1040600051C482E080938C0780918C018093B905C4
:1040700081E08093A90749C7381304C09091A9072C
:104080009111E0C39091910189130BC01092910797
:104090008093B90588E080938A0781E080938B073D
:1040A00034C790918B01891308C0109291078093B7
:1040B000B90587E080938A0728C79091A0018913EA
:1040C00014C01092910786E080938A07109294079B
:1040D00081E08093920792E09093930790918D01F5
:1040E0009093B9058093A90710C790919E018913F9
:1040F00014C01092910784E080938A07109294076D
:1041000081E080938F0792E09093900790918D01CA
:104110009093B9058093A907F8C690919F018913E0
:1041200014C01092910785E080938A07109294073B
:1041300081E080938D0792E090938E0790918C019F
:104140009093B9058093A907E0C69091A3018913C4
:1041500021C0109291078093B90581E080938A076E
:104160008091A705843009F0D0C620919705309141
:10417000980580917E0190917F012817390709F0F9
:10418000C4C6809185059091860590938E05809395
:104190008D05BBC690919D0189130BC082E0809371
:1041A000910780918D018093B90581E08093A907E3
:1041B000ACC690919C01891345C31092910782E08F
:1041C00080938A0780938C0780918C018093B90536
:1041D00081E08093A90799C6381304C02091A907EC
:1041E0002111F0C32091910182130DC0109290070C
:1041F00010928F078093B90588E080938A0781E049
:1042000080938B0782C620918B0182130AC0109283
:10421000900710928F078093B90587E080938A07F3
:1042200074C62091A001821316C0109290071092BC
:104230008F0786E080938A071092940781E080932D
:10424000920792E09093930790918D019093B90516
:104250008093A9075AC620919E0182130FC0109225
:10426000940781E080938F0792E09093900790915C
:104270008D019093B9058093A90747C620919F01AE
:10428000821316C01092900710928F0785E08093DA
:104290008A071092940781E080938D0792E09093B3
:1042A0008E0790918C019093B9058093A9072DC634
:1042B0002091A301821323C01092900710928F07C0
:1042C0008093B90581E080938A078091A7058430A7
:1042D00009F01BC6209197053091980580917E01C9
:1042E00090917F012817390709F00FC68091850545
:1042F0009091860590938E0580938D0506C620913A
:104300009D01821312C01092900710928F0783E0D4
:1043100080938A0782E08093910780918D0180933A
:10432000B90581E08093A907F0C520919C01821313
:1043300049C31092900710928F0782E080938A07FA
:1043400080938C0780918C018093B90581E08093E4
:10435000A907DBC53091A90731119BC330919101A9
:1043600083130DC010928E0710928D078093B905AC
:1043700088E080938A0781E080938B07C6C53091DF
:104380008B0183130AC010928E0710928D078093C1
:10439000B90587E080938A07B8C53091A0018313DF
:1043A00016C010928E0710928D0786E080938A07C0
:1043B0001092940781E08093920792E09093930784
:1043C00090918D019093B9058093A9079EC5309176
:1043D0009E01831316C010928E0710928D0784E001
:1043E00080938A071092940781E080938F0792E070
:1043F0009093900790918D019093B9058093A907B0
:1044000084C530919F0183130FC01092940781E0FF
:1044100080938D0792E090938E0790918C019093FA
:10442000B9058093A90771C53091A301831323C0F7
:1044300010928E0710928D078093B90581E08093CA
:104440008A078091A705843009F05FC52091970500
:104450003091980580917E0190917F01281739074E
:1044600009F053C5809185059091860590938E053E
:1044700080938D054AC530919D01831312C010921F
:104480008E0710928D0783E080938A0782E08093E5
:10449000910780918D018093B90581E08093A907F0
:1044A00034C530919C018313F4C210928E07109290
:1044B0008D0782E080938A0780938C0780918C011E
:1044C0008093B90581E08093A9071FC53091A907A2
:1044D00031118CC33091910183130DC01092930759
:1044E000109292078093B90588E080938A0781E053
:1044F00080938B070AC530918B0183130AC01092F9
:104500009307109292078093B90587E080938A07FA
:10451000FCC43091A00183130FC01092940781E076
:104520008093920792E09093930790918D019093DE
:10453000B9058093A907E9C430919E01831316C081
:10454000109293071092920784E080938A0710924A
:10455000940781E080938F0792E090939007909169
:104560008D019093B9058093A907CFC430919F0125
:10457000831316C0109293071092920785E08093E0
:104580008A071092940781E080938D0792E09093C0
:104590008E0790918C019093B9058093A907B5C4BB
:1045A0003091A301831323C01092930710929207B6
:1045B0008093B90581E080938A078091A7058430B4
:1045C00009F0A3C4209197053091980580917E0150
:1045D00090917F012817390709F097C480918505CC
:1045E0009091860590938E0580938D058EC43091B1
:1045F0009D01831312C0109293071092920783E0DB
:1046000080938A0782E08093910780918D01809347
:10461000B90581E08093A90778C430919C01831388
:10462000E5C2109293071092920782E080938A0766
:1046300080938C0780918C018093B90581E08093F1
:10464000A90763C4381304C09091A90791115DC4F0
:1046500090919101891309C08093B90588E08093F6
:104660008A0781E080938B0750C490918B01891356
:1046700019CC8093B90587E080938A0746C480935C
:10468000B90581E080938A078091A705843009F0FD
:104690003CC4209197053091980580917E019091BE
:1046A0007F012817390709F030C480918505909162
:1046B000860590938E0580938D0527C4381709F4DD
:1046C00042C390919101891309C08093B90588E094
:1046D00080938A0781E080938B0717C490918B01A8
:1046E000891308C010928B078093B90587E08093E7
:1046F0008A070BC49091A001891314C010928B07F4
:1047000086E080938A071092940781E08093920755
:1047100092E09093930790918D019093B9058093C7
:10472000A907F3C390919E01891314C010928B07BF
:1047300084E080938A071092940781E080938F072A
:1047400092E09093900790918D019093B90580939A
:10475000A907DBC390919F01891314C010928B07A6
:1047600085E080938A071092940781E080938D07FB
:1047700092E090938E0790918C019093B90580936D
:10478000A907C3C39091A301891321C010928B077D
:104790008093B90581E080938A078091A7058430D2
:1047A00009F0B3C3209197053091980580917E015F
:1047B00090917F012817390709F0A7C380918505DB
:1047C0009091860590938E0580938D059EC3909160
:1047D0009D01891310C010928B0783E080938A0794
:1047E00082E08093910780918D018093B90581E0EB
:1047F0008093A9078AC390919C018913A4C2109247
:104800008B0782E080938A0780938C0780918C01CC
:104810008093B90581E08093A90777C380919507BC
:10482000853060F0809185059091860590938E0586
:1048300080938D0581E080938A0767C38F5F8093A3
:10484000950763C320919107213009F45EC38091DD
:10485000970590919805223009F041C02091890573
:1048600030918A058217930761F4809187059091B2
:10487000880590938E0580938D0583E08093910742
:1048800044C340918505509186058417950741F4EE
:1048900030938E0520938D0583E08093910735C377
:1048A00020918B0530918C058217930741F450932A
:1048B0008E0540938D0583E08093910726C3409138
:1048C0008705509188058417950709F01EC330931A
:1048D0008E0520938D0583E08093910716C3209168
:1048E0008D0530918E058217930709F00EC38091D4
:1048F000D505882309F409C381E0809391071092BC
:10490000A90703C320918C07213009F4FEC28091CE
:10491000970590919805223009F041C020918505B6
:10492000309186058217930761F480918B059091F1
:104930008C0590938E0580938D0583E080938C0782
:10494000E4C24091890550918A058417950741F486
:1049500030938E0520938D0583E080938C07D5C21C
:1049600020918705309188058217930741F4509371
:104970008E0540938D0583E080938C07C6C24091DD
:104980008B0550918C058417950709F0BEC23093B2
:104990008E0520938D0583E080938C07B6C220910D
:1049A0008D0530918E058217930709F0AEC2809174
:1049B000D505882309F4A9C281E080938C07109261
:1049C000A907A3C280918F07813009F09EC292305F
:1049D00039F41092900790938F071092A90795C20F
:1049E00040919007413009F490C220919705309191
:1049F00098054230C9F58091890590918A0528175C
:104A0000390761F4809187059091880590938E0510
:104A100080938D0583E08093900777C28091850510
:104A2000909186052817390769F340918B055091BD
:104A30008C052417350741F490938E0580938D05DE
:104A400083E08093900761C240918705509188056B
:104A50002417350709F059C290938E0580938D0570
:104A600083E08093900751C240918D0550918E054F
:104A70002417350709F049C22091D505222309F4EE
:104A800044C2809390079F5F909394071092A90768
:104A90003CC280918D07813009F078C0913061F47B
:104AA000213099F010928E0783E080938D078091DA
:104AB00091018093B90529C2923039F410928E0782
:104AC00090938D071092A90720C280918E078130A4
:104AD00009F41BC22091970530919805823009F0A6
:104AE00041C080918505909186052817390761F4AA
:104AF00080918B0590918C0590938E0580938D0508
:104B000083E080938E0701C24091890550918A0508
:104B10002417350741F490938E0580938D0583E02B
:104B200080938E07F2C180918705909188052817A0
:104B3000390741F450938E0540938D0583E08093AF
:104B40008E07E3C140918B0550918C0524173507E2
:104B500009F0DBC190938E0580938D0583E08093EF
:104B60008E07D3C140918D0550918E0524173507CE
:104B700009F0CBC18091D505882309F4C6C181E035
:104B800080938E079F5F90939407BFC1823009F492
:104B9000BCC1A7019601C501B4010E9487428823C8
:104BA000B9F020E030E040E85FE3C701B6010E94C1
:104BB000874281110DC081E080938D0792E0909330
:104BC0008E0790918C019093B9058093A9079DC1A0
:104BD00080910D0790910E07A0910F07B0911007DB
:104BE0000197A105B10509F090C1E5CF8091920729
:104BF000813009F078C0291761F0913051F410929A
:104C0000930783E080939207809191018093B90587
:104C10007CC1923039F410929307909392071092CE
:104C2000A90773C180919307813009F46EC1209167
:104C3000970530919805823009F041C0809189052F
:104C400090918A052817390761F480918705909122
:104C5000880590938E0580938D0583E0809393075C
:104C600054C140918505509186052417350741F4BC
:104C700090938E0580938D0583E08093930745C1C3
:104C800080918B0590918C052817390741F450933A
:104C90008E0540938D0583E08093930736C1409144
:104CA0008705509188052417350709F02EC1909388
:104CB0008E0580938D0583E08093930726C14091F4
:104CC0008D0550918E052417350709F01EC180917E
:104CD000D505882309F419C181E0809393079F5F6C
:104CE0009093940712C1823009F40FC1A701960175
:104CF000C501B4010E9487428823B9F020E030E06A
:104D000040E85FE3C701B6010E94874281110DC0F0
:104D100081E08093920792E09093930790918D01A8
:104D20009093B9058093A907F0C080910D079091E9
:104D30000E07A0910F07B09110070197A105B105CB
:104D400009F0E3C0E5CF80918B07813009F0BBC04B
:104D5000C0907F05D0908005E0908105F09082059D
:104D6000C0918D05D0918E0584E68C9F80018D9F2A
:104D7000100D1124B801645F714080E090E00E9442
:104D800024432B013C019B01AC01C701B6010E94E9
:104D90004E4487FD10C0B8016C507E4F80E090E01B
:104DA0000E9424439B01AC01C701B6010E948742C7
:104DB00018160CF094C0A0908505B09086058091DF
:104DC000870590918805CA15DB0579F514E6189FCB
:104DD000B001199F700D1124072E000C880B990B40
:104DE0000E9426439B01AC01C701B6010E94874285
:104DF00087FD13C01C9FB0011D9F700D1124072E4D
:104E0000000C880B990B0E9426439B01AC01C70143
:104E1000B6010E944E44181694F580918C0180933F
:104E2000B90582E080938B0770C0C817D90779F560
:104E300014E61C9FB0011D9F700D1124072E000C5D
:104E4000880B990B0E9426439B01AC01C701B60158
:104E50000E94874287FD13C01A9DB0011B9D700DF3
:104E60001124072E000C880B990B0E9426439B01EE
:104E7000AC01C701B6010E944E44181674F6809129
:104E80008D018093B90582E080938B073EC020910D
:104E9000890530918A0580918B0590918C05C21708
:104EA000D30739F424E6289FB001299F700D1124FF
:104EB000D8CFC817D90759F484E68C9FB0018D9FCD
:104EC000700D11249CCF81E080938B071EC0A3013D
:104ED0009201C701B6010E944E4487FD16C0B80179
:104EE0006C507E4F80E090E00E9424439B01AC0117
:104EF000C701B6010E94874218163CF080919101CB
:104F00008093B90581E080938B07DF91CF911F914A
:104F10000F91FF90EF90DF90CF90BF90AF909F9058
:104F20008F907F906F905F904F90089580912103B4
:104F30008093480780913E038093550780919902A2
:104F400090919A02A0919B02B0919C028093850659
:104F500090938606A0938706B093880680913F03BE
:104F60008093560780912203809349078091B10175
:104F70009091B201A091B301B091B40180938906E0
:104F800090938A06A0938B06B0938C06809123039E
:104F900080934A078091B5019091B601A091B70125
:104FA000B091B80180938D0690938E06A0938F06E2
:104FB000B0939006809140038093570760918201DF
:104FC00070E080E090E00E9424436093910670932B
:104FD0009206809393069093940610929A071092EB
:104FE0009B071092FD061092FE061092FF0610928B
:104FF00000071092D8051092BA0510928C071092F3
:10500000910710928F071092900710928D071092BF
:105010008E07109292071092930710928B071092AE
:10502000890710928A071092A9071092940710928C
:1050300095071092B90510928E0510928D05109269
:10504000960710929707109288071092D7058091C3
:105050001E038093B70580911F038093B80580914C
:10506000950290919602A0919702B0919802809338
:105070005F0590936005A0936105B09362058091F0
:105080003D038093D605809120038093B605089553
:105090002F923F924F925F926F927F928F929F9248
:1050A000AF92BF92CF92DF92EF92FF920F931F9336
:1050B000CF93DF93CDB7DEB762970FB6F894DEBF1C
:1050C0000FBECDBFF0914807E091910160916F054F
:1050D00070917005809171059091720520916B051A
:1050E00030916C0540916D0550916E05C0904E0158
:1050F000D0904F01E0905001F0905101A0919A079B
:10510000A11104C081E080939A0751C011E0FE1301
:1051100010E00E94C141A70196010E948B4220919C
:105120009B07223031F0233059F0213009F043C081
:105130003EC08091C80581114DC01092D80537C07E
:105140002091C8052223C9F02091FD063091FE066A
:105150004091FF06509100070E94C04120E030E0DE
:105160004AE753E40E944E4487FD1FC082E08093CB
:105170009B0781E08093D8052DC02091FD063091DA
:10518000FE064091FF06509100070E94C04120E0BA
:1051900030E048E452E40E944E4487FD06C081E0BE
:1051A00080939B078093BA0515C0111113C084E04A
:1051B00080939B070FC0112369F023E020939B0786
:1051C0006093FD067093FE068093FF0690930007A0
:1051D0001092BA056091D80570E080E090E00E94DE
:1051E000244360935B0570935C0580935D05909309
:1051F0005E05809155078093D5054091DA0721E03F
:1052000030E0413011F020E030E08091DB0590E0AB
:105210002817390741F031E020E0433009F430E04D
:10522000832F922F02C080E090E04091DB0761E085
:1052300070E0413011F060E070E02091DC0530E07A
:105240006217730739F0433029F0892B99F001E098
:1052500010E004C0892BE1F000E010E010920D078F
:1052600010920E0710920F07109210070E94541E02
:10527000012B71F081E090E0A0E0B0E080930D0799
:1052800090930E07A0930F07B09310070E94541E2F
:105290008091DB058093DA078091DC058093DB0742
:1052A0009091AE058091A4013091B9052091A301A0
:1052B00032130EC0981761F091E080E03091B40590
:1052C0002091A201321301C090E0292E382E02C095
:1052D000212C312C20918801298B27FD04C0322FED
:1052E000330F20E002C02FEF3FEFA0918D05B0916A
:1052F0008E050E94ED449B01AC0179E056954795DF
:10530000379527957A95D1F729833A834B835C8328
:1053100080907F0590908005A0908105B0908205D7
:10532000CA01B9010E9426432B013C019B01AC013B
:10533000C501B4010E94C0416B017C01398937FD70
:1053400005C0432F440F4D87198604C05FEF59876E
:105350006FEF6D8780917201909173019E838D83B1
:10536000998997FD05C0A92FAA0FAF871E8604C093
:10537000BFEFBE87EFEFEF870091740110917501C9
:1053800020915201309153014091540150915501A7
:10539000F989F7FD05C06F2F660F6A8B188A04C064
:1053A0008FEF888B9FEF9A8BC701B6010E948742CF
:1053B00087FF43C029853D85AD81BE810E94ED44B4
:1053C00059E096958795779567955A95D1F70E94FC
:1053D0002443A50194010E94C141A30192010E94AE
:1053E000C0414B015C012E853F85D8010E94ED44F0
:1053F000DC01CB0169E0B695A795979587956A95ED
:10540000D1F7BC01990F880B990B0E9426439B0191
:10541000AC01C501B4010E944E4418160CF452C0F0
:105420006091660170916701072E000C880B990B43
:105430000E942643A501940154C028893A89D801C5
:105440000E94ED44DC01CB0149E0B695A795979504
:1054500087954A95D1F7BC0180E090E00E942443F3
:105460009B01AC01C701B6010E944E4418166CF5B1
:10547000A989A7FD04C03A2F330F20E002C02FEF07
:105480003FEFAD81BE810E94ED44DC01CB0139E0EC
:10549000B695A795979587953A95D1F729813A8141
:1054A0004B815C81280F391F4A1F5B1FCA01B9015C
:1054B0000E9426439B01AC01C501B4010E94C0417A
:1054C0006B017C01E894F7F810C06091660170915F
:1054D0006701072E000C880B990B0E942643A70139
:1054E00096010E9459446B017C01398937FD03C044
:1054F000330F20E002C02FEF3FEFD8010E94ED44B0
:10550000DC01CB0129E0B695A795979587952A955B
:10551000D1F7BC01990F880B990B0E9426439B0180
:10552000AC01C701B6010E948B426B017C01109156
:105530005607111104C080914907882369F08091B2
:10554000B1019091B201A091B301B091B4018983EE
:105550009A83AB83BC830CC02091890630918A0664
:1055600040918B0650918C0629833A834B835C8350
:1055700029813A814B815C81C701B6010E94C041FB
:105580006D837E838F839887111104C080914A07B1
:10559000882349F04090B5015090B6016090B70162
:1055A0007090B80108C040908D0650908E066090B3
:1055B0008F0670909006A3019201C701B6010E9468
:1055C000C14169877A878B879C8720911A01309126
:1055D0001B0140911C0150911D016D817E818F81C5
:1055E00098850E9459444B015C0120912201309121
:1055F00023014091240150912501C701B6010E9469
:1056000059449B01AC01C501B4010E94C1414B0149
:105610005C0120911E0130911F01409120015091A9
:10562000210169857A858B859C850E9459449B015F
:10563000AC01C501B4010E94C141209185063091A1
:10564000860640918706509188060E94C0416E8769
:105650007D87982E892E2091090230910A0240916F
:105660000B0250910C02982D0E944E4418169CF487
:10567000A0909D02B0909E0200919F021091A00206
:105680002E853D85492D582DB501C8010E948742C0
:1056900018162CF528C020919D0230919E02409151
:1056A0009F025091A00260919102709192028091AC
:1056B0009302909194020E9459445B018C019B01DA
:1056C000AC016E857D85892D982D0E944E4487FF03
:1056D0000AC0B501C8010E940334811104C0AE861E
:1056E000BD86902E812E20918506309186064091B0
:1056F0008706509188066E857D85892D982D0E949C
:10570000C1414B015C01309191013D871091B90578
:1057100000918B01232881F06091820170E080E08C
:1057200090E00E94244360935F057093600580932E
:105730006105909362050DC04D85141769F310172C
:1057400059F360935F0570936005809361059093B2
:105750006205C701B6019F7720EB3EE843EE5CE3AC
:105760000E948742181674F0809188078F5F8536F3
:1057700018F4809388070AC01092880781E080930C
:10578000D70504C0109288071092D705809157075B
:10579000882319F01093B6051BC020915201309157
:1057A00053014091540150915501609191067091BF
:1057B000920680919306909194060E944E4418168A
:1057C0001CF480918D0102C080918C018093B605FC
:1057D00080915607882309F18091B1019091B2011F
:1057E000A091B301B091B4018093890690938A0689
:1057F000A0938B06B0938C068091B5019091B60171
:10580000A091B701B091B80180938D0690938E0658
:10581000A0938F06B093900631C08091A601882393
:10582000C9F08D819E81AF81B88580938906909360
:105830008A06A0938B06B0938C0629853A854B8502
:105840005C8520938D0630938E0640938F0650938F
:10585000900614C089819A81AB81BC8180938906AE
:1058600090938A06A0938B06B0938C0640928D0687
:1058700050928E0660928F06709290068091B605C7
:1058800090918C01891304C09D859093B70516C033
:1058900090918D01891306C00093B705AD85A09343
:1058A000B80515C0BD858B1305C0B093B705B0937F
:1058B000B8050DC0801305C00093B7050093B80567
:1058C00006C08091A3018093B7058093B8058091AD
:1058D000D7058093D605109348078093550780928B
:1058E000850690928606A0928706B09288068093DD
:1058F0005607909124039093490790912503909324
:105900004A078093570780915F0590916005A091A9
:105910006105B09162058093910690939206A093E1
:105920009306B093940662960FB6F894DEBF0FBE4E
:10593000CDBFDF91CF911F910F91FF90EF90DF903E
:10594000CF90BF90AF909F908F907F906F905F901F
:105950004F903F902F900895CF92DF92EF92FF9259
:105960001092DF0581E08093E005C090CD01D090DA
:10597000CE01E090CF01F090D001A7019601609197
:10598000FD057091FE058091FF05909100060E9433
:10599000874281111092E0058091E005882319F07B
:1059A00081E08093DF058091DF0581113CC0C70154
:1059B000B601F4D6882361F06091CD017091CE01DB
:1059C0008091CF019091D001E9D681110CC01BC00C
:1059D0006091CD017091CE018091CF019091D00165
:1059E00006D78111E9CF8091CD019091CE01A09190
:1059F000CF01B091D0018093230590932405A0930B
:105A00002505B09326058091230590912405A0914A
:105A10002505B09126058093FD059093FE05A09382
:105A2000FF05B093000682E00E94CA008093DE0565
:105A300080916007853018F48F5F809360078091B4
:105A40006107823318F48F5F8093610780915E074E
:105A500081110AC081E080935E0780935F071092F6
:105A60006007109261071CC00CD70E9463020E945D
:105A7000E50480916007853069F40E94D70D0E948B
:105A8000DB000E94380D6BD1D7D1CBD201DB0E9455
:105A90007A16E1D480916107823311F40E941401D7
:105AA00080916007853011F4109260078091610742
:105AB000823311F41092610760919F0570E080912C
:105AC000BD010E94743C6091A00570E08091C1010D
:105AD0000E94743C6091A10570E08091C5010E9414
