:100000008BC100000C94CF5B0C94FF5BADC1000072
:10001000ABC10000A9C10000A7C100000C94956805
:10002000A3C100000C9482699FC100009DC1000023
:100030009BC1000099C1000097C1000095C100005C
:100040000C942F5C91C100000C943A650C94676588
:100050008BC1000089C1000087C1000085C100007C
:100060000C94F55281C10000E218EB185D194B1A8F
:100070008819B619C119EF19161B2B1B401B551BEC
:10008000801BA71BD71B3C363F3642361B371E371B
:1000900021372337E6372154255425542554255438
:1000A0002554255425542653255425542554255488
:1000B0002554255425542653255425542554255478
:1000C0002554255425542F5325542554255425545F
:1000D0002554255425545A53255425542554255424
:1000E0002554255425542F5325542554255425543F
:1000F0002554255425545F532554255425542554FF
:1001000025542554255464532554255425542554E9
:1001100025542554255479532554255425542554C4
:10012000255425542554A653255425542554255487
:1001300025542554255469532554255425542554B4
:100140002554255425548553255425542554255488
:10015000255425542554A853255425542554255455
:10016000255425542554A853255425542554255445
:10017000255425542554A853255425542554255435
:10018000255425542554A853255425542554255425
:10019000255425542554B05325542554255425540D
:1001A000255425542554E7532554255425542554C6
:1001B000255425542554B0532554255425542554ED
:1001C000255425542554E7532554255425542554A6
:1001D000255425542554CA532554255425542554B3
:1001E000255425542554EA53255425542554255483
:1001F000255425542554EA53255425542554255473
:10020000255425542554005425542554255425544B
:100210002554255425541C5425542554255425541F
:100220002554255425541C5425542554255425540F
:1002300025542554255425542554255425542554F6
:1002400025542554255425542554255425542554E6
:1002500025542554255425542554255425542554D6
:1002600025542554255425542554255425542554C6
:1002700025542554255425542554255425542554B6
:100280002554255425542554084AD73B3BCE016EAE
:1002900084BCBFFDC12F3D6C74319ABD56833DDADD
:1002A0003D00C77F11BED9E4BB4C3E916BAAAABEEC
:1002B000000000803F0000000000240027002A000A
:1002C00000000000250028002B0000000000230093
:1002D00026002900040404040404040402020202A7
:1002E00002020303030303030102040810204080F9
:1002F0000102040810200102040810200000000878
:1003000000020100000304070000000000000000DC
:100310000200D05ACE659E6611241FBECFEFD8E0F2
:10032000DEBFCDBF12E0A0E0B1E0E2E0FCED02C034
:1003300005900D92AC36B107D9F729E0ACE6B2E0F2
:1003400001C01D92A13CB207E1F711E0CCE8D1E079
:1003500004C02197FE010E94CC6DC938D107C9F7AE
:100360000E94256A0C94FF6D4BCECF93DF9300D093
:10037000CDB7DEB789836A838A81882329F061E05B
:1003800089810E945A5E04C060E089810E945A5EA1
:100390000F900F90DF91CF910895CF93DF9300D00E
:1003A000CDB7DEB789836A838A81882329F061E02B
:1003B00089810E94815F04C060E089810E94815F21
:1003C0000F900F90DF91CF910895CF93DF9300D0DE
:1003D000CDB7DEB78A838A810E940760019711F446
:1003E00081E001C080E0898389810F900F90DF91C7
:1003F000CF910895CF93DF93CDB7DEB7109250041D
:1004000010924F04DF91CF910895CF93DF9300D0E6
:10041000CDB7DEB78091150290911602FC01808164
:100420009181FC01808191819A83898389819A815C
:100430008E5F9E4FFC012081318189819A8160E02D
:1004400070E0F90109950F900F90DF91CF91089519
:10045000CF93DF9300D0CDB7DEB780911502909196
:100460001602FC0180819181FC01808191819A8337
:10047000898389819A81865F9E4FFC012081318129
:1004800089819A81F90109950F900F90DF91CF91A1
:100490000895CF93DF93CDB7DEB710923106109257
:1004A0002F06109230061092B7051092B8051092E0
:1004B000B9051092BA051092900410922E0610926F
:1004C0002C0610922D061092B3051092B4051092CE
:1004D000B5051092B60510928F0410928C041092FC
:1004E0008A0410928B0410928E0410928D04DF9176
:1004F000CF910895CF93DF9300D000D0CDB7DEB772
:1005000080915F049091600420916A0130916B01A9
:1005100041E08217930709F040E0842F80938A041A
:10052000809161049091620420916A0130916B0185
:1005300041E08217930709F040E0842F80938B04F9
:1005400080916B04282F30E080916C04882F90E01C
:10055000A901481B590BCA019A83898389819A8111
:1005600099233CF489819A819195819591099A8387
:10057000898380918501282F30E041E089819A812B
:10058000281739070CF040E04B83809131068F30FB
:1005900028F4809131068F5F8093310680912F0679
:1005A000882339F481E080932F0682E0809330061F
:1005B00051C080913006882F90E08130910509F478
:1005C00048C00297D1F48B818823B1F08091370421
:1005D00090913804A0913904B0913A048093B70502
:1005E0009093B805A093B905B093BA0583E08093C2
:1005F0003006109231062EC02DC0809131068A300F
:1006000018F48B81882321F58B818823E9F0809170
:10061000370490913804A0913904B0913A042091A4
:10062000B7053091B8054091B9055091BA05BC01A4
:10063000CD010E94636B882339F481E080933006FA
:1006400081E08093900404C082E08093300602C071
:1006500001C0000080916D04282F30E080916E046D
:10066000882F90E0A901481B590BCA019A838983FE
:1006700089819A8199233CF489819A819195819508
:1006800091099A83898380918501282F30E041E088
:1006900089819A81281739070CF040E04B838091BB
:1006A0002E068F3028F480912E068F5F80932E06C1
:1006B00080912C06882339F481E080932C0682E017
:1006C00080932D0651C080912D06882F90E08130B7
:1006D000910509F448C00297D1F48B818823B1F0C9
:1006E00080913B0490913C04A0913D04B0913E0464
:1006F0008093B3059093B405A093B505B093B60568
:1007000083E080932D0610922E062EC02DC080917E
:100710002E068A3018F48B81882321F58B8188235B
:10072000E9F080913B0490913C04A0913D04B0918C
:100730003E042091B3053091B4054091B505509128
:10074000B605BC01CD010E94636B882339F481E0BA
:1007500080932D0681E080938F0404C082E0809313
:100760002D0602C001C0000080919004882321F46E
:1007700080918F04882319F081E090E002C080E02E
:1007800090E08B8380918A04882339F480918B04D4
:10079000882319F48B81882319F081E090E002C04E
:1007A00080E090E08C839091800480919001981774
:1007B00071F080919004882339F080918F04882310
:1007C00019F081E090E002C080E090E08B838B81A3
:1007D000882341F48091A404882321F4809191041A
:1007E000882319F081E090E002C080E090E08093DF
:1007F0008C0490918C0481E0992309F080E080932F
:100800008D048C81882321F480918C04882319F035
:1008100081E090E002C080E090E080938E040F9031
:100820000F900F900F90DF91CF910895CF93DF93AA
:10083000CDB7DEB7109268041092670410926A0474
:1008400010926904DF91CF910895CF93DF93CDB7D4
:10085000DEB760E070E0CB010E94546961E070E0B7
:1008600080E090E00E945469DF91CF910895CF938A
:10087000DF93CDB7DEB780E00E94535D90936804AC
:100880008093670481E00E94535D90936A04809393
:100890006904DF91CF910895CF93DF9300D0CDB756
:1008A000DEB79A83898389819A81FC011082118243
:1008B000128213820F900F90DF91CF910895CF9302
:1008C000DF93CDB7DEB72A970FB6F894DEBF0FBE21
:1008D000CDBF8D836E8358874F833A8729878D815B
:1008E0008823D1F189859A85FC0180818130A1F12D
:1008F000909193018E81981769F480915A0190919B
:100900005B01A0915C01B0915D0189839A83AB8307
:10091000BC830CC08091560190915701A091580161
:10092000B091590189839A83AB83BC838F81988569
:10093000FC01208131814281538189819A81AB817F
:10094000BC81820F931FA41FB51F2F813885F90129
:1009500080839183A283B38389859A852D81FC014D
:1009600020832A960FB6F894DEBF0FBECDBFDF916D
:10097000CF910895CF93DF9300D000D0CDB7DEB7ED
:100980009A8389837C836B838B819C81FC01108695
:100990008B819C81FC0111868B819C81FC011286DC
:1009A00089819A81FC0110821182128213820F9038
:1009B0000F900F900F90DF91CF910895CF93DF9319
:1009C000CDB7DEB728970FB6F894DEBF0FBECDBF08
:1009D00069837A838B839C835E834D8338872F83DF
:1009E0008F819885FC0184819581A681B7812F81B3
:1009F0003885F90180839183A283B3832F81388561
:100A000089819A81AB81BC81F90184839583A68316
:100A1000B7838F819885FC0180858823D9F42F8145
:100A2000388589819A81AB81BC81F901808391836A
:100A3000A283B3838F81988521E0FC0120878F8179
:100A4000988521E0FC0121878F81988521E0FC01B8
:100A5000228792C08F819885FC018185813009F0C1
:100A60006DC08F819885FC0180819181A281B381C5
:100A70002F813885F9012481358146815781BC0158
:100A8000CD010E94636B8823D9F18F819885FC0189
:100A900084819581A681B78120E030E040E85FE362
:100AA000BC01CD010E94636B882351F58F8198852D
:100AB000FC018285882F90E0A0E0B0E0BC01CD0170
:100AC0000E94006CDC01CB019C01AD0165EF76E872
:100AD00088E494E40E94676BDC01CB012D813E81A8
:100AE000F90180839183A283B3838F81988521E06C
:100AF000FC0121878F81988521E0FC0122873CC081
:100B00008F819885FC018285853668F08F81988574
:100B100022E0FC0121878D819E81FC0110821182DF
:100B20001282138229C08F819885FC01828521E081
:100B3000280F8F819885FC0122871EC08F819885A0
:100B4000FC0180819181A281B3812F813885F901D7
:100B50002481358146815781BC01CD010E94636BA0
:100B6000882351F08F81988521E0FC0121878F81B6
:100B7000988521E0FC01228728960FB6F894DEBF05
:100B80000FBECDBFDF91CF910895CF93DF9300D0FB
:100B9000CDB7DEB7109216061092170610921806FF
:100BA0001092190681E080931A0680E090E0A0E898
:100BB000BFE38093670590936805A0936905B093A0
:100BC0006A0510925F0510926005109261051092FF
:100BD000620510926B0510926C0510926D051092D3
:100BE0006E051092630510926405109265051092CF
:100BF000660510926F0510927005109271051092A3
:100C0000720581E080931B0680E090E0A0E8BFE3DE
:100C10008093730590937405A0937505B093760542
:100C200010928B0510928C0510928D0510928E05F6
:100C30001A82198221C089819A818D96880F991F05
:100C4000880F991F8D539B4FFC01108211821282D5
:100C5000138289819A81C396880F991F880F991FE3
:100C60008D539B4FFC011082118212821382898165
:100C70009A8101969A83898389819A810597DCF20A
:100C80001092A3051092A4051092A5051092A60536
:100C900010921C06109223068FEB94E0FDDD8BEB87
:100CA00094E0FADD63E976E087EB94E063DE68E8E0
:100CB00076E083EB94E05EDE80912E0190912F012F
:100CC000A0913001B09131018093CB049093CC047A
:100CD000A093CD04B093CE041A82198213C08981E7
:100CE0009A810396880F991F880F991F8D539B4FE8
:100CF000FC01108211821282138289819A810196ED
:100D00009A83898389819A8105974CF31092E30431
:100D10001092E4041092E5041092E6041092430449
:100D200010924404109245041092460481E080938E
:100D300024061092A7051092A8051092A9051092FA
:100D4000AA05109266041092650410920C06109287
:100D50000B0610926B0610926C0610923F041092D4
:100D600040041092410410924204109288041092A0
:100D700089041092A70410922F041092300410924C
:100D800031041092320410923704109238041092F9
:100D9000390410923A0410923304109234041092E1
:100DA00035041092360410923B0410923C041092C9
:100DB0003D0410923E040F900F90DF91CF91089563
:100DC000CF93DF93CDB7DEB71092790610927A06F3
:100DD00010927B06DF91CF9108958F929F92AF92F0
:100DE000BF92CF92DF92EF92FF920F931F93CF9318
:100DF000DF93CDB7DEB7EC970FB6F894DEBF0FBE2A
:100E0000CDBF809116068F8B80911706888F9F89A2
:100E1000888D891720F48091930189870BC09F8961
:100E2000888D981720F480918D01898703C0809167
:100E3000A50189872091690430916A0480916E012F
:100E400090916F0141E08217930708F040E0498FCD
:100E500026EA39E04FEB54E06985898D30DDC0909A
:100E60003E01D0903F01E0904001F090410180911F
:100E7000BF049091C004A091C104B091C204BC0110
:100E8000CD010E94026CDC01CB019C01AD01C701C8
:100E9000B6010E94356DDC01CB018A8F9B8FAC8F30
:100EA000BD8F809118068E8F809119068F8F9E8D31
:100EB0008F8D891720F4809193018E870BC09E8DB2
:100EC0008F8D981720F480918D018E8703C08091BB
:100ED000A5018E87209167043091680480916E018E
:100EE00090916F0141E08217930708F040E048A31A
:100EF00025EA39E04BEB54E06E8588A1E0DCC09038
:100F00003E01D0903F01E0904001F090410180917E
:100F1000BB049091BC04A091BD04B091BE04BC017F
:100F2000CD010E94026CDC01CB019C01AD01C70127
:100F3000B6010E94356DDC01CB0189A39AA3ABA356
:100F4000BCA38F89282F30E0888D882F90E0A901DD
:100F5000481B590BCA01092E000CAA0BBB0BBC0184
:100F6000CD010E94026CDC01CB0120E030EC40E4BA
:100F70005DE3BC01CD010E94356DDC01CB016C014C
:100F80007D0180915F0590916005A0916105B09110
:100F9000620520EE30EA47E658E4BC01CD010E942C
:100FA000356DDC01CB019C01AD01C701B6010E948A
:100FB0009D6ADC01CB016C017D01809163059091FC
:100FC0006405A0916505B09166052CE53EE046E01C
:100FD00059E4BC01CD010E94356DDC01CB019C01BF
:100FE000AD01C701B6010E949D6ADC01CB0124E27C
:100FF00036E648E659E4BC01CD010E94676BDC018E
:10100000CB018DA39EA3AFA3B8A720E836E948E99A
:1010100057E46DA17EA18FA198A50E94356DDC01DA
:10102000CB016C017D0180915F0590916005A091DD
:101030006105B091620520E836E948E158E4BC0159
:10104000CD010E94356DDC01CB019C01AD01C701D2
:10105000B6010E949D6ADC01CB016C017D0180918B
:10106000630590916405A0916505B091660520E83F
:1010700036E948E957E4BC01CD010E94356DDC0139
:10108000CB019C01AD01C701B6010E949D6ADC0144
:10109000CB017C018D0180910A0190910B01A091FF
:1010A0000C01B0910D019C01AD01C801B7010E9476
:1010B000676BDC01CB016C017D0180918901880F98
:1010C000982F990F990F890F882F90E0A0E0B0E03A
:1010D000BC01CD010E94006C4B015C0180914E016E
:1010E00090914F01A0915001B09151019C01AD012F
:1010F000C501B4010E94676BDC01CB019C01AD010D
:10110000C701B6010E94356DDC01CB0189A79AA702
:10111000ABA7BCA7898D882F90E0A0E0B0E0BC0110
:10112000CD010E94006CDC01CB0123E936E047EBE6
:1011300054E0BC01CD0142DC8091AA01882321F456
:1011400080911A06882349F080E090E0A0E8BFE390
:101150008D839E83AF83B8870CC080916705909183
:101160006805A0916905B0916A058D839E83AF8360
:10117000B8878091420190914301A0914401B091C0
:1011800045012D813E814F815885BC01CD010E94D2
:10119000356DDC01CB018DA79EA7AFA7B8AB8091C1
:1011A000260190912701A0912801B09129012DA538
:1011B0003EA54FA558A9BC01CD010E949D6ADC0146
:1011C000CB012DA53EA54FA558A9BC01CD010E947C
:1011D000676BDC01CB0189AB9AABABABBCAB90913D
:1011E00093018985981769F48091B7049091B804A8
:1011F000A091B904B091BA048B8B9C8BAD8BBE8B44
:101200000DC08091B7049091B804A091B904B09139
:10121000BA04B0588B8B9C8BAD8BBE8B29A53AA59D
:101220004BA55CA56B897C898D899E890E949C6AEF
:10123000DC01CB0129A93AA94BA95CA9BC01CD01CC
:101240000E94356DDC01CB019C01AD0169A57AA539
:101250008BA59CA50E949D6ADC01CB0189A79AA75A
:10126000ABA7BCA789A59AA5ABA5BCA580932F0465
:1012700090933004A0933104B09332048E8D282FC4
:1012800030E08F8D882F90E0A901481B590BCA01CF
:10129000092E000CAA0BBB0BBC01CD010E94026CF5
:1012A000DC01CB0120E030EC40E45DE3BC01CD018A
:1012B0000E94356DDC01CB016C017D0180916B05D5
:1012C00090916C05A0916D05B0916E0520EE30EA0D
:1012D00047E658E4BC01CD010E94356DDC01CB012D
:1012E0009C01AD01C701B6010E949D6ADC01CB01E2
:1012F0006C017D0180916F0590917005A091710541
:10130000B09172052CE53EE046E059E4BC01CD0108
:101310000E94356DDC01CB019C01AD01C701B60116
:101320000E949D6ADC01CB0124E236E648E659E4DE
:10133000BC01CD010E94676BDC01CB018B8B9C8BC8
:10134000AD8BBE8B20E836E948E957E46B897C8990
:101350008D899E890E94356DDC01CB016C017D0178
:1013600080916B0590916C05A0916D05B0916E0513
:1013700020E836E948E158E4BC01CD010E94356D12
:10138000DC01CB019C01AD01C701B6010E949D6A41
:10139000DC01CB016C017D0180916F05909170059E
:1013A000A0917105B091720520E836E948E957E44B
:1013B000BC01CD010E94356DDC01CB019C01AD016A
:1013C000C701B6010E949D6ADC01CB017C018D0141
:1013D00080910A0190910B01A0910C01B0910D0137
:1013E0009C01AD01C801B7010E94676BDC01CB0114
:1013F0006C017D0180918901880F982F990F990FB9
:10140000890F882F90E0A0E0B0E0BC01CD010E94E0
:10141000006C4B015C0180914E0190914F01A091B5
:101420005001B09151019C01AD01C501B4010E9470
:10143000676BDC01CB019C01AD01C701B6010E94C5
:10144000356DDC01CB0189A79AA7ABA7BCA788A102
:10145000882F90E0A0E0B0E0BC01CD010E94006CBC
:10146000DC01CB0128E836E043EB54E0BC01CD01C0
:10147000A5DA8091AA01882321F480911B06882394
:1014800049F080E090E0A0E8BFE38A879B87AC87C3
:10149000BD870CC08091730590917405A09175056E
:1014A000B09176058A879B87AC87BD878091420182
:1014B00090914301A0914401B09145012A853B855B
:1014C0004C855D85BC01CD010E94356DDC01CB01F1
:1014D0008DAB9EABAFABB8AF809126019091270149
:1014E000A0912801B09129012DA93EA94FA958AD7D
:1014F000BC01CD010E949D6ADC01CB012DA93EA952
:101500004FA958ADBC01CD010E94676BDC01CB0136
:1015100089AF9AAFABAFBCAF909193018E8598170E
:1015200069F48091B3049091B404A091B504B09192
:10153000B60489839A83AB83BC830DC08091B304C6
:101540009091B404A091B504B091B604B0588983C9
:101550009A83AB83BC8329A53AA54BA55CA5698179
:101560007A818B819C810E949C6ADC01CB0129AD30
:101570003AAD4BAD5CADBC01CD010E94356DDC01D7
:10158000CB0129A53AA54BA55CA5BC01CD010E94C4
:101590009D6ADC01CB018093330490933404A093C3
:1015A0003504B09336048091770590917805A09129
:1015B0007905B0917A059C01AD016A8D7B8D8C8D8A
:1015C0009D8D0E949C6ADC01CB017C018D01809184
:1015D0008B0590918C05A0918D05B0918E059C0195
:1015E000AD01C801B7010E949D6ADC01CB0189836E
:1015F0009A83AB83BC832DEC3CEC4CE45EE36981C5
:101600007A818B819C810E94356DDC01CB018093B6
:10161000370490933804A0933904B0933A0480912E
:101620008F0590919005A0919105B09192059C0134
:10163000AD0169A17AA18BA19CA10E949C6ADC01E9
:10164000CB017C018D018091A3059091A405A0910F
:10165000A505B091A6059C01AD01C801B7010E9486
:101660009D6ADC01CB0189A79AA7ABA7BCA72DEC8B
:101670003CEC4CE45EE369A57AA58BA59CA50E9491
:10168000356DDC01CB0180933B0490933C04A09327
:101690003D04B0933E0490911C06809190019817F0
:1016A00029F080912602882309F481C180912F04BA
:1016B00090913004A0913104B09132042091330410
:1016C000309134044091350450913604BC01CD0171
:1016D0000E949C6ADC01CB016C017D01809170014C
:1016E00090917101CC01A0E0B0E0BC01CD010E945D
:1016F000006CDC01CB019C01AD01C701B6010E9469
:10170000676BDC01CB012FE632E143E85AE3BC0111
:10171000CD010E94356DDC01CB017C018D018091F2
:10172000CB049091CC04A091CD04B091CE049C0147
:10173000AD01C801B7010E949D6ADC01CB01809315
:10174000E7039093E803A093E903B093EA03809141
:10175000E7039091E803A091E903B091EA032BED30
:101760003FE049EC50E4BC01CD010E942A6D1816FF
:10177000DCF48091E7039091E803A091E903B09134
:10178000EA032BED3FE049EC50E4BC01CD010E949F
:101790009C6ADC01CB018093E7039093E803A0935C
:1017A000E903B093EA032BC08091E7039091E8032B
:1017B000A091E903B091EA0320E030E0A901BC0167
:1017C000CD010E94636B8823D4F48091E70390914C
:1017D000E803A091E903B091EA032BED3FE049EC67
:1017E00050E4BC01CD010E949D6ADC01CB018093D5
:1017F000E7039093E803A093E903B093EA03809191
:10180000170290911802A0911902B0911A0220912A
:10181000E7033091E8034091E9035091EA03BC01EA
:10182000CD010E94356DDC01CB018093EB039093D9
:10183000EC03A093ED03B093EE038091EB03909142
:10184000EC03A091ED03B091EE032091CF04309111
:10185000D0044091D1045091D204BC01CD010E942A
:101860009C6ADC01CB017C018D018091E3049091A5
:10187000E404A091E504B091E6049C01AD01C80127
:10188000B7010E949D6ADC01CB018093EF03909326
:10189000F003A093F103B093F2038091EF039091D2
:1018A000F003A091F103B091F2032DEC3CEC4CE479
:1018B0005EE3BC01CD010E94356DDC01CB0180935C
:1018C000430490934404A0934504B093460480914C
:1018D000E7039091E803A091E903B091EA038093B4
:1018E000CB049093CC04A093CD04B093CE0480910C
:1018F000D3049091D404A091D504B091D6048093E0
:10190000CF049093D004A093D104B093D2048091DB
:10191000D7049091D804A091D904B091DA048093AF
:10192000D3049093D404A093D504B093D6048091AB
:10193000DB049091DC04A091DD04B091DE0480937F
:10194000D7049093D804A093D904B093DA0480917B
:10195000DF049091E004A091E104B091E20480934F
:10196000DB049093DC04A093DD04B093DE0480914B
:10197000EB039091EC03A091ED03B091EE03809303
:10198000DF049093E004A093E104B093E20480911B
:10199000EF039091F003A091F103B091F2038093D3
:1019A000E3049093E404A093E504B093E6048091EB
:1019B000A901882309F490C180917906882319F43C
:1019C00081E08093790680912406882309F45BC026
:1019D00080917A06882359F41092A7051092A805E1
:1019E0001092A9051092AA0581E080937A06909141
:1019F0002306898D981711F1C090A705D090A805EE
:101A0000E090A905F090AA0580917A0190917B0160
:101A1000CC01A0E0B0E0BC01CD010E94006CDC0173
:101A2000CB019C01AD01C701B6010E949D6ADC019A
:101A3000CB018F87988BA98BBA8B0CC08091A7059F
:101A40009091A805A091A905B091AA058F87988BC0
:101A5000A98BBA8B6F85788989899A890E94D46B02
:101A6000DC01CB0190936604809365048F8598898F
:101A7000A989BA898093A7059093A805A093A90581
:101A8000B093AA050AC080917A06882331F010929B
:101A900066041092650410927A0680910B0690916C
:101AA0000C068F3F9F4348F480910B0690910C06E3
:101AB000019690930C0680930B0680916B06882309
:101AC000A1F481E080936B0682E080936C06109213
:101AD0000C0610920B0685E08093880485E08093C5
:101AE000890481E08093A704EEC080916C06882F62
:101AF00090E08230910509F443C0833091051CF4D5
:101B0000019749F0ABC08330910509F459C004979F
:101B100009F48BC0A3C08091650490916604863956
:101B2000910588F085E08093880485E0809389049E
:101B300081E08093A70485E080936C0610920C06E8
:101B400010920B061CC080910B0690910C06803100
:101B50009742A8F01092A70480E090E0A8E4B3E4D4
:101B600080933F0490934004A0934104B0934204B7
:101B700081E08093880481E080938904A4C0A3C09D
:101B800080910B0690910C0680319742C0F0109224
:101B9000A70480E090E0A8ECB2E480933F04909327
:101BA0004004A0934104B093420481E080938804F0
:101BB00081E08093890484E080936C0684C083C0B4
:101BC00080916504909166048639910588F085E0DE
:101BD0008093880485E08093890481E08093A70442
:101BE00081E080936C0610920C0610920B061CC0CC
:101BF00080910B0690910C0680319742A8F01092CC
:101C0000A70480E090E0A6E1B3E480933F049093C2
:101C10004004A0934104B093420481E0809388047F
:101C200081E0809389044FC04EC0809165049091FB
:101C300066048639910588F085E08093880485E004
:101C40008093890481E08093A70483E080936C06ED
:101C500010920C0610920B0636C035C080916504B8
:101C6000909166048639910588F082E080936C0635
:101C700010920C0610920B0685E08093880485E094
:101C80008093890481E08093A7041CC080910B0697
:101C900090910C0680319742A8F01092A70480E042
:101CA00090E0AAE7B3E480933F0490934004A093AC
:101CB0004104B093420481E08093880481E08093E2
:101CC000890400C000009091A70481E0992309F0E5
:101CD00080E08093240616C080917906882391F0D5
:101CE00080917A06882331F0109266041092650480
:101CF00010927A0680917B06882311F010927B0661
:101D0000109279068091AA01882389F080E090E002
:101D1000A0E8BFE38D839E83AF83B88780E090E027
:101D2000A0E8BFE38A879B87AC87BD8745C08091C9
:101D3000A801882309F440C0809146019091470191
:101D4000A0914801B091490129A93AA94BA95CA9E0
:101D5000BC01CD010E949C6ADC01CB012DA53EA5F2
:101D60004FA558A9BC01CD010E94356DDC01CB0106
:101D70008D839E83AF83B887809146019091470100
:101D8000A0914801B091490129AD3AAD4BAD5CAD90
:101D9000BC01CD010E949C6ADC01CB012DA93EA9AA
:101DA0004FA958ADBC01CD010E94356DDC01CB01BE
:101DB0008A879B87AC87BD8780916B0480931606CA
:101DC00080916C048093170680916D0480931806AF
:101DD00080916E048093190680915F059091600553
:101DE000A0916105B09162058093630590936405AD
:101DF000A0936505B09366058DA19EA1AFA1B8A57E
:101E000080935F0590936005A0936105B093620590
:101E100010921A068D819E81AF81B88580936705E7
:101E200090936805A0936905B0936A0580916B054E
:101E300090916C05A0916D05B0916E0580936F0532
:101E400090937005A0937105B09372058B899C895E
:101E5000AD89BE8980936B0590936C05A0936D0549
:101E6000B0936E0510921B068A859B85AC85BD8557
:101E70008093730590937405A0937505B0937605D0
:101E800080917B0590917C05A0917D05B0917E05A8
:101E90008093770590937805A0937905B0937A05A0
:101EA00080917F0590918005A0918105B091820578
:101EB00080937B0590937C05A0937D05B0937E0570
:101EC0008091830590918405A0918505B091860548
:101ED00080937F0590938005A0938105B093820540
:101EE0008091870590918805A0918905B0918A0518
:101EF0008093830590938405A0938505B093860510
:101F00008A8D9B8DAC8DBD8D8093870590938805C0
:101F1000A0938905B0938A0589819A81AB81BC81A0
:101F200080938B0590938C05A0938D05B0938E05BF
:101F30008091930590919405A0919505B091960597
:101F400080938F0590939005A0939105B09392058F
:101F50008091970590919805A0919905B0919A0567
:101F60008093930590939405A0939505B09396055F
:101F700080919B0590919C05A0919D05B0919E0537
:101F80008093970590939805A0939905B0939A052F
:101F900080919F059091A005A091A105B091A20507
:101FA00080939B0590939C05A0939D05B0939E05FF
:101FB00089A19AA1ABA1BCA180939F059093A00594
:101FC000A093A105B093A20589A59AA5ABA5BCA530
:101FD0008093A3059093A405A093A505B093A605AF
:101FE0008091800480931C06898D80932306EC9653
:101FF0000FB6F894DEBF0FBECDBFDF91CF911F911A
:102000000F91FF90EF90DF90CF90BF90AF909F9097
:102010008F900895CF93DF93CDB7DEB761970FB65A
:10202000F894DEBF0FBECDBF6A877B878C879D8704
:102030002E873F87488B598B198619868091870197
:10204000882F90E0A0E0B0E0BC01CD010E94006CC0
:10205000DC01CB019C01AD016A857B858C859D856A
:102060000E949C6ADC01CB0120E030E0A901BC01A8
:10207000CD010E94636B88230CF049C080918701D9
:10208000882F90E0A0E0B0E0BC01CD010E94006C80
:10209000DC01CB012A853B854C855D85BC01CD01EA
:1020A0000E949D6ADC01CB01BC01CD010E94CF6B77
:1020B000DC01CB019E838D8380918701882F90E086
:1020C000A0E0B0E0BC01CD010E94006CDC01CB01BE
:1020D0009C01AD016A857B858C859D850E949C6AEB
:1020E000DC01CB0120E030E044EB53E4BC01CD0146
:1020F0000E949D6ADC01CB01BC01CD010E94CF6B27
:10210000DC01CB0198878F8381E08987D7C08091DC
:102110008701882F90E0A0E0B0E0BC01CD010E94D3
:10212000006CDC01CB012A853B854C855D85BC01BB
:10213000CD010E949D6ADC01CB0120E030E044EB40
:1021400053E4BC01CD010E942A6D18160CF049C061
:1021500080918701882F90E0A0E0B0E0BC01CD0124
:102160000E94006CDC01CB012A853B854C855D8596
:10217000BC01CD010E949D6ADC01CB0120E030E072
:1021800044EB53E4BC01CD010E949C6ADC01CB010D
:10219000BC01CD010E94CF6BDC01CB019E838D83FE
:1021A00080918701882F90E0A0E0B0E0BC01CD01D4
:1021B0000E94006CDC01CB019C01AD016A857B852E
:1021C0008C859D850E949C6ADC01CB01BC01CD0100
:1021D0000E94CF6BDC01CB0198878F8381E08987D8
:1021E0006DC080918701882F90E0A0E0B0E0BC0135
:1021F000CD010E94006CDC01CB019C01AD016A8520
:102200007B858C859D850E949C6ADC01CB01BC018D
:10221000CD010E94CF6BDC01CB01092E000CAA0B73
:10222000BB0BBC01CD010E94026CDC01CB012E85F1
:102230003F8548895989BC01CD010E94636B1816FE
:10224000CCF180918701882F90E0A0E0B0E0BC0144
:10225000CD010E94006CDC01CB012A853B854C85B9
:102260005D85BC01CD010E949D6ADC01CB01BC01F2
:10227000CD010E94CF6BDC01CB01092E000CAA0B13
:10228000BB0BBC01CD010E94026CDC01CB012E8591
:102290003F8548895989BC01CD010E942A6D882358
:1022A0004CF080E090E0A0E8BFE389839A83AB83A1
:1022B000BC8304C019821A821B821C8289858823F0
:1022C000C9F18F819885092E000CAA0BBB0BBC01AC
:1022D000CD010E94026CDC01CB012E853F8548892F
:1022E0005989BC01CD010E94636B1816B4F48D812D
:1022F0009E81092E000CAA0BBB0BBC01CD010E94D4
:10230000026CDC01CB012E853F8548895989BC01CF
:10231000CD010E942A6D88234CF080E090E0A0E877
:10232000BFE389839A83AB83BC8304C019821A827A
:102330001B821C8289819A81AB81BC81BC01CD0149
:1023400061960FB6F894DEBF0FBECDBFDF91CF917F
:102350000895CF93DF93CDB7DEB710926404109247
:102360006304DF91CF910895CF92DF92EF92FF92B5
:10237000CF93DF93CDB7DEB7C0904704D090480429
:10238000E0904904F0904A048091510490915204E5
:10239000092E000CAA0BBB0BBC01CD010E94026CE4
:1023A000DC01CB01A7019601BC01CD0133DEDC01CC
:1023B000CB0120E030E0A901BC01CD010E94636B9C
:1023C000882349F0809151049091520490936404C1
:1023D0008093630495C0C0904704D0904804E09077
:1023E0004904F0904A048091530490915404092EBA
:1023F000000CAA0BBB0BBC01CD010E94026CDC01DE
:10240000CB01A7019601BC01CD0104DEDC01CB01AB
:1024100020E030E0A901BC01CD010E94636B88235C
:1024200049F08091530490915404909364048093F4
:10243000630466C0C0904704D0904804E09049040B
:10244000F0904A048091550490915604092E000C96
:10245000AA0BBB0BBC01CD010E94026CDC01CB01BD
:10246000A7019601BC01CD01D5DDDC01CB0120E047
:1024700030E0A901BC01CD010E94636B882349F0C3
:102480008091550490915604909364048093630462
:1024900037C0C0904704D0904804E0904904F090C1
:1024A0004A048091570490915804092E000CAA0BFD
:1024B000BB0BBC01CD010E94026CDC01CB01A7016A
:1024C0009601BC01CD01A6DDDC01CB0120E030E0AE
:1024D000A901BC01CD010E94636B882349F0809162
:1024E000570490915804909364048093630408C047
:1024F00080918001909181019093640480936304A2
:10250000DF91CF91FF90EF90DF90CF900895CF9320
:10251000DF93CDB7DEB780919101809315061092BD
:1025200022061092520410925104109254041092F8
:1025300053041092560410925504109258041092AD
:102540005704DF91CF910895CF93DF931F92CDB7BA
:10255000DEB7909115068091A401981721F0809123
:102560002206882319F081E090E002C080E090E02C
:1025700089838981882309F180916601909167019F
:10258000909352048093510480915E0190915F0179
:10259000909354048093530480916201909163015D
:1025A0009093560480935504809164019091650145
:1025B000909358048093570420C0809162019091B9
:1025C000630190935204809351048091640190912F
:1025D0006501909354048093530480915E0190911F
:1025E0005F01909356048093550480916601909109
:1025F00067019093580480935704809180048093DE
:1026000015068981809322060F90DF91CF9108955E
:10261000CF93DF9300D000D0CDB7DEB79A83898304
:102620007C836B838B819C81FC0114828B819C81D8
:10263000FC0115828B819C81FC0110821182128227
:10264000138289819A81FC01108211821282138285
:102650000F900F900F900F90DF91CF9108950F93EF
:102660001F93CF93DF93CDB7DEB729970FB6F894BA
:10267000DEBF0FBECDBF89834A835B836C837D83BE
:102680003F832E831987088788859985FC0184817B
:102690008823B1F48885998521E0FC01248388850D
:1026A000998521E0FC012583288539858A819B81D4
:1026B000AC81BD81F90180839183A283B38326C05D
:1026C00088859985FC018581813001F58981882380
:1026D000E9F08885998522E0FC0125838885998524
:1026E000FC0180819181A281B3819C01AD016A814D
:1026F0007B818C819D810E949C6ADC01CB012E81B3
:102700003F81F90180839183A283B38329960FB619
:10271000F894DEBF0FBECDBFDF91CF911F910F9117
:102720000895EF92FF920F931F93CF93DF9300D002
:1027300000D0CDB7DEB719821A821B821C8280912D
:102740004806882369F481E08093480682E08093FC
:10275000490681E080939D0481E080934B06B5C4D7
:1027600019821A821B821C8280914906882F90E070
:102770008330910509F4C5C0843091053CF4813063
:10278000910561F0029709F4A8C09FC284309105B9
:1027900009F409C1059709F430C197C28091D305A6
:1027A0009091D405A091D505B091D6050197A105CA
:1027B000B10509F091C09091810480919D01981715
:1027C00009F087C08091630490916404CC01A0E07B
:1027D000B0E0BC01CD010E94006C7B018C018091B6
:1027E0001F0490912004A0912104B09122049C0127
:1027F000AD01C801B7010E94636B882329F5809160
:10280000A20180937E048091230490912404A091DE
:102810002504B0912604BC01CD010E94D46BDC01DB
:10282000CB01909304068093030681E080934B06CE
:1028300084E08093490681E080939E0480917F0428
:102840008F5F80937F0448C08091630490916404FB
:10285000CC01A0E0B0E0BC01CD010E94006C7B0186
:102860008C018091230490912404A0912504B091BF
:1028700026049C01AD01C801B7010E94636B882347
:1028800029F58091A10180937E0480911F0490918D
:102890002004A0912104B0912204BC01CD010E942A
:1028A000D46BDC01CB01909304068093030681E096
:1028B00080934B0684E08093490681E080939E04D8
:1028C00080917F048F5F80937F0406C081E08C83BA
:1028D0000BC281E08C8308C207C2809180048823E8
:1028E00079F485E08093490681E080934A0610924E
:1028F000E7041092E8041092E9041092EA04F4C18B
:10290000F3C18091630490916404CC01A0E0B0E035
:10291000BC01CD010E94006C7B018C0180911704E9
:1029200090911804A0911904B0911A049C01AD0172
:10293000C801B7010E94636B8823E9F080916304AA
:1029400090916404CC01A0E0B0E0BC01CD010E94F4
:10295000006C7B018C0180911B0490911C04A09160
:102960001D04B0911E049C01AD01C801B7010E9475
:10297000636B882379F485E08093490681E0809336
:102980004A061092E7041092E8041092E9041092AB
:10299000EA0408C08091A304882321F081E0809399
:1029A0004906A2C1A1C180914B06833060F010920C
:1029B0009E0486E08093490610929D048091A501B3
:1029C00080937E0419C02091030630910406809103
:1029D0006304909164042817390771F48091A0046E
:1029E000882351F010929E0483E0809349068091E1
:1029F000930180937E0478C177C18091E704909120
:102A0000E804A091E904B091EA0420E030E0A901D3
:102A1000BC01CD010E94636B882351F010924A06DD
:102A200083E0809349068091930180937E044CC19A
:102A300080914A06882F90E08230910509F443C1C5
:102A4000833091051CF4019749F00AC18330910548
:102A500009F4A0C0049709F4D0C002C180916304B6
:102A600090916404CC01A0E0B0E0BC01CD010E94D3
:102A7000006C7B018C018091230490912404A0912F
:102A80002504B09126049C01AD01C801B7010E9444
:102A9000636B882341F483E080934A068091A00110
:102AA00080937E0476C08091630490916404CC018D
:102AB000A0E0B0E0BC01CD010E94006C7B018C0164
:102AC0008091170490911804A0911904B0911A04F0
:102AD0009C01AD01C801B7010E94636B882339F4E2
:102AE00084E080934A0685E180937E0452C0809101
:102AF000630490916404CC01A0E0B0E0BC01CD017E
:102B00000E94006C7B018C0180911B0490911C043D
:102B1000A0911D04B0911E049C01AD01C801B70134
:102B20000E94636B882339F485E080934A0684E130
:102B300080937E042EC08091630490916404CC0144
:102B4000A0E0B0E0BC01CD010E94006C7B018C01D3
:102B500080911F0490912004A0912104B09122043F
:102B60009C01AD01C801B7010E94636B882309F085
:102B7000ABC082E080934A0680E090E0A0E8BFE32B
:102B80008093E7049093E804A093E904B093EA04E7
:102B90009BC09AC08091630490916404CC01A0E032
:102BA000B0E0BC01CD010E94006C7B018C018091E2
:102BB0001F0490912004A0912104B09122049C0153
:102BC000AD01C801B7010E94636B882309F07CC086
:102BD0008091A004882381F082E080934A0680E0FF
:102BE00090E0A0E8BFE38093E7049093E804A0930B
:102BF000E904B093EA0468C067C0809163049091CF
:102C00006404CC01A0E0B0E0BC01CD010E94006CE6
:102C10007B018C0180911F0490912004A0912104DC
:102C2000B09122049C01AD01C801B7010E94636B01
:102C3000882309F049C08091A004882381F082E0B4
:102C400080934A0680E090E0A0E8BFE38093E70429
:102C50009093E804A093E904B093EA0435C034C02B
:102C60008091630490916404CC01A0E0B0E0BC01C9
:102C7000CD010E94006C7B018C0180911F0490911A
:102C80002004A0912104B09122049C01AD01C8014F
:102C9000B7010E94636B882309F016C08091A004DD
:102CA000882381F082E080934A0680E090E0A0E8EB
:102CB000BFE38093E7049093E804A093E904B09302
:102CC000EA0402C001C000000FC080918004882384
:102CD00051F482E08093490681E080939D0481E075
:102CE00080934B0600C000008C81882309F499C0B2
:102CF0009091810480919A01981739F09091810404
:102D000080919701981709F08AC08091630490918F
:102D10006404CC01A0E0B0E0BC01CD010E94006CD5
:102D20007B018C0180911F0490912004A0912104CB
:102D3000B09122049C01AD01C801B7010E94636BF0
:102D4000882329F58091A20180937E048091230439
:102D500090912404A0912504B0912604BC01CD01DA
:102D60000E94D46BDC01CB01909304068093030690
:102D700081E080934B0684E08093490681E0809354
:102D80009E0480917F048F5F80937F0447C0809171
:102D9000630490916404CC01A0E0B0E0BC01CD01DB
:102DA0000E94006C7B018C0180912304909124048B
:102DB000A0912504B09126049C01AD01C801B70182
:102DC0000E94636B882339F58091A00180937E0473
:102DD00080911F0490912004A0912104B0912204BD
:102DE000BC01CD010E94D46BDC01CB0190930406A1
:102DF0008093030680914B068F5F80934B0684E09F
:102E00008093490681E080939E0480917F048F5FC8
:102E100080937F0403C081E08B8303C002C081E004
:102E20008B838B81882309F4A2C0909181048091C7
:102E30009501981719F481E0898399C090918104D4
:102E400080919C01981739F09091810480919B01A9
:102E5000981709F08AC08091630490916404CC01B2
:102E6000A0E0B0E0BC01CD010E94006C7B018C01B0
:102E700080911F0490912004A0912104B09122041C
:102E80009C01AD01C801B7010E94636B882339F52D
:102E90008091A00180937E0480912304909124046A
:102EA000A0912504B0912604BC01CD010E94D46BF1
:102EB000DC01CB01909304068093030680914B06BE
:102EC0008F5F80934B0684E08093490681E0809376
:102ED0009E0480917F048F5F80937F0445C0809122
:102EE000630490916404CC01A0E0B0E0BC01CD018A
:102EF0000E94006C7B018C0180912304909124043A
:102F0000A0912504B09126049C01AD01C801B70130
:102F10000E94636B882329F58091A10180937E0430
:102F200080911F0490912004A0912104B09122046B
:102F3000BC01CD010E94D46BDC01CB01909304064F
:102F40008093030681E080934B0684E080934906DA
:102F500081E080939E0480917F048F5F80937F0443
:102F600003C081E08A8303C002C081E08A838A8132
:102F70008823A1F09091810480919601981761F0C7
:102F80009091810480919801981731F0909181047B
:102F900080919901981711F481E0898389818823B0
:102FA00009F493C08091630490916404CC01A0E083
:102FB000B0E0BC01CD010E94006C7B018C018091CE
:102FC0001F0490912004A0912104B09122049C013F
:102FD000AD01C801B7010E94636B882339F5809168
:102FE000A00180937E048091230490912404A091F9
:102FF0002504B0912604BC01CD010E94D46BDC01F4
:10300000CB01909304068093030680914B068F5F5B
:1030100080934B0684E08093490681E080939E0470
:1030200080917F048F5F80937F044FC08091630401
:1030300090916404CC01A0E0B0E0BC01CD010E94FD
:10304000006C7B018C018091230490912404A09159
:103050002504B09126049C01AD01C801B7010E946E
:10306000636B882339F58091A00180937E04809161
:103070001F0490912004A0912104B0912204BC016E
:10308000CD010E94D46BDC01CB01909304068093A8
:10309000030680914B068F5F80934B0684E08093FC
:1030A000490681E080939E0480917F048F5F809326
:1030B0007F040BC084E08093490681E080939E04E6
:1030C00080917F048F5F80937F040F900F900F900B
:1030D0000F90DF91CF911F910F91FF90EF90089586
:1030E000CF92DF92EF92FF920F931F93CF93DF93D4
:1030F00000D0CDB7DEB719821A8280913E068823B0
:1031000091F481E080933E0682E080933F06109226
:1031100045068091A50180937C041092470681E0CA
:1031200080939A0430C619821A8280913F06882FB4
:1031300090E08230910509F4B0C18330910509F423
:10314000C5C1019709F02FC490918004809194012A
:10315000981789F01092400682E080933F06109203
:1031600045068091A50180937C041092470681E07A
:1031700080939A0491C180914706813061F4109246
:10318000400681E08093710683E080933F0683E0F0
:103190008093420681C180914006882F90E0092EDD
:1031A000000CAA0BBB0B41E050E027E030E0841B91
:1031B000950B2817390708F440C18C5C9F4FFC0120
:1031C0000C94CC6D8091A304882321F082E080933D
:1031D000400662C161C18091CF059091D005A09158
:1031E000D105B091D2050197A105B10509F064C0E0
:1031F0009091810480919D01981769F090918104CC
:1032000080919C01981739F09091810480919B01E5
:10321000981709F04EC08091630490916404CC012A
:10322000A0E0B0E0BC01CD010E94006C7B018C01EC
:103230008091070490910804A0910904B0910A04B8
:103240009C01AD01C801B7010E94636B882341F462
:1032500083E08093400680919E0180937C0428C087
:103260008091630490916404CC01A0E0B0E0BC01C3
:10327000CD010E94006C7B018C0180910F04909124
:103280001004A0911104B09112049C01AD01C80179
:10329000B7010E94636B882341F489E08093400664
:1032A00080919E0180937C0403C081E08A8304C0E6
:1032B00003C081E08A83F0C0EFC0809163049091E5
:1032C0006404CC01A0E0B0E0BC01CD010E94006C20
:1032D0007B018C0180910F0490911004A091110446
:1032E000B09112049C01AD01C801B7010E94636B4B
:1032F000882309F0D1C08091A004882341F081E0A7
:10330000809340068091930180937C04C5C0C4C023
:103310008091630490916404CC01A0E0B0E0BC0112
:10332000CD010E94006C7B018C018091070490917B
:103330000804A0910904B0910A049C01AD01C801E0
:10334000B7010E94636B882309F0A6C08091A00496
:10335000882359F084E08093400681E080934706FB
:103360008091A50180937C0497C096C084E08093EF
:10337000400681E0809347068091A50180937C04FC
:103380008BC08091630490916404CC01A0E0B0E014
:10339000BC01CD010E94006C7B018C0180910B046B
:1033A00090910C04A0910D04B0910E049C01AD010C
:1033B000C801B7010E94636B882309F06DC080913A
:1033C000A004882359F01092400683E080933F06C2
:1033D00082E08093420610929A045EC05DC08091A4
:1033E000630490916404CC01A0E0B0E0BC01CD0185
:1033F0000E94006C7B018C0180910704909108046D
:10340000A0910904B0910A049C01AD01C801B70163
:103410000E94636B882309F03FC08091A004882339
:1034200059F084E08093400681E0809347068091C4
:10343000A50180937C0430C02FC0809163049091DB
:103440006404CC01A0E0B0E0BC01CD010E94006C9E
:103450007B018C0180910B0490910C04A0910D04D0
:10346000B0910E049C01AD01C801B7010E94636BCD
:10347000882309F011C08091A004882359F084E0CA
:103480008093400681E0809347068091A501809358
:103490007C0402C001C00000B3C3909180048091FD
:1034A0009401981769F480914506893C48F084E0BE
:1034B00080933F0681E08093410610927006A0C37E
:1034C000809145068F5F809345069AC3809142069E
:1034D000882F90E08130910521F0029709F4F4C122
:1034E0000BC280917106882351F41092430610920A
:1034F000440682E08093420610929A04E4C18091CF
:103500004306882F90E08230910569F08330910561
:1035100024F4019709F4D6C13FC083309105B1F07E
:10352000049739F139C08091CF059091D005A091D1
:10353000D105B091D2050197A105B10531F481E023
:103540008093430610927106BEC1BDC18091CF0524
:103550009091D005A091D105B091D2050197A10518
:10356000B10531F481E08093430610927106ABC13E
:10357000AAC18091CF059091D005A091D105B091BD
:10358000D2050197A105B10531F481E0809343068E
:103590001092710698C197C1C0900B04D0900C0492
:1035A000E0900D04F0900E04809163049091640407
:1035B000CC01A0E0B0E0BC01CD010E94006CDC01B8
:1035C000CB019C01AD01C701B6010E94636B88234A
:1035D000B1F48091A004882391F080914606823056
:1035E00070F08091A304882351F0109244068091DA
:1035F000A50180937C0482E08093430662C18091A0
:103600004406882F90E0092E000CAA0BBB0B41E06A
:1036100050E026E030E0841B950B2817390708F4AA
:1036200011C1845C9F4FFC010C94CC6D8091CF053F
:103630009091D005A091D105B091D2050197A10537
:10364000B10541F484E08093440680919F0180930A
:103650007C0437C136C18091CF059091D005A091EF
:10366000D105B091D2050197A105B10541F484E0DF
:103670008093440680919F0180937C0422C121C1E4
:103680008091CF059091D005A091D105B091D20540
:103690000197A105B10541F486E08093440680912D
:1036A0009E0180937C040DC10CC1809163049091B4
:1036B0006404CC01A0E0B0E0BC01CD010E94006C2C
:1036C0007B018C0180910F0490911004A091110452
:1036D000B09112049C01AD01C801B7010E94636B57
:1036E000882309F0EEC08091A004882341F085E092
:1036F000809344068091930180937C04E2C0E1C0F2
:103700008091A304882311F19091810480919B0101
:10371000981731F09091810480919D01981721F4C0
:1037200083E08093440612C09091810480919501BA
:10373000981731F09091810480919701981731F496
:103740001092440684E080934306BBC0BAC08091C7
:10375000630490916404CC01A0E0B0E0BC01CD0111
:103760000E94006C7B018C0180910B0490910C04F1
:10377000A0910D04B0910E049C01AD01C801B701E8
:103780000E94636B882309F09CC08091A004882369
:1037900069F088E0809344068091930180937C04D3
:1037A000809146068F5F809346068BC08AC08091C9
:1037B000A304882321F082E08093440642C09091C4
:1037C000810480919701981799F0909181048091DC
:1037D0009D01981769F088E08093440680919301D9
:1037E00080937C04809146068F5F8093460629C0B3
:1037F0008091F3039091F403A091F503B091F60347
:103800002091BB053091BC054091BD055091BE058E
:10381000BC01CD010E949C6ADC01CB0120E030E0BC
:103820004AE753E4BC01CD010E942A6D18160CF042
:1038300048C084E08093440680919F0180937C047B
:1038400040C03FC09091810480919701981731F05A
:103850009091810480919D01981741F48091A30477
:10386000882321F081E0809344062AC08091A3043C
:10387000882331F01092440683E08093430620C0F1
:103880009091810480919701981731F09091810473
:1038900080919D019817A1F487E080934406809160
:1038A000F3039091F403A091F503B091F603809394
:1038B000BB059093BC05A093BD05B093BE0500C0A9
:1038C000000001C000006EC09091800480919401BE
:1038D000981789F41092420682E080933F06109276
:1038E00045068091A50180937C041092470681E0F3
:1038F00080939A0457C056C08091630490916404E9
:10390000CC01A0E0B0E0BC01CD010E94006C7B01C5
:103910008C0180910B0490910C04A0910D04B09146
:103920000E049C01AD01C801B7010E94636B88239E
:10393000A9F481E08093420685E0809343061092CB
:10394000460688E0809344068091930180937C042E
:10395000809146068F5F8093460623C08091630462
:1039600090916404CC01A0E0B0E0BC01CD010E94C4
:10397000006C7B018C018091070490910804A09158
:103980000904B0910A049C01AD01C801B7010E946D
:10399000636B882309F005C082E080934206109291
:1039A0009A0400002DC180917006882369F010925E
:1039B000410681E080933F0681E08093400680913C
:1039C000930180937C041BC180914106882F90E075
:1039D0008230910509F412C1833091051CF40197DE
:1039E00049F0E7C08330910509F499C0049709F4C0
:1039F000BBC0DFC08091630490916404CC01A0E05F
:103A0000B0E0BC01CD010E94006C7B018C01809173
:103A10000B0490910C04A0910D04B0910E049C0134
:103A2000AD01C801B7010E94636B882341F483E0B4
:103A3000809341068091A00180937C046FC08091A7
:103A4000630490916404CC01A0E0B0E0BC01CD011E
:103A50000E94006C7B018C0180910F0490911004F6
:103A6000A0911104B09112049C01AD01C801B701ED
:103A70000E94636B882341F484E080934106809127
:103A80009F0180937C044AC08091630490916404F8
:103A9000CC01A0E0B0E0BC01CD010E94006C7B0134
:103AA0008C018091130490911404A0911504B0919D
:103AB00016049C01AD01C801B7010E94636B882305
:103AC00041F485E08093410680919E0180937C04BF
:103AD00025C08091630490916404CC01A0E0B0E023
:103AE000BC01CD010E94006C7B018C018091070418
:103AF00090910804A0910904B0910A049C01AD01C1
:103B0000C801B7010E94636B882309F078C082E086
:103B10008093410681E08093700671C070C08091EF
:103B2000630490916404CC01A0E0B0E0BC01CD013D
:103B30000E94006C7B018C01809107049091080425
:103B4000A0910904B0910A049C01AD01C801B7011C
:103B50000E94636B882309F052C082E08093410683
:103B600081E0809370064BC080916304909164045F
:103B7000CC01A0E0B0E0BC01CD010E94006C7B0153
:103B80008C018091070490910804A0910904B091E0
:103B90000A049C01AD01C801B7010E94636B882330
:103BA00009F02DC082E08093410681E08093700689
:103BB00026C08091630490916404CC01A0E0B0E041
:103BC000BC01CD010E94006C7B018C018091070437
:103BD00090910804A0910904B0910A049C01AD01E0
:103BE000C801B7010E94636B882309F008C082E016
:103BF0008093410681E08093700601C000000000C0
:103C00008A81882309F45DC09091810480919A0192
:103C1000981739F09091810480919701981709F0D5
:103C20004EC08091630490916404CC01A0E0B0E0A8
:103C3000BC01CD010E94006C7B018C0180910704C6
:103C400090910804A0910904B0910A049C01AD016F
:103C5000C801B7010E94636B882341F487E0809319
:103C600040068091A00180937C0428C08091630469
:103C700090916404CC01A0E0B0E0BC01CD010E94B1
:103C8000006C7B018C0180910F0490911004A09135
:103C90001104B09112049C01AD01C801B7010E944A
:103CA000636B882341F488E08093400680919F01F4
:103CB00080937C0403C081E0898303C002C081E05B
:103CC00089838981882309F45EC090918104809161
:103CD0009501981799F09091810480919601981719
:103CE00069F09091810480919801981739F0909132
:103CF000810480919901981709F045C0809163046F
:103D000090916404CC01A0E0B0E0BC01CD010E9420
:103D1000006C7B018C0180910F0490911004A091A4
:103D20001104B09112049C01AD01C801B7010E94B9
:103D3000636B882321F486E08093400624C0809141
:103D4000630490916404CC01A0E0B0E0BC01CD011B
:103D50000E94006C7B018C01809107049091080403
:103D6000A0910904B0910A049C01AD01C801B701FA
:103D70000E94636B882339F485E08093400680912C
:103D8000A00180937C040F900F90DF91CF911F9141
:103D90000F91FF90EF90DF90CF900895AF92BF9278
:103DA000CF92DF92EF92FF920F931F93CF93DF9307
:103DB000CDB7DEB764970FB6F894DEBF0FBECDBFA8
:103DC0006D837E838F83988729873A874B875C87AB
:103DD000ED86FE860F87188BA98ABA8ACB8ADC8A81
:103DE0008091FB039091FC03A091FD03B091FE0331
:103DF0002D813E814F815885BC01CD010E94636BAE
:103E0000882331F52D853E854F85588969857A85CA
:103E10008B859C850E94636B8823D1F420E030E879
:103E200044E853E469A57AA58BA59CA50E942A6D58
:103E300088230CF08BC020E030E849E853E469A502
:103E40007AA58BA59CA50E94636B18160CF07EC00A
:103E50008091030490910404A0910504B09106049C
:103E60002D813E814F815885BC01CD010E94636B3D
:103E70008823C9F42DA13EA14FA158A569857A8553
:103E80008B859C850E94636B882369F420E030E079
:103E900044E353E469A57AA58BA59CA50E94636BB6
:103EA000882309F453C08091FF0390910004A091EE
:103EB0000104B09102042D813E814F815885BC01DF
:103EC000CD010E94636B8823C1F429A13AA14BA1C3
:103ED0005CA169857A858B859C850E94636B8823AC
:103EE00061F420E030E044EB52E469A57AA58BA5AB
:103EF0009CA50E94636B882349F18091F703909100
:103F0000F803A091F903B091FA032D813E814F810E
:103F10005885BC01CD010E94636B882301F5298976
:103F20003A894B895C8969857A858B859C850E9455
:103F3000636B8823A1F420E030E0A90169A57AA58C
:103F40008BA59CA50E94636B882349F480E090E0D8
:103F5000A0E8BFE389839A83AB83BC8304C0198242
:103F60001A821B821C8289819A81AB81BC81BC012F
:103F7000CD0164960FB6F894DEBF0FBECDBFDF91C2
:103F8000CF911F910F91FF90EF90DF90CF90BF9056
:103F9000AF900895CF93DF93CDB7DEB781E08093E4
:103FA0001D0610921E0680918C0180930E061092C1
:103FB00070048091620190916301092E000CAA0B9C
:103FC000BB0BBC01CD010E94026CDC01CB018093D4
:103FD0004B0590934C05A0934D05B0934E05109260
:103FE0004E06109206061092050610924C0610928C
:103FF0004D0610924F061092800410928104109288
:10400000720610924A0610924806109249061092C3
:1040100004061092030610924B061092E7041092C9
:10402000E8041092E9041092EA0410927E0481E000
:1040300080939D0410929E0410927F0481E08093EF
:104040009C0410929B0410927D04109240061092E2
:1040500042061092430610924406109241061092B6
:104060003E0610923F0610924506109246061092A8
:10407000470610927006109271061092BB051092BE
:10408000BC051092BD051092BE0510927C0481E023
:1040900080939A04109299048091A70180930F064F
:1040A0008091A701809310068091A701809311064B
:1040B00010923C0610923D0610923A0610923B0672
:1040C00010927B04109298041092370610923506D5
:1040D00010923606109202061092010610923806CF
:1040E00010923906109297041092790483E080931D
:1040F0007A0462E876E08FEA94E00E9408136CE7A5
:1041000076E08BEA94E00E940813109296041092D5
:104110009504109278041092340610923206109290
:10412000330610926F061092760483E08093770432
:104130008091A501809375048091A70180937404F8
:104140008091A7018093730480918C018093720405
:104150001092930480918C018093710410929404C6
:1041600085E080936F041092700410929204109274
:104170009104DF91CF910895CF93DF93CDB7DEB750
:104180008FEF809326068FEF809327061092780694
:10419000DF91CF9108954F925F926F927F928F92AD
:1041A0009F92AF92BF92CF92DF92EF92FF920F93C6
:1041B0001F93CF93DF93CDB7DEB76E970FB6F8940A
:1041C000DEBF0FBECDBF80918A04882321F080918D
:1041D0008801898305C080915B0490915C04898388
:1041E00080918B04882321F0809188018A8305C007
:1041F00080915D0490915E048A8380910506909180
:1042000006068F3F914048F480910506909106067E
:104210000196909306068093050680914C068823AC
:1042200071F481E080934C0682E080934D0681E03A
:1042300080934E0610920606109205069AC0809151
:104240004D06813009F495C080918C04882349F093
:1042500010924E0681E080934D068BE1809380049E
:1042600088C080914E06882F90E08230910509F435
:104270007FC0833091051CF4019739F050C0833022
:10428000910501F10497C9F14AC080910E0688306A
:1042900059F483E080934E061092060610920506AC
:1042A00089E1809380040DC08091050690910606F7
:1042B0008039914030F08CE18093800410924F0659
:1042C00058C057C080911D068823B1F4809105061F
:1042D00090910606059780F085E080934E06109237
:1042E0000606109205068AE18093800480914F06AD
:1042F0008F5F80934F063DC03CC080910506909132
:104300000606059758F083E080934E061092060645
:104310001092050689E1809380042BC02AC0809109
:104320001E06882389F480914F06823068F08091C0
:10433000050690910606059738F082E080934E06B8
:104340008BE18093800413C080911E06882321F0A6
:1043500080917D048F3158F084E080934E06109256
:104360000606109205068DE18093800402C001C00C
:1043700000008091510680935006809186048093BE
:10438000510680917206882339F481E08093720689
:1043900080918604809350068091A804882351F46C
:1043A0009091500680915106981721F48091A004B5
:1043B000882341F18981823038F48A81882321F071
:1043C00080919701809381048981882339F08A81C3
:1043D000823020F480919B0180938104898188231D
:1043E00039F08A81882321F080919D018093810496
:1043F0008981882339F48A81882321F48091950169
:10440000809381049091700480919301981789F5AD
:104410008091370490913804A0913904B0913A0406
:1044200020913B0430913C0440913D0450913E0466
:10443000BC01CD010E949D6ADC01CB017C018D0194
:1044400080914E0190914F01A0915001B091510186
:104450009C01AD01C801B7010E94676BDC01CB0173
:104460008093F3039093F403A093F503B093F603C2
:1044700010C08091520190915301A0915401B091CC
:1044800055018093F3039093F403A093F503B09345
:10449000F60380914B0590914C05A0914D05B0918C
:1044A0004E0588879987AA87BB87809126068C87C7
:1044B00080918004882F90E0A0E0B0E08A319105DF
:1044C000A105B10551F08C319105A105B10551F05F
:1044D0004997A105B10519F008C01B8209C081E008
:1044E0008B8306C082E08B8303C083E08B83000054
:1044F0008B81809326069C858B81981721F18C8572
:10450000823009F580912706082E000C990B833024
:10451000910549F0843091051CF499238CF010C06A
:10452000049749F00DC080917806882319F0109205
:10453000780606C005C080918C018093720400004B
:104540008FEF809327068B81082E000C990B81300A
:10455000910509F4F9C08230910524F4892B61F0AA
:104560000C94F42A8230910509F4D6C1039711F412
:104570000C94EF2A0C94F42A9B818C859817E9F00F
:1045800010924A06109248061092490610920406AC
:104590001092030610924B061092E7041092E80462
:1045A0001092E9041092EA0410927E0481E0809354
:1045B0009D0410929E0410927F0480915704909164
:1045C0005804092E000CAA0BBB0BBC01CD010E94A4
:1045D000026CDC01CB018093170490931804A09324
:1045E0001904B0931A048091550490915604092E31
:1045F000000CAA0BBB0BBC01CD010E94026CDC01BC
:10460000CB0180931B0490931C04A0931D04B093D2
:104610001E048091510490915204092E000CAA0BA3
:10462000BB0BBC01CD010E94026CDC01CB0180936D
:104630001F0490932004A0932104B093220480913E
:10464000530490915404092E000CAA0BBB0BBC011F
:10465000CD010E94026CDC01CB0180932304909376
:104660002404A0932504B09326049091A10981E02D
:10467000913009F080E0282F30E08091A504882F48
:1046800090E02817390739F08091A109833019F09B
:1046900081E090E002C080E090E08D879091A209D7
:1046A00081E0913009F080E0282F30E08091A6046D
:1046B000882F90E02817390739F08091A2098330BC
:1046C00019F081E090E002C080E090E08E878D8557
:1046D000882319F48E858823F1F08D85882351F085
:1046E0001092D3051092D4051092D5051092D605DC
:1046F0000E9491138E85882371F081E090E0A0E004
:10470000B0E08093D3059093D405A093D505B093E2
:10471000D6050E9491138091A5048093A1098091F0
:10472000A6048093A20980917E0480936F048091F7
:104730007F0480937D0480919E0480939B048091EC
:104740009D0480939C0450C79B818C85981729F108
:1047500010924006109242061092430610924406B0
:104760001092410610923E0610923F0610924506A6
:10477000109246061092470610927006109271062B
:104780001092BB051092BC051092BD051092BE059B
:1047900010927C0481E080939A048091510490915E
:1047A0005204092E000CAA0BBB0BBC01CD010E94C8
:1047B000026CDC01CB018093070490930804A09362
:1047C0000904B0930A048091530490915404092E73
:1047D000000CAA0BBB0BBC01CD010E94026CDC01DA
:1047E000CB0180930B0490930C04A0930D04B09321
:1047F0000E048091570490915804092E000CAA0BC6
:10480000BB0BBC01CD010E94026CDC01CB0180938B
:104810000F0490931004A0931104B093120480919C
:10482000550490915604092E000CAA0BBB0BBC0139
:10483000CD010E94026CDC01CB01809313049093A4
:104840001404A0931504B093160490919F0981E07D
:10485000913009F080E0282F30E08091A504882F66
:1048600090E02817390739F080919F09833019F0BB
:1048700081E090E002C080E090E08D879091A009F7
:1048800081E0913009F080E0282F30E08091A6048B
:10489000882F90E02817390739F08091A0098330DC
:1048A00019F081E090E002C080E090E08E878D8575
:1048B000882319F48E858823F1F08D85882351F0A3
:1048C0001092CF051092D0051092D1051092D2050A
:1048D0000E9470188E85882371F081E090E0A0E03E
:1048E000B0E08093CF059093D005A093D105B0930D
:1048F000D2050E9470188091A50480939F09809131
:10490000A6048093A00980919A04809399048091D1
:104910007C0480936F0468C680913D068F3028F434
:1049200080913D068F5F80933D0680913A068823F3
:1049300069F481E080933A0681E08093980481E0F5
:1049400080933B0686E080937B046DC080913B069C
:10495000813081F480911106843009F064C0109296
:10496000980482E080933B0682E080933C0610929C
:104970003D0659C080913C06882F90E08230910519
:1049800009F1833091051CF4019741F04CC083304C
:104990009105A1F1049709F445C045C08091A30198
:1049A000823021F484E080933C060BC08091A30107
:1049B000813039F485E080933C0687E080937B0466
:1049C00032C031C080911006813039F483E0809389
:1049D0003C0682E080937B0410C0809110068230F8
:1049E00021F484E080933C0608C080913D068A3023
:1049F00020F081E080937B0416C015C080910F06E3
:104A0000823021F484E080933C060BC080910F0635
:104A1000813039F481E080933C0685E080937B040B
:104A200002C001C0000080914A0190914B01A09109
:104A30004C01B0914D0120914E0130914F014091B8
:104A4000500150915101BC01CD010E94676BDC0106
:104A5000CB016C017D018091720190917301CC01B9
:104A6000A0E0B0E0BC01CD010E94006C4B015C01F4
:104A700080914E0190914F01A0915001B091510150
:104A80009C01AD01C501B4010E94676BDC01CB0143
:104A90009C01AD01C701B6010E94356DDC01CB015F
:104AA0008C839D83AE83BF83809127068C87809102
:104AB0007B04882F90E0A0E0B0E082309105A10552
:104AC000B105B1F083309105A105B1052CF4019732
:104AD000A105B10559F015C085309105A105B105B5
:104AE00051F00697A105B10549F00BC01B820CC01F
:104AF00081E08B8309C082E08B8306C083E08B83D7
:104B000003C084E08B8300008B81809327069C8503
:104B10008B819817E9F08C85082E000C990B833057
:104B2000910549F0843091051CF499238CF010C054
:104B3000049749F00DC080917806882319F01092EF
:104B4000780606C005C080918C0180937204000035
:104B50008B81082E000C990B8230910509F404C456
:104B60008330910534F4009761F0019709F448C34C
:104B70000EC58330910509F4FCC3049709F4FEC403
:104B800006C58091550490915604092E000CAA0B7D
:104B9000BB0BBC01CD010E94026CDC01CB018093F8
:104BA000F7039093F803A093F903B093FA0380916D
:104BB000510490915204092E000CAA0BBB0BBC01AE
:104BC000CD010E94026CDC01CB018093FB0390932A
:104BD000FC03A093FD03B093FE03809153049091D6
:104BE0005404092E000CAA0BBB0BBC01CD010E9482
:104BF000026CDC01CB018093FF0390930004A0932F
:104C00000104B09302048091570490915804092E36
:104C1000000CAA0BBB0BBC01CD010E94026CDC0195
:104C2000CB018093030490930404A0930504B093F4
:104C3000060420E030E04CE853E4688579858A85F5
:104C40009B850E94636B1816ACF020E030E042E8D0
:104C500053E4688579858A859B850E942A6D88231F
:104C60004CF080E090E0A7E8B3E48C839D83AE83B2
:104C7000BF8367C020E030E048EC52E46885798566
:104C80008A859B850E94636B1816ACF020E030E0AB
:104C900040EA52E4688579858A859B850E942A6D61
:104CA00088234CF080E090E0A4EBB2E48C839D83F9
:104CB000AE83BF8346C020E030E040E251E4688527
:104CC00079858A859B850E94636B181664F420E0C1
:104CD00030E04FEA53E4688579858A859B850E9498
:104CE0002A6D88232CF01C821D821E821F8229C0FF
:104CF00020E030E04EE353E4688579858A859B8522
:104D00000E94636B1816ACF020E030E04AE253E4F6
:104D1000688579858A859B850E942A6D88234CF059
:104D200080E090E0A4E3B3E48C839D83AE83BF83F3
:104D300008C080E090E0A8ECB3E48C839D83AE8350
:104D4000BF8380913506882389F481E080933506FE
:104D500082E08093360685E080937A0485E0809334
:104D60007904109238061092390645C280913606B1
:104D7000882F90E08230910539F08330910529F138
:104D8000019709F437C237C280916304909164049B
:104D900080399140C9F08091A0048823A9F08091C6
:104DA000630490916404909302068093010683E06B
:104DB0008093360681E08093370683E080937A04FF
:104DC00085E08093790417C216C280913806882343
:104DD00019F18091A0048823F9F0009163041091E7
:104DE00064046C817D818E819F810E94D46BDC0183
:104DF000CB010817190781F080913906803160F0E6
:104E00001092370684E08093360681E08093970401
:104E100082E080937A04EDC180913706882F90E07C
:104E20008130910521F0029709F497C03BC1809130
:104E30003806882361F4809138068F5F80933806A6
:104E400085E18093790483E08093370685C0809163
:104E5000010690910206CC01A0E0B0E0BC01CD01BA
:104E60000E94006C3B014C018C819D81AE81BF8111
:104E70002F812F932E812F932D812F932C812F9370
:104E800023E42F9324E32F931F921F9222E42F9366
:104E900024EB2F931F921F92A12CB12C6501E12CC2
:104EA000F12C07E813E49C01AD01C401B3010E9499
:104EB000CE1E2DB73EB7245F3F4F0FB6F894DEBF2E
:104EC0000FBECDBFDC01CB0120E030E0A901BC0169
:104ED000CD010E94636B882359F01092370681E060
:104EE000809336061092970481E080937A0434C050
:104EF00080913806813061F4809138068F5F80930D
:104F0000380684E18093790482E08093370624C0D8
:104F100080913806823001F58091A0048823E1F069
:104F20006C817D818E819F810E94D46BDC01CB01DD
:104F30009C0180916304909164042817390761F003
:104F40001092370684E08093360681E080939704C0
:104F500082E080937A044DC14CC18091A0048823E3
:104F600009F483C08090030490900404A090050489
:104F7000B0900604C090FF03D0900004E0900104BC
:104F8000F09002048091F7039091F803A091F90347
:104F9000B091FA038F87988BA98BBA8B4090FB0353
:104FA0005090FC036090FD037090FE0380916304B9
:104FB00090916404CC01A0E0B0E0BC01CD010E945E
:104FC000006C6B8B7C8B8D8B9E8B809101069091FE
:104FD0000206CC01A0E0B0E0BC01CD010E94006C53
:104FE000DC01CB012F812F932E812F932D812F93C5
:104FF0002C812F932B2D2F932A2D2F93292D2F93F7
:10500000282D2F932F2D2F932E2D2F932D2D2F9332
:105010002C2D2F93AF84B888C988DA888301720158
:105020002B893C894D895E89BC01CD010E94CE1E31
:10503000ADB7BEB71C960FB6F894DEBF0FBECDBF9E
:10504000DC01CB0120E030E0A901BC01CD010E94D0
:10505000636B882351F081E08093370683E080936F
:105060007A0485E0809379041CC08091A004882391
:10507000C1F000916304109164046C817D818E8184
:105080009F810E94D46BDC01CB010817190749F0FE
:10509000809139068F5F8093390682E080933706CE
:1050A000A8C0A7C08091A004882309F485C080907F
:1050B000FB039090FC03A090FD03B090FE03C09012
:1050C0000304D0900404E0900504F090060480915D
:1050D000FF0390910004A0910104B09102048F8B12
:1050E000988FA98FBA8F4090F7035090F803609083
:1050F000F9037090FA038091630490916404CC01E9
:10510000A0E0B0E0BC01CD010E94006C6B8F7C8FF1
:105110008D8F9E8F8091010690910206CC01A0E0B8
:10512000B0E0BC01CD010E94006CDC01CB012F81FD
:105130002F932E812F932D812F932C812F932B2D05
:105140002F932A2D2F93292D2F93282D2F932F2DF9
:105150002F932E2D2F932D2D2F932C2D2F93AF8802
:10516000B88CC98CDA8C830172012B8D3C8D4D8DEE
:105170005E8DBC01CD010E94CE1EADB7BEB71C96A0
:105180000FB6F894DEBF0FBECDBFDC01CB0120E02F
:1051900030E0A901BC01CD010E94636B882361F05E
:1051A0001092390681E08093370683E080937A0479
:1051B00085E0809379041CC08091A0048823C1F00D
:1051C00000916304109164046C817D818E819F81C4
:1051D0000E94D46BDC01CB010817190749F08091BC
:1051E00039068F5F8093390683E08093370600C0CD
:1051F000000001C000008091790480936F04C7C152
:1052000080919E0180936F0480913B0490913C04B7
:10521000A0913D04B0913E04E091A00402E816E0A4
:105220002FEA34E0AC01BD018E2F0E942F13809134
:10523000A004882369F18091AF049091B004A091FB
:10524000B104B091B204BF772C813D814E815F8162
:10525000BC01CD010E949C6ADC01CB016C017D0187
:105260008091780190917901CC01A0E0B0E0BC017F
:10527000CD010E94006CDC01CB019C01AD01C70196
:10528000B6010E942A6D18161CF481E090E002C05D
:1052900080E090E0809395048091370490913804E9
:1052A000A0913904B0913A04E091A0040CE716E013
:1052B0002BEA34E0AC01BD018E2F0E942F138091A8
:1052C000A004882369F18091AB049091AC04A09173
:1052D000AD04B091AE04BF772C813D814E815F81DA
:1052E000BC01CD010E949C6ADC01CB016C017D01F7
:1052F0008091780190917901CC01A0E0B0E0BC01EF
:10530000CD010E94006CDC01CB019C01AD01C70105
:10531000B6010E942A6D18161CF481E090E002C0CC
:1053200080E090E08093960480919504882321F496
:1053300080919604882349F08091A004882329F065
:1053400080919201809378040EC08091A0048823FC
:1053500029F08091A3018093780405C08091A70172
:105360008093780414C113C18091A50180936F04C8
:105370000EC180912502882309F4F1C0809178063E
:10538000882381F41092340610923206109233066C
:1053900010926F061092760483E08093770481E088
:1053A00080937806809134068F3028F480913406FB
:1053B0008F5F8093340680913206882379F481E0F0
:1053C0008093320686E08093330685E080937604EE
:1053D00083E08093770410926F06B8C08091330603
:1053E000882F90E08330910589F18430910534F461
:1053F0008130910551F00297C9F09EC0843091052B
:10540000B1F1059709F4A1C097C0809134068A30A4
:1054100060F081E080936F0684E080933306109201
:10542000340685E18093760491C090C08091340663
:105430008A3058F010926F0684E080933306109201
:10544000340685E18093760481C080C08091340663
:105450008A3060F081E080936F0684E080933306A9
:105460001092340685E18093760470C06FC08091FD
:10547000630490916404892B89F480916F068823DA
:1054800069F48091A004882349F081E08093330679
:105490001092340685E0809376044DC080916304B9
:1054A000909164048A35910589F480916F06882370
:1054B00069F08091A004882349F082E0809333064C
:1054C0001092340685E08093760435C080916304A1
:1054D00090916404843B910589F480916F06882340
:1054E00069F48091A004882349F083E08093330617
:1054F0001092340685E0809376041DC08091630489
:10550000909164048E309140B1F480916F068823AD
:1055100091F08091A004882371F0809134068A3044
:1055200050F085E08093330685E08093760484E034
:10553000809377040BC00AC084E0809333061092F6
:10554000340685E18093760401C0000080917704E1
:1055500080937404809176048093750406C08091D2
:105560007806882311F01092780680917404809355
:1055700073048091750480936F0409C080918B013E
:10558000809372048091A50180936F040000809144
:105590009704882341F480919604882321F4809114
:1055A0009504882319F081E090E002C080E090E04B
:1055B0008093930480917204809371048091980485
:1055C000809394048091780480930F0680917A04EC
:1055D00080931006809173048093110605C080911A
:1055E000A50180936F04000080919304809391043F
:1055F00080919B04809392048091A304882329F0D6
:10560000809187048093700404C080916F0480931C
:1056100070048091990480931D0680919C0480936E
:105620001E068091710480930E0680914304909130
:105630004404A0914504B091460480934B05909397
:105640004C05A0934D05B0934E056E960FB6F89499
:10565000DEBF0FBECDBFDF91CF911F910F91FF90A5
:10566000EF90DF90CF90BF90AF909F908F907F9002
:105670006F905F904F900895CF93DF93CDB7DEB7D3
:105680009091620680916306981729F480917306C1
:10569000882309F4B6C09091700480919301981703
:1056A00059F4809193018093850488E08093540697
:1056B00081E080935506A5C09091700480918D0182
:1056C000981741F480918D018093850487E0809341
:1056D000540697C0909170048091A201981799F494
:1056E00086E08093540610925E0681E080935C060B
:1056F00082E080935D0680918F018093850481E034
:10570000809373067EC0909170048091A0019817D9
:1057100099F484E08093540610925E0681E08093B1
:10572000590682E080935A0680918F018093850408
:1057300081E08093730665C0909170048091A1010F
:10574000981799F485E08093540610925E0681E0E4
:105750008093570682E08093580680918E01809353
:10576000850481E0809373064CC090917004809111
:10577000A5019817F9F48091A5018093850481E033
:1057800080935406809173048430D9F5209163048A
:10579000309164048091800190918101281739072C
:1057A00081F5809151049091520490935A04809312
:1057B000590427C09091700480919F01981771F44B
:1057C00083E08093540682E080935B0680918F0192
:1057D0008093850481E08093730613C090917004D8
:1057E00080919E01981769F482E08093540682E0CC
:1057F0008093560680918E018093850481E080938A
:105800007306DF91CF910895CF93DF931F92CDB7A9
:10581000DEB719821982909162068091630698170B
:1058200029F480917306882309F0CAC0909170040E
:1058300080919301981769F4109256068091930114
:105840008093850488E08093540681E08093550618
:10585000B6C09091700480918D01981751F4109208
:10586000560680918D018093850487E080935406CD
:10587000A6C0909170048091A2019817A9F410928B
:10588000560686E08093540610925E0681E080936F
:105890005C0682E080935D0680918F018093850491
:1058A00081E0809373068BC0909170048091A00179
:1058B0009817A9F41092560684E08093540610922B
:1058C0005E0681E08093590682E080935A068091BB
:1058D0008F018093850481E08093730670C090915E
:1058E00070048091A1019817A9F41092560685E0E2
:1058F0008093540610925E0681E08093570682E002
:105900008093580680918E018093850481E0809376
:10591000730655C0909170048091A501981711F5F8
:10592000109256068091A5018093850481E08093B2
:10593000540680917304843009F041C020916304BF
:10594000309164048091800190918101281739077A
:10595000B1F5809151049091520490935A04809330
:1059600059042DC09091700480919F01981781F483
:105970001092560683E08093540682E080935B0683
:1059800080918F018093850481E08093730617C016
:105990009091700480919E01981771F482E0809339
:1059A000540682E08093560680918E018093850490
:1059B00081E08093730603C081E0898303C002C045
:1059C00081E089838981882309F47FC0809156060C
:1059D000882F90E08130910509F476C0029709F094
:1059E0005DC08091630490916404209151043091D2
:1059F00052048217930761F48091570490915804E0
:105A000090935A048093590483E08093560645C0CE
:105A10008091630490916404209155043091560460
:105A20008217930761F480915104909152049093EE
:105A30005A048093590483E0809356062EC08091C7
:105A400063049091640420915304309154048217AC
:105A5000930761F4809155049091560490935A04F1
:105A60008093590483E08093560617C080916304A5
:105A70009091640420915704309158048217930741
:105A800061F4809153049091540490935A0480934C
:105A9000590483E08093560618C017C02091630410
:105AA000309164048091590490915A042817390761
:105AB00049F480919F04882329F081E08093560661
:105AC00010927306000001C000000F90DF91CF918B
:105AD0000895CF93DF931F92CDB7DEB71982198255
