:1000000092C000000C942C320C945332B4C0000007
:10001000B2C00000B0C00000AEC000000C94663753
:10002000AAC000000C94D837A6C00000A4C00000ED
:10003000A2C00000A0C000009EC000009CC0000044
:100040000C947A3298C000000C94C4350C94F635A8
:1000500092C0000090C000008EC000008CC0000064
:100060000C940B2E88C00000F30CFA0C3F0D1A10F4
:100070005A0D730D7B0D5A0D2C0E2C0E3D0E4E0E8F
:10008000660E7C0E930EFF19A11A381BCF1B731C32
:10009000151D701AD71D084AD73B3BCE016E84BC94
:1000A000BFFDC12F3D6C74319ABD56833DDA3D00D2
:1000B000C77F11BED9E4BB4C3E916BAAAABE00001B
:1000C00000803F0000000008000201000003040758
:1000D0000000000000000000010204081020408021
:1000E0000102040810200102040810200404040482
:1000F00004040404020202020202030303030303D2
:100100000000000023002600290000000000250058
:1001100028002B0000000000240027002A00020015
:10012000A9311B36873611241FBECFEFD8E0DEBFC2
:10013000CDBF11E0A0E0B1E0E6E5F7E702C0059031
:100140000D92A434B107D9F725E0A4E4B1E001C0D1
:100150001D92A338B207E1F710E0C3E9D0E004C074
:100160002197FE010E94943BC039D107C9F70E9434
:1001700035380C94A93B44CF662311F061E001C0EF
:1001800060E00C94AD33662311F061E001C060E0E3
:100190000C94E9330E94183421E0019709F020E023
:1001A000822F08951092200310921F0308958FE16B
:1001B00093E00C943F311092F2041092F0041092EC
:1001C000F10410927A0410927B0410927C04109235
:1001D0007D0410925A031092EF041092ED041092D5
:1001E000EE04109276041092770410927804109224
:1001F00079041092590310925603109254031092EE
:10020000550310925803109257030895CF93DF932C
:10021000D1E080912F0390913003892B09F0D0E039
:10022000D0935403C1E08091310390913203892B24
:1002300009F0C0E0C09355038091390320913A033F
:100240009091F2049F3018F49F5F9093F204909184
:10025000F004911104C081E08093F0044FC090E05D
:10026000821B910997FF03C091958195910921E027
:10027000853B91050CF420E08091F104813009F474
:1002800040C08230C1F42223E1F180910B039091B0
:100290000C03A0910D03B0910E0380937A04909308
:1002A0007B04A0937C04B0937D0483E08093F104ED
:1002B0001092F20426C08091F2048A3018F42111C1
:1002C00020C01CC02223D1F020917A0430917B04FD
:1002D00040917C0450917D0460910B0370910C035C
:1002E00080910D0390910E030E943A39811106C04E
:1002F00081E08093F10480935A0303C082E08093ED
:10030000F10480913B0320913C039091EF049F30D6
:1003100018F49F5F9093EF049091ED04911104C045
:1003200081E08093ED044FC090E0821B910997FF1C
:1003300003C091958195910921E0853B91050CF4CD
:1003400020E08091EE04813009F440C08230C1F495
:100350002223E1F180910F0390911003A0911103EA
:10036000B09112038093760490937704A09378045D
:10037000B093790483E08093EE041092EF0426C0DA
:100380008091EF048A3018F4211120C01CC0222370
:10039000D1F0209176043091770440917804509107
:1003A000790460910F037091100380911103909173
:1003B00012030E943A39811106C081E08093EE0455
:1003C0008093590303C082E08093EE0440915A0366
:1003D00081E090E0411105C020915903211101C035
:1003E00080E0D11104C0C11102C09C0102C021E013
:1003F00030E090914C039C3141F0442329F081E09E
:1004000090915903911101C080E081110BC080913E
:100410006E03811107C081E090915B03911103C0CD
:1004200080E001C081E08093560391E0982790938B
:100430005703232B09F081E080935803DF91CF917C
:1004400008951092360310923503109238031092DB
:100450003703089560E070E0CB010E94CC3761E083
:1004600070E080E090E00C94CC3780E00E940A338A
:10047000909336038093350381E00E940A33909372
:100480003803809337030895CF92DF92EF92FF9263
:100490000F931F93F9018823E9F090819130D1F0F7
:1004A000613019F00FEF1FEF02C001E010E0012EE4
:1004B000000C220B330BDA01CD90DD90ED90FC9017
:1004C00013970C0D1D1D2E1D3F1D0D931D932D9378
:1004D0003C93139780831F910F91FF90EF90DF90D3
:1004E000CF900895AF92BF92CF92DF92EF92FF929A
:1004F0000F931F93CF93DF936B017C01F90164810C
:100500007581868197816083718382839383C4829E
:10051000D582E682F7822085211109C0C082D1826E
:10052000E282F38281E080878187828745C0EF0184
:100530008A01A18421E0A21236C0A70196010E947F
:100540003A39BA84882301F120E030E040E85FE3E3
:10055000C701B6010E943A39811116C06B2D70E0B7
:1005600080E090E00E94D7399B01AC0165EF76E80E
:1005700088E494E40E943E39F801608371838283A9
:100580009383A986AA8618C0F4E6FB1540F482E09E
:100590008987F80110821182128213820DC061E0F6
:1005A0006B0D6A8709C0A70196010E943A3988231A
:1005B00019F081E089878A87DF91CF911F910F9190
:1005C000FF90EF90DF90CF90BF90AF900895109282
:1005D000D9041092DA041092DB041092DC0421E0BA
:1005E0002093DD0480E090E0A0E8BFE380932E0438
:1005F00090932F04A0933004B093310410922604FA
:1006000010922704109228041092290410923204A8
:1006100010923304109234041092350410922A047C
:1006200010922B0410922C0410922D041092360478
:100630001092370410923804109239042093DE048B
:1006400080933A0490933B04A0933C04B0933D0400
:1006500010925204109253041092540410925504B4
:10066000EEE3F4E01192119211921192148A158A1C
:10067000168A178A84E0E235F807A1F710926A0417
:1006800010926B0410926C0410926D041092DF04AF
:1006900010928603109287031092880310928903A8
:1006A00010928203109283031092840310928503A8
:1006B00010925C0510925D0510925E0510927E030B
:1006C00010927F03109280031092810310925105C3
:1006D000109252051092530510927A0310927B03E8
:1006E00010927C0310927D0384EE9BECA6E9B0E4AB
:1006F0008093920390939303A0939403B0939503F4
:1007000010929603109297031092980310929903F7
:1007100010929A0310929B0310929C0310929D03D7
:1007200010929E0310929F031092A0031092A103B7
:100730001092A2031092A3031092A4031092A50397
:100740001092A6031092A7031092A8031092A90377
:100750001092AA031092AB031092AC031092AD0357
:1007600010921303109214031092150310921603A3
:100770001092CF041092CE0410922C0510922D05E9
:1007800010920303109204031092050310920603C3
:1007900010920B0310920C0310920D0310920E0393
:1007A00010920703109208031092090310920A0393
:1007B00010920F0310921003109211031092120363
:1007C000089510923A0510923B0510923C05089549
:1007D0002F923F924F925F926F927F928F929F9251
:1007E000AF92BF92CF92DF92EF92FF920F931F933F
:1007F000CF93DF93CDB7DEB7A8970FB6F894DEBFDF
:100800000FBECDBF7090D9046090DA04671420F059
:10081000761420F015E003C011E001C012E021E0E1
:10082000298380913703909138038536910508F428
:10083000198228E635E046E853E0612F898124DEFD
:10084000609186037091870380918803909189035A
:100850000E94D93920E037E54DE45FE30E940C3B6C
:100860006D837E838F8398878091DB048D8B0091CD
:10087000DC04081728F0801730F095E0292E05C019
:100880002224239402C082E0282E332433948091C2
:100890003503909136038536910508F4312C27E60F
:1008A00035E042E853E0622D832DEEDD6091820356
:1008B0007091830380918403909185030E94D939BC
:1008C00020E037E54DE45FE30E940C3B69877A87BF
:1008D0008B879C878090260490902704A090280402
:1008E000B0902904C0902A04D0902B04E0902C04EE
:1008F000F0902D04672D70E066197109072E000C29
:10090000880B990B0E94D93920E030EC40E45DE37C
:100910000E940C3B2B013C0120EE30EA47E658E4F4
:10092000C501B4010E940C3B9B01AC01C301B201A3
:100930000E9474382B013C012CE53EE046E059E46E
:10094000C701B6010E940C3B9B01AC01C301B2017F
:100950000E94743824E236E648E659E40E943E39A3
:100960006D877E878F87988B20E836E948E957E4C2
:100970000E940C3B2B013C0120E836E948E158E499
:10098000C501B4010E940C3B9B01AC01C301B20143
:100990000E9474384B015C0120E836E948E957E4CD
:1009A000C701B6010E940C3B9B01AC01C501B4011B
:1009B0000E94743820E030E040E451E40E943E3967
:1009C00020E030E040E752E40E940C3B6B017C01E8
:1009D000A9816A2F70E080E090E00E94D73924E579
:1009E00035E04EE753E07EDD8091DD04811109C0E2
:1009F00060912E0470912F04809130049091310405
:100A000004C060E070E080E89FE320E030E040E276
:100A100050E40E940C3B69837A838B839C832DEC8A
:100A20003CEC4CE45FE30E94743829813A814B81AD
:100A30005C810E943E39698B7A8B8B8B9C8B809179
:100A40007E0390917F03A0918003B0918103BC014C
:100A5000CD01113009F09058A70196010E9473381A
:100A600029893A894B895C890E940C3B9B01AC0126
:100A7000C701B6010E9474386093030370930403A6
:100A80008093050390930603809032049090330482
:100A9000A0903404B0903504C0903604D090370450
:100AA000E0903804F0903904BD896B2F70E0601B32
:100AB0007109072E000C880B990B0E94D93920E090
:100AC00030EC40E45DE30E940C3B2B013C0120EE46
:100AD00030EA47E658E4C501B4010E940C3B9B0193
:100AE000AC01C301B2010E9474382B013C012CE51A
:100AF0003EE046E059E4C701B6010E940C3B9B0171
:100B0000AC01C301B2010E94743824E236E648E623
:100B100059E40E943E396D8B7E8B8F8B988F20E835
:100B200036E948E957E40E940C3B2B013C0120E8E0
:100B300036E948E158E4C501B4010E940C3B9B0131
:100B4000AC01C301B2010E9474384B015C0120E882
:100B500036E948E957E4C701B6010E940C3B9B0106
:100B6000AC01C501B4010E94743820E030E040E4DB
:100B700051E40E943E3920E030E040E752E40E9418
:100B80000C3B6B017C01632D70E080E090E00E94E3
:100B9000D73929E435E04AE753E0A4DC8091DE044C
:100BA000811109C060913A0470913B0480913C042A
:100BB00090913D0404C060E070E080E89FE320E095
:100BC00030E040E250E40E940C3B4B015C012DEC14
:100BD0003CEC4CE45FE30E947438A50194010E9450
:100BE0003E39698F7A8F8B8F9C8F80917A03909199
:100BF0007B03A0917C03B0917D03E1E0BC01CD01BA
:100C00002E129058A70196010E947338298D3A8DB3
:100C10004B8D5C8D0E940C3BA70196010E9474389D
:100C20006B017C01609307037093080380930903B1
:100C300090930A0320913E0430913F044091400478
:100C4000509141046D817E818F8198850E94733817
:100C50002091520430915304409154045091550412
:100C60000E9474386D8F7E8F8F8F98A32DEC3CEC93
:100C70004CE45EE30E940C3B60930B0370930C0307
:100C800080930D0390930E032091560430915704E6
:100C9000409158045091590469857A858B859C85CB
:100CA0000E94733820916A0430916B0440916C0467
:100CB00050916D040E94743869A37AA38BA39CA3FE
:100CC0002DEC3CEC4CE45EE30E940C3B60930F0384
:100CD000709310038093110390931203A701960160
:100CE00060910303709104038091050390910603C2
:100CF0000E94733820E030E04AE753E40E943E3916
:100D00002FE632E143E85AE30E940C3B2091920324
:100D10003091930340919403509195030E9474384D
:100D20006B017C012BED3FE049EC50E40E94013B5C
:100D300018164CF42BED3FE049EC50E4C701B60126
:100D40000E9473381AC020E030E0A901C701B60143
:100D50000E943A3987FD09C0C092BF02D092C002FA
:100D6000E092C102F092C20210C02BED3FE049ECCC
:100D700050E4C701B6010E9474386093BF027093BB
:100D8000C0028093C1029093C2024090BF02509073
:100D9000C0026090C1027090C20221EE3EE245E6C0
:100DA00052E4C301B2010E940C3B6B017C016093D1
:100DB000C3027093C4028093C5029093C60220912F
:100DC00096033091970340919803509199030E94A4
:100DD00073382091AA033091AB034091AC0350913A
:100DE000AD030E9474386DA37EA38FA398A72DEC4A
:100DF0003CEC4CE45EE30E940C3B60931303709365
:100E0000140380931503909316034092920350921B
:100E10009303609294037092950380919A0390914A
:100E20009B03A0919C03B0919D03809396039093A4
:100E30009703A0939803B093990380919E03909198
:100E40009F03A091A003B091A10380939A03909374
:100E50009B03A0939C03B0939D038091A203909168
:100E6000A303A091A403B091A50380939E03909344
:100E70009F03A093A003B093A1038091A603909138
:100E8000A703A091A803B091A9038093A203909314
:100E9000A303A093A403B093A503C092A603D0928A
:100EA000A703E092A803F092A9038DA19EA1AFA190
:100EB000B8A58093AA039093AB03A093AC03B0931F
:100EC000AD0380913A05882361F080913B05811143
:100ED00010923B0580913C05811110923C051092C7
:100EE0003A05809139038093D90480913A03809325
:100EF000DA0480913B038093DB0480913C03809370
:100F0000DC048091260490912704A0912804B091DC
:100F1000290480932A0490932B04A0932C04B0936B
:100F20002D048D859E85AF85B88980932604909386
:100F30002704A0932804B09329041092DD04298982
:100F40003A894B895C8960E070E080E89FE30E9409
:100F5000733829813A814B815C810E940C3B6093FC
:100F60002E0470932F048093300490933104809169
:100F7000320490913304A0913404B09135048093ED
:100F8000360490933704A0933804B09339048D89C4
:100F90009E89AF89B88D8093320490933304A093D7
:100FA0003404B09335041092DE04298D3A8D4B8DB4
:100FB0005C8D60E070E080E89FE30E947338A501DB
:100FC00094010E940C3B60933A0470933B0480931D
:100FD0003C0490933D048091420490914304A0917D
:100FE0004404B091450480933E0490933F04A09341
:100FF0004004B09341048091460490914704A0912D
:101000004804B09149048093420490934304A09310
:101010004404B093450480914A0490914B04A091FC
:101020004C04B0914D048093460490934704A093E0
:101030004804B093490480914E0490914F04A091CC
:101040005004B091510480934A0490934B04A093B0
:101050004C04B0934D048D819E81AF81B8858093FF
:101060004E0490934F04A0935004B09351048D8D7F
:101070009E8DAF8DB8A18093520490935304A0939A
:101080005404B093550480915A0490915B04A0914C
:101090005C04B0915D048093560490935704A09330
:1010A0005804B093590480915E0490915F04A0911C
:1010B0006004B091610480935A0490935B04A09300
:1010C0005C04B0935D048091620490916304A091EC
:1010D0006404B091650480935E0490935F04A093D0
:1010E0006004B09361048091660490916704A091BC
:1010F0006804B09169048093620490936304A093A0
:101100006404B093650489859A85AB85BC8580931A
:10111000660490936704A0936804B093690489A15E
:101120009AA1ABA1BCA180936A0490936B04A09395
:101130006C04B0936D0480914C038093DF04A896F7
:101140000FB6F894DEBF0FBECDBFDF91CF911F91D8
:101150000F91FF90EF90DF90CF90BF90AF909F9056
:101160008F907F906F905F904F903F902F90089559
:101170004F925F926F927F928F929F92AF92BF92A7
:10118000CF92DF92EF92FF92CF93DF932B013C013E
:1011900069017A0120E030E040EA50E40E947338AF
:1011A0004B015C0120E030E0A9010E943A3920E0C7
:1011B00030E040EA50E487FF10C0C301B2010E9452
:1011C00074380E94A639EB0120E030E044EB53E490
:1011D000C501B4010E9474381BC0C301B2010E9452
:1011E00074382B013C0120E030E044EB53E40E94D2
:1011F000013B181614F520E030E044EB53E4C30142
:10120000B2010E9473380E94A639EB01C501B401F6
:101210000E94A639072E000C880B990B0E94D93921
:101220009B01AC01C701B6010E94013B87FF29C0A9
:10123000BE01DD0F880B990B1AC0C501B4010E94D5
:10124000A639072E000C880B990B0E94D9399B01F7
:10125000AC01C701B6010E94013B87FD17C0C30165
:10126000B2010E94A639072E000C880B990B0E9430
:10127000D9399B01AC01C701B6010E943A39181651
:101280002CF060E070E080E89FE303C060E070E075
:10129000CB01DF91CF91FF90EF90DF90CF90BF9087
:1012A000AF909F908F907F906F905F904F90089538
:1012B00010923403109233030895CF92DF92EF928D
:1012C000FF92CF93DF93C0901703D0901803E09064
:1012D0001903F0901A03C0912103D0912203BE019B
:1012E0000D2E000C880B990B0E94D939A70196018D
:1012F0003FDF20E030E0A9010E943A3981113FC070
:10130000C0912303D0912403BE010D2E000C880B45
:10131000990B0E94D939A70196012ADF20E030E01D
:10132000A9010E943A3981112AC0C0912503D091A8
:101330002603BE010D2E000C880B990B0E94D93993
:10134000A701960115DF20E030E0A9010E943A399B
:10135000811115C0C0912703D0912803BE010D2E25
:10136000000C880B990B0E94D939A701960100DF68
:1013700020E030E0A9010E943A39882329F0D09377
:101380003403C093330306C080E991E090933403A3
:1013900080933303DF91CF91FF90EF90DF90CF9058
:1013A00008958BE18093D8041092E50410922203F3
:1013B000109221031092240310922303109226030B
:1013C000109225031092280310922703089580910C
:1013D000D8048D3151F031E020E08091E504811195
:1013E00001C030E0832F922F02C081E090E0282FCF
:1013F000892B99F084EB90E0909322038093210352
:1014000010922403109223038EE091E09093260320
:10141000809325038AE590E012C08EE091E09093DE
:101420002203809321038AE590E090932403809324
:101430002303109226031092250384EB90E09093EF
:1014400028038093270380914C038093D804209332
:10145000E50408958F929F92AF92BF92CF92DF9250
:10146000EF92FF92CF93DF9380910905811107C01E
:1014700081E08093090592E090930A056AC1C091CA
:101480000A05C33009F478C030F4C13059F0C230D5
:1014900009F45FC056C1C43009F49BC0C53009F4DB
:1014A000BFC04FC18091960490919704A091980479
:1014B000B09199040197A105B10509F03EC2D09100
:1014C0004D03DF3009F074C1609133037091340330
:1014D00080E090E00E94D7394B015C01C090F3029C
:1014E000D090F402E090F502F090F602A701960188
:1014F0000E943A3981110CC086E180934A036091C1
:10150000F7027091F8028091F9029091FA0213C0EB
:101510002091F7023091F8024091F9025091FA02BD
:10152000C501B4010E943A398111B6C187E18093A7
:101530004A03C701B6010E94AB397093C704609398
:10154000C604C0930C0584E080930A05C093680329
:1015500029C180914C038111F0C185E080930A0577
:1015600081E080930B051092AE031092AF031092AE
:10157000B0031092B103E1C1609133037091340361
:1015800080E090E00E94D7396B017C012091EB0252
:101590003091EC024091ED025091EE020E943A39F6
:1015A0008823D9F22091EF023091F0024091F102AC
:1015B0005091F202C701B6010E943A39882369F2BC
:1015C00080916D03882309F4B8C181E080930A05F6
:1015D000B4C180910C05833048F01092680386E016
:1015E00080930A051092670385E017C02091C60416
:1015F0003091C70480913303909134032817390741
:1016000009F09BC180916A03882309F496C1109266
:10161000680383E080930A0581E080934A038DC1CB
:1016200020E030E0A9016091AE037091AF0380919A
:10163000B0039091B1030E943A39882319F01092B7
:101640000B05E7CF80910B05823009F476C16091DC
:10165000330370913403833008F05EC0813009F0A9
:101660005BC080E090E00E94D7396B017C01209143
:10167000F7023091F8024091F9025091FA020E946B
:101680003A39811105C083E080930B0588E1C5CF0D
:101690002091EB023091EC024091ED025091EE026C
:1016A000C701B6010E943A39811105C084E08093D8
:1016B0000B0585E1B2CF2091EF023091F00240910D
:1016C000F1025091F202C701B6010E943A3981112C
:1016D00005C085E080930B0584E19FCF2091F30244
:1016E0003091F4024091F5025091F602C701B60123
:1016F0000E943A39811121C182E080930B0580E07C
:1017000090E0A0E8BFE38093AE039093AF03A09373
:10171000B003B093B10311C180E090E00E94D739CB
:101720002091F3023091F4024091F5025091F602BB
:101730000E943A39811101C180916A038111DCCF85
:10174000FCC080914C038111F8C082E080930A05AF
:1017500081E08093670380930C05EFC02091F7022E
:101760003091F8024091F9025091FA02C501B4019A
:101770000E943A39811144C088E180934A03C7012D
:10178000B6010E94AB397093C7046093C604809180
:101790000C058F5F80930C0584E080930A0581E03F
:1017A0008093680380914B038F5F80934B03C5C088
:1017B000DA3011F0D73021F56091330370913403A2
:1017C00080E090E00E94D7394B015C01C090F302A9
:1017D000D090F402E090F502F090F602A701960195
:1017E0000E943A398111BACF86E180934A03609111
:1017F000F7027091F8028091F9029091FA023FC0CD
:10180000D93009F44DC0DB3019F0D83009F044C0AC
:10181000609133037091340380E090E00E94D739E7
:101820004B015C01C090F302D090F402E090F5020D
:10183000F090F602A70196010E943A3981110CC07E
:1018400088E180934A036091F7027091F8028091D9
:10185000F9029091FA0295CF2091F7023091F802A7
:101860004091F9025091FA02C501B4010E943A393F
:10187000811112C087E180934A03C701B6010E941B
:10188000AB397093C7046093C60481E080930C0564
:1018900094E090930A0584CFDC50D33008F04DC01B
:1018A000609133037091340380E090E00E94D73957
:1018B0004B015C01C090F302D090F402E090F5027D
:1018C000F090F602A70196010E943A39C0914B03AD
:1018D00081110CC088E180934A036091F7027091F6
:1018E000F8028091F9029091FA0213C02091F70258
:1018F0003091F8024091F9025091FA02C501B40109
:101900000E943A39811110C088E180934A03C701CF
:10191000B6010E94AB397093C7046093C6048091EE
:101920000C058F5F80930C0584E080930A0581E0AD
:1019300080936803CF5FC0934B03DF91CF91FF90FB
:10194000EF90DF90CF90BF90AF909F908F900895D1
:101950008F929F92AF92BF92CF92DF92EF92FF92BF
:10196000CF938091FF04811104C081E08093FF0434
:1019700011C080910005823009F4EDC0833009F474
:10198000FFC0813009F069C290914C03993179F020
:101990001092010592E0909300051092060595E0E3
:1019A00090934803109208058093640343C3809189
:1019B0000805813051F4109201058093320583E0CF
:1019C000809300058093030535C3E09101058E2FB8
:1019D00090E0FC013197E830F10508F0ABC0EC5C19
:1019E000FF4F0C94943B80916D03882309F422C32C
:1019F00082E0E2C28091920490919304A0919404B9
:101A0000B09195040197A105B10509F013C3C091E8
:101A10004D038C2F8B7F8B3019F0C83009F0AFC28B
:101A2000C0903303D0903403E12CF12CC701B601F0
:101A30000E94D7394B015C012091DB023091DC021E
:101A40004091DD025091DE020E943A39811102C0BC
:101A500083E00FC02091E3023091E4024091E5025F
:101A60005091E602C501B4010E943A3981116CC25D
:101A700089E08093010584E180934803DBC2609193
:101A800033037091340380E090E00E94D7392091B5
:101A9000E3023091E4024091E5025091E6020E9497
:101AA0003A398111C7C280916A03882309F4C2C2FE
:101AB00081E0DCC1609133037091340380E090E0F9
:101AC0000E94D7392091DB023091DC024091DD0287
:101AD0005091DE020E943A398111ACC280916A03B2
:101AE000882309F4A7C284E08093010581E08093F4
:101AF000080585E0C1CF609133037091340380E025
:101B000090E00E94D7392091DF023091E0024091AD
:101B1000E1025091E2020E943A3981118BC2809118
:101B20006A03882309F486C21092010583E080933A
:101B300000058DC1609133037091340380E090E023
:101B40000E94D7392091DF023091E0024091E102FA
:101B50005091E202BFCF90914C03809106059931DC
:101B600059F4893C48F084E08093000581E080933B
:101B70000205109231055EC28F5F809306055AC23E
:101B800080910305813021F0823009F41CC12DC100
:101B900080913205811105C010920405109205054F
:101BA00056C180910405823049F020F4813009F457
:101BB00041C217C0833011F0843099F480919204AF
:101BC00090919304A0919404B09195040197A1057C
:101BD000B10509F02FC281E080930405109232050F
:101BE00029C28090DF029090E002A090E102B090C4
:101BF000E202609133037091340380E090E00E9430
:101C0000D7396B017C019B01AC01C501B4010E9475
:101C10003A39811113C080916A03882379F0809149
:101C20000705823058F080916D03882339F01092B7
:101C3000050585E08093480382E0AFC0E09105058B
:101C40008E2F90E0FC013197E730F10508F092C04B
:101C5000E45CFF4F0C94943B809192049091930428
:101C6000A0919404B09195040197A105B10509F0E4
:101C7000E1C184E08093050580C180919204909138
:101C80009304A0919404B09195040197A105B10526
:101C900009F0D0C186E080930505EDCE2091E302E6
:101CA0003091E4024091E5025091E602C701B6018D
:101CB0000E943A398111BEC180916A03882309F4D8
:101CC000B9C185E08093050581E0D6CE80916D0392
:101CD000882309F4AFC180914D03883011F08F3013
:101CE00011F483E051C0893019F0873009F0A2C1A6
:101CF0001092050584E051C0A5019401C701B60109
:101D00000E943A39811196C180916A03882309F4AF
:101D100091C188E08093050581E08093480380911C
:101D200007058F5F83C080916D03882311F082E0E7
:101D30002BC080914D03877F873059F720917E0417
:101D400030917F0440918004509181046091C702DA
:101D50007091C8028091C9029091CA020E947338A2
:101D600020E030E04AE753E40E94013B18160CF4EF
:101D700080CF60C180914D03877F90916D03873044
:101D800031F4992369F081E08093050553C19923CB
:101D900009F450C11092050583E0809304054AC1FF
:101DA000809305058091C7029091C802A091C90255
:101DB000B091CA0280937E0490937F04A093800424
:101DC000B093810437C190914C03993109F032C12D
:101DD00010920305809300051092060585E080931C
:101DE00048031092080581E0DFCD609133037091C4
:101DF000340380E090E00E94D7396B017C01209190
:101E0000DF023091E0024091E1025091E2020E9433
:101E10003A3981110EC081E08093030595E09093DB
:101E2000040598E090930505809348038093070587
:101E300001C12091DB023091DC024091DD02509122
:101E4000DE02C701B6010E943A398111F3C082E077
:101E50008093030510926403EDC0809131058823BF
:101E600041F01092020581E0809300058093010506
:101E700003CE80910205823009F4DCC06091330307
:101E800070913403833008F052C0813009F04FC0A4
:101E900080E090E00E94D7396B017C012091DF0245
:101EA0003091E0024091E1025091E2020E943A3901
:101EB000811104C083E0809302059AC02091E3025F
:101EC0003091E4024091E5025091E602C701B6016B
:101ED0000E943A39811104C084E0809302054DC00C
:101EE0002091E7023091E8024091E9025091EA0224
:101EF000C701B6010E943A39811104C085E0809380
:101F00000205B9CD2091DB023091DC024091DD0267
:101F10005091DE02C701B6010E943A3981118AC090
:101F200082E08093020581E08093310583C080E0E8
:101F300090E00E94D7392091DB023091DC02409181
:101F4000DD025091DE02E8CFCA30D9F4C701B601F4
:101F50000E94D7396B017C012091E3023091E402A9
:101F60004091E5025091E602C701B6010E943A395C
:101F7000811144C088E08093010585E17DCDCA30A0
:101F8000F1F0C730E1F0C930A9F5609133037091E9
:101F9000340380E090E00E94D7396B017C012091EE
:101FA000E3023091E4024091E5025091E6020E9482
:101FB0003A3981112FC086E0809301053BC06091C2
:101FC00033037091340380E090E00E94D7396B01B5
:101FD0007C012091DB023091DC024091DD025091C6
:101FE000DE020E943A398111B7CF87E08093010564
:101FF00088E142CDCC50C330E8F4C7CFC930D1F727
:10200000609133037091340380E090E00E94D739EF
:102010006B017C012091DB023091DC024091DD02FA
:102020005091DE02C701B6010E943A39811102C007
:1020300085E0DCCFCF91FF90EF90DF90CF90BF9005
:10204000AF909F908F9008954F925F926F927F9282
:10205000AF92BF92CF92DF92EF92FF920F931F93B6
:10206000CF93DF93CDB7DEB728970FB6F894DEBFD6
:102070000FBECDBF69837A838B839C8329013A018C
:10208000ED82FE820F8318872091CF023091D0021B
:102090004091D1025091D2020E943A39811121C05F
:1020A000A8019701C301B2010E943A39811119C0F8
:1020B00020E030E844E853E469A17AA18BA19CA117
:1020C0000E94013B87FF7DC020E030E849E853E4EF
:1020D00069A17AA18BA19CA10E943A3918160CF033
:1020E00070C02091D7023091D8024091D90250910E
:1020F000DA0269817A818B819C810E943A3981114F
:1021000017C02D8D3E8D4F8D58A1C301B2010E9485
:102110003A3981110DC020E030E044E353E469A175
:102120007AA18BA19CA10E943A39882309F449C065
:102130002091D3023091D4024091D5025091D60221
:1021400069817A818B819C810E943A39811116C004
:10215000298D3A8D4B8D5C8DC301B2010E943A39B5
:1021600081110CC020E030E044EB52E469A17AA177
:102170008BA19CA10E943A39882319F12091CB02AE
:102180003091CC024091CD025091CE0269817A818A
:102190008B819C810E943A39811118C0A60195015A
:1021A000C301B2010E943A39811110C020E030E031
:1021B000A90169A17AA18BA19CA10E943A39811140
:1021C00005C060E070E080E89FE303C060E070E07D
:1021D000CB0128960FB6F894DEBF0FBECDBFDF91BE
:1021E000CF911F910F91FF90EF90DF90CF90BF9014
:1021F000AF907F906F905F904F9008950F931F93D3
:10220000CF93DF93F8019481911108C081E084831A
:102210008583408351836283738314C09581913099
:1022200089F4882379F0E901CB01BA0122E0258302
:1022300020813181428153810E9473386883798380
:102240008A839B83DF91CF911F910F91089581E045
:102250008093E0041092E10499E09093D1041092ED
:102260003E0340E050E067E873E44093120450936B
:102270001304609314047093150410920F051092C8
:10228000C9041092C80410920D0510920E05109208
:10229000100510924C0310924D03109233051092CA
:1022A0000B051092090510920A051092C7041092AE
:1022B000C60410920C051092AE031092AF03109258
:1022C000B0031092B10310924A03809367031092F7
:1022D000680310924B03809366031092650310927B
:1022E0004903109201051092030510920405109203
:1022F0000505109202051092FF041092000510923D
:1023000006051092070510920805109231051092EB
:10231000320510927E0410927F0410928004109275
:10232000810410924803809364031092630383E056
:102330008093D2048093D3048093D4041092FD043C
:102340001092FE041092FB041092FC0410924703BA
:10235000109262031092F8041092F6041092F7049F
:102360001092C5041092C4041092F9041092FA0459
:102370001092610310924503809346031092470523
:10238000109248051092430510924405109245059D
:1023900010924605109276031092770310927803FC
:1023A00010927903109241051092420510923D055A
:1023B00010923E0510923F05109240051092720354
:1023C00010927303109274031092750310926003BD
:1023D00010925F03109244031092F5041092F304DC
:1023E0001092F4041092300510924203809343033C
:1023F000809341039093400310925D0390933F03B9
:1024000010925E0385E080933D0310925C0310926E
:102410005B0308958FEF8093E7048093E8041092A4
:10242000390508952F923F924F925F926F927F925B
:102430008F929F92AF92BF92CF92DF92EF92FF92D4
:102440000F931F93CF93DF93CDB7DEB761970FB68E
:10245000F894DEBF0FBECDBF80915403811103C03D
:1024600020912B0301C02AE080915503811103C004
:1024700080912D0301C08AE04091C8045091C904A5
:102480004F3F31E0530730F44F5F5F4F5093C90423
:102490004093C80490910D0591110DC091E0909367
:1024A0000D0532E030930E0590930F051092C9048C
:1024B0001092C8047DC090910E05913009F478C047
:1024C00090915603992331F010920F0591E090936B
:1024D0000E055EC090910F05923009F469C018F4A2
:1024E000913031F043C09330F1F09430B9F13EC0F7
:1024F0009091D104983049F493E090930F05109295
:10250000C9041092C80499E151C04091C804509187
:10251000C9044039514008F44BC09CE190934C03EE
:102520001092100545C09091E004911141C0409176
:10253000C8045091C90445305105D0F195E09093FD
:102540000F051092C9041092C8049AE190934C03AD
:10255000909110059F5F909310052AC04091C80488
:102560005091C9044530510538F622C09091E104DC
:10257000911110C090911005923080F04091C804E4
:102580005091C9044530510548F092E090930F05F1
:102590009BE10CC0909149039F3150F094E09093DF
:1025A0000F051092C9041092C8049DE190934C034A
:1025B00090911205909311059091520390931205FA
:1025C00030913305311105C031E0309333059093DC
:1025D000110530917103311108C030911105391383
:1025E00004C090916A03992399F0223008F090C6B4
:1025F000882331F097E090934D03222349F088C659
:10260000222309F48AC698E090934D03811183C672
:1026100080913E03813009F520910F033091100322
:10262000409111035091120360910B0370910C03C0
:1026300080910D0390910E030E94743820E030E0E9
:1026400040E05FE30E940C3B6093C7027093C802B6
:102650008093C9029093CA0208C01092C7021092D8
:10266000C8021092C9021092CA028090120490907F
:102670001304A0901404B09015049091E704E09125
:102680004C03E951E43028F4F0E0EA5EFE4F80812B
:1026900001C083E08093E7049817D9F09230C9F421
:1026A0009091E804933031F0943049F499E090939C
:1026B000400305C0909139059111109239059FEFA3
:1026C0009093E804813009F4E0C054F4882391F039
:1026D000D7C5813009F4D7C01CF4882349F0D0C590
:1026E000823009F499C1833009F0CAC585E0C6C5B6
:1026F0009923E9F010920B051092090510920A0532
:102700001092C7041092C60410920C051092AE03EA
:102710001092AF031092B0031092B10310924A03CB
:1027200081E0809367031092680310924B036091DD
:10273000270370912803072E000C880B990B0E9429
:10274000D9396093EB027093EC028093ED02909381
:10275000EE026091250370912603072E000C880B72
:10276000990B0E94D9396093EF027093F002809325
:10277000F1029093F2026091210370912203072EDF
:10278000000C880B990B0E94D9396093F302709367
:10279000F4028093F5029093F60260912303709106
:1027A0002403072E000C880B990B0E94D9396093E3
:1027B000F7027093F8028093F9029093FA02409125
:1027C000630521E030E0413011F020E030E08091FD
:1027D0006F0390E02817390741F031E020E04330E3
:1027E00009F430E0832F922F02C080E090E0409106
:1027F000640561E070E0413011F060E070E020912C
:10280000700330E06217730739F0433029F0892BE9
:1028100099F001E010E004C0892BE1F000E010E045
:1028200010929604109297041092980410929904B2
:102830000E942A0A012B71F081E090E0A0E0B0E054
:102840008093960490939704A0939804B09399046E
:102850000E942A0A80916F03809363058091700320
:102860008093640580914A0380933D0380914B03DC
:102870008093490380916803809365038091670387
:1028800080936603FDC4913029F1109201051092E6
:10289000030510920405109205051092020510928E
:1028A000FF04109200051092060510920705109281
:1028B0000805109231051092320510927E04109294
:1028C0007F0410928004109281041092480381E0EA
:1028D000809364036091210370912203072E000C02
:1028E000880B990B0E94D9396093DB027093DC024C
:1028F0008093DD029093DE026091230370912403A4
:10290000072E000C880B990B0E94D9396093DF02C7
:102910007093E0028093E1029093E20260912703BA
:1029200070912803072E000C880B990B0E94D9394F
:102930006093E3027093E4028093E5029093E602D1
:102940006091250370912603072E000C880B990BCC
:102950000E94D9396093E7027093E8028093E902FC
:102960009093EA024091610521E030E0413011F09E
:1029700020E030E080916F0390E02817390741F0A4
:1029800031E020E0433009F430E0832F922F02C081
:1029900080E090E04091620561E070E0413011F02C
:1029A00060E070E02091700330E06217730739F047
:1029B000433029F0892B99F001E010E004C0892B05
:1029C000E1F000E010E01092920410929304109253
:1029D0009404109295040E94A80C012B71F081E0E0
:1029E00090E0A0E0B0E08093920490939304A093D1
:1029F0009404B09395040E94A80C80916F03809377
:102A000061058091700380936205809164038093D7
:102A100063038091480332C48091FE048F3018F420
:102A20008F5F8093FE048091FB04811109C081E0D7
:102A30008093FB04809362038093FC0486E03CC097
:102A40008091FC04813071F48091D4048430B1F51C
:102A50001092620382E08093FC048093FD04109244
:102A6000FE042CC08091FD04823049F08330D9F0FF
:102A7000813021F585E08093FD0487E01DC09091B1
:102A8000D304913021F493E09093FD0415C092306B
:102A900021F484E08093FD0411C08091FE048A300B
:102AA00068F081E009C08091D204823091F38130D6
:102AB00029F48093FD0485E0809347039091E80416
:102AC000E0914703E150E63028F4F0E0E05FFE4F8C
:102AD000808101C084E08093E804981769F0933006
:102AE00031F0943049F499E09093400305C09091FF
:102AF0003905911110923905823009F495C334F4E7
:102B0000882371F0813009F46DC291C3833009F4D8
:102B1000E6C2843009F08BC388E08093400384C30D
:102B20006091250370912603072E000C880B990BEA
:102B30000E94D9392B013C016093CB027093CC02E7
:102B40008093CD029093CE02609121037091220375
:102B5000072E000C880B990B0E94D939F62E072FEF
:102B6000182F9D83292F862F902FA12FB22F80936E
:102B7000CF029093D002A093D102B093D202609181
:102B8000230370912403072E000C880B990B0E94DD
:102B9000D9396E837F838887392E472F382F862F28
:102BA000942FA32FB32D8093D3029093D402A0939C
:102BB000D502B093D6026091270370912803072EA7
:102BC000000C880B990B0E94D939262EC72ED82EBF
:102BD000E92E862F9C2DAD2DBE2D8093D70290938C
:102BE000D802A093D902B093DA0220E030E04CE89A
:102BF00053E4C501B4010E943A39181654F020E09C
:102C000030E042E853E4C501B4010E94013B87FF74
:102C100040C020E030E048EC52E4C501B4010E941D
:102C20003A39181654F020E030E040EA52E4C50189
:102C3000B4010E94013B87FF31C020E030E040E258
:102C400051E4C501B4010E943A3918165CF520E040
:102C500030E04FEA53E4C501B4010E94013B87FF15
:102C600021C020E030E04EE353E4C501B4010E94EE
:102C70003A391816D4F020E030E04AE253E4C501B6
:102C8000B4010E94013B87FD10C064EB862E912C9D
:102C900010C05EE0852E992493940BC04AE5842EE3
:102CA000912C07C0812C912C04C030E9832E9924EB
:102CB00093948091F604811110C081E08093F60412
:102CC00082E08093F70485E0809346038093450378
:102CD0001092F9041092FA0482C18091F7048230B4
:102CE00019F08330D1F07BC180913303909134038C
:102CF000803921E0920709F472C120916A032223EE
:102D000009F46DC19093C5048093C40483E080935B
:102D1000F70491E09093F8044FC13091F90439839E
:102D20003323D9F080916A038823B9F0809133036B
:102D3000909134038815990581F08091FA048031CF
:102D400060F01092F80484E08093F70481E08093AF
:102D5000610382E08093460342C18091F804898B2D
:102D6000813039F080916A039989923009F46BC0FF
:102D7000CBC02981211107C039893093F90485E13D
:102D80008093450329C1B401092C000C880B990BD1
:102D90000E94D939562E672E782E492E6091C40490
:102DA0007091C50480E090E00E94D7394F927F92E5
:102DB0006F925F9223E42F9324E32F931F921F922D
:102DC00022E42F9324EB2F931F921F92A12CB12C5E
:102DD0006501E12CF12C07E813E4252D362D472D54
:102DE000542D32D90FB6F894DEBF0FBECDBFA60169
:102DF00095010E943A39882351F01092F8043989DC
:102E00003093F7041092610330934603E8C0898140
:102E1000813039F482E08093F90494E19093450382
:102E2000DCC09981923009F0DAC080916A0388236E
:102E300009F4D5C080913303909134038816990624
:102E400009F07FCFCCC0882309F4C9C02091330397
:102E5000309134033A832983B90180E090E00E94E5
:102E6000D7399B01AC016091C4047091C50480E026
:102E700090E02D873E874F87588B0E94D73969870E
:102E80007A878B879C87B401092C000C880B990BDF
:102E90000E94D9399F938F937F936F93EF92DF9224
:102EA000CF922F923F9288858F939F819F938E819F
:102EB0008F93630152018D81EF2CF02E012F182F7B
:102EC0002D853E854F85588969857A858B859C85BA
:102ED000BBD80FB6F894DEBF0FBECDBF20E030E008
:102EE000A9010E943A39811163C089819A818815AC
:102EF000990509F474C08091FA048F5F8093FA04F5
:102F000099899093F8046BC0882309F468C02091D4
:102F10003303309134033A872987B90180E090E088
:102F20000E94D7399B01AC016091C4047091C50423
:102F300080E090E02D873E874F87588B0E94D739DD
:102F400069837A838B839C83B401092C000C880BE2
:102F5000990B0E94D9399F938F937F936F938D81A3
:102F60008F931F930F93FF92EF92DF92CF922F9246
:102F70007E816F819885A72EB62EC92ED32C830112
:102F800072012D853E854F85588969817A818B81B3
:102F90009C815AD80FB6F894DEBF0FBECDBF20E09B
:102FA00030E0A9010E943A39882361F01092FA04B6
:102FB00081E08093F80483E08093460385E080936A
:102FC00045030DC089859A858815990541F0809142
:102FD000FA048F5F8093FA0483E08093F804809171
:102FE000450323C184E180933D0340910F03509139
:102FF0001003609111037091120303E415E026E7BA
:1030000033E080916A03FAD8F0906A03FF20E9F078
:103010008091760390917703A0917803B091790322
:10302000BC01CD019F772CE739E544E453E40E94CD
:10303000733811E020E030E040EA50E40E94013BA8
:1030400018160CF010E0812F01C080E080935F0320
:1030500040910B0350910C0360910D0370910E038E
:103060000DE315E022E733E08F2DC8D800916A0305
:103070000023F9F08091720390917303A09174037F
:10308000B0917503BC01CD019F772CE739E544E48D
:1030900053E40E94733811E0F12C20E030E040EA64
:1030A00050E40E94013B18160CF010E0812F9F2D78
:1030B00002C080E090E08093600320915F032111C3
:1030C00002C0892B21F0002331F082E005C00023EB
:1030D00011F081E001C083E080934403A8C0909187
:1030E000390591110FC01092F5041092F30410925B
:1030F000F40410923005109242038093430381E060
:10310000809339058091F5048F3018F48F5F809398
:10311000F5048091F30481110FC081E08093F304E2
:1031200086E08093F40485E08093420383E08093FB
:1031300043031092300571C08091F404833061F034
:1031400028F4813049F0823081F05FC08430A9F0EA
:10315000853009F462C059C08091F5048A3008F4C2
:103160005CC081E08093300550C08091F5048A30C6
:1031700008F453C01092300548C0809133039091F9
:103180003403009759F480913005811146C0809135
:103190006A03882309F441C081E019C08A3591058A
:1031A00051F4809130058823C1F180916A0388230E
:1031B000A1F182E00CC0843B910579F48091300547
:1031C00081112BC080916A03882339F183E08093B9
:1031D000F4041092F50485E01EC08E309140E9F4AD
:1031E000809130058823C9F080916A038823A9F073
:1031F0008091F5048A3088F085E08093F404809310
:10320000420384E08093430308C084E08093F40485
:103210001092F50485E180934203809143038093EB
:1032200041038091420301C085E080933D0380917A
:10323000610381110BC080916003811107C081E09F
:1032400090915F03911103C080E001C081E0809301
:103250005D038091400380933F03809162038093DC
:103260005E03809144038093D2048091460380934F
:10327000D304809141038093D40402C080933D0322
:1032800080915D0380935B038091650380935C0371
:1032900080916D03882319F08091530302C08091BF
:1032A0003D0380933E03809163038093E00480910B
:1032B00066038093E10480913F038093D104809161
:1032C000130390911403A0911503B09116038093FA
:1032D000120490931304A0931404B0931504619600
:1032E0000FB6F894DEBF0FBECDBFDF91CF911F9117
:1032F0000F91FF90EF90DF90CF90BF90AF909F9095
:103300008F907F906F905F904F903F902F90089597
:10331000823008F478C98FE001C089E080934D03C2
:1033200077C94F925F926F927F928F929F92AF92E6
:10333000BF92CF92DF92EF92FF920F931F93CF93A2
:10334000DF93209122052093210590911F059093F2
:1033500022058090860490908704A0908804B09005
:1033600089048092820490928304A0928404B09293
:103370008504C090FB02D090FC02E090FD02F0902A
:10338000FE02C0928604D0928704E0928804F092F4
:103390008904309124053093230580913E03809366
:1033A00024054091140541111CC0C0928204D092A2
:1033B0008304E0928404F09285048093230581E0E5
:1033C0008093140589E0809315051092200585E00F
:1033D0008093510380E991E090932A03809329031D
:1033E000E9C7E09115054E2F50E0FA013197E8301A
:1033F000F10508F072C4ED5BFF4F0C94943B381359
:1034000005C090913405992309F4D4C7813049F45B
:1034100081E08093510398E0909315058093160501
:10342000C9C7823039F482E08093510387E08093EA
:103430001505C0C7863189F486E080931505109282
:103440001F0581E080931D0592E090931E0593E097
:103450009093510380933405ADC7883189F484E09B
:103460008093150510921F0581E080931A0592E064
:1034700090931B0593E090935103809334059AC772
:10348000873189F485E08093150510921F0581E04E
:103490008093180592E09093190594E0909351035E
:1034A0008093340587C7853079F58093510381E097
:1034B0008093150580914103843009F07BC780918A
:1034C0003303909134038039914009F073C78091A0
:1034D00021039091220390932A03809329036AC7C2
:1034E000381709F444C3813009F492CF823009F4CB
:1034F0009ACF863109F4A0CF883109F4B0CF873153
:1035000009F2853009F438C3853161F483E0809392
:10351000150592E090931C058093510381E0809300
:10352000340548C7843109F045C782E0809315050A
:103530008093170584E08093510381E080933405E4
:1035400039C7381304C09091340591113AC48130C1
:1035500051F4109217058093510398E0909315054C
:103560008093160527C7823041F410921705809387
:10357000510387E0809315051DC7863199F4109299
:10358000170586E08093150510921F0581E0809352
:103590001D0592E090931E0593E090935103809354
:1035A000340508C7883199F41092170584E0809398
:1035B000150510921F0581E080931A0592E0909303
:1035C0001B0593E09093510380933405F3C6873134
:1035D00099F41092170585E08093150510921F0548
:1035E00081E08093180592E09093190594E0909300
:1035F000510380933405DEC68530E9F41092170537
:103600008093510381E080931505809141038430BC
:1036100009F0D0C6809133039091340380399140F2
:1036200009F0C8C6809121039091220390932A0348
:1036300080932903BFC6853171F41092170583E08A
:103640008093150592E090931C058093510381E0CF
:1036500080933405AFC6843109F0B3C382E0809310
:10366000170584E08093510381E080933405A2C65E
:10367000381304C090913405911143C3813051F443
:1036800010921C058093510398E090931505809348
:10369000160590C6823041F410921C0580935103A8
:1036A00087E08093150586C6863199F410921C0533
:1036B00086E08093150510921F0581E080931D051B
:1036C00092E090931E0593E090935103809334050C
:1036D00071C6883199F410921C0584E08093150519
:1036E00010921F0581E080931A0592E090931B05CC
:1036F00093E090935103809334055CC6873199F42D
:1037000010921C0585E08093150510921F0581E03D
:103710008093180592E09093190594E090935103DB
:103720008093340547C68530E9F410921C058093D8
:10373000510381E08093150580914103843009F0A5
:1037400039C680913303909134038039914009F058
:1037500031C6809121039091220390932A03809394
:10376000290328C6853151F482E080931C0583E04B
:103770008093510381E0809334051CC6843109F0A5
:10378000C0C210921C0582E0809315058093170536
:1037900084E08093510381E0809334050BC6381395
:1037A00004C02091340521116CC3813061F4109262
:1037B0001B0510921A058093510398E0909315050C
:1037C00080931605F7C5823051F410921B051092B4
:1037D0001A058093510387E080931505EBC5863168
:1037E000A9F410921B0510921A0586E08093150526
:1037F00010921F0581E080931D0592E090931E05B5
:1038000093E09093510380933405D4C5883171F4CB
:1038100010921F0581E080931A0592E090931B059A
:1038200093E09093510380933405C4C58731A9F484
:1038300010921B0510921A0585E0809315051092D1
:103840001F0581E08093180592E09093190594E09C
:103850009093510380933405ADC58530F9F41092EF
:103860001B0510921A058093510381E08093150582
:1038700080914103843009F09DC58091330390917C
:1038800034038039914009F095C5809121039091CE
:10389000220390932A03809329038CC5853181F4F8
:1038A00010921B0510921A0583E08093150592E093
:1038B00090931C058093510381E0809334057AC571
:1038C000843109F0DEC210921B0510921A0582E0C5
:1038D000809315058093170584E08093510381E060
:1038E0008093340567C530913405311131C381307F
:1038F00061F410921905109218058093510398E015
:10390000909315058093160555C5823051F4109299
:103910001905109218058093510387E080931505CF
:1039200049C58631A9F4109219051092180586E050
:103930008093150510921F0581E080931D0592E08C
:1039400090931E0593E0909351038093340532C504
:103950008831A9F4109219051092180584E080931B
:10396000150510921F0581E080931A0592E090934F
:103970001B0593E090935103809334051BC5873159
:1039800071F410921F0581E08093180592E09093E6
:10399000190594E090935103809334050BC585304D
:1039A000F9F410921905109218058093510381E0E3
:1039B0008093150580914103843009F0FBC4809108
:1039C0003303909134038039914009F0F3C480911E
:1039D00021039091220390932A0380932903EAC440
:1039E000853181F4109219051092180583E08093B7
:1039F000150592E090931C058093510381E080931C
:103A00003405D8C4843109F0A3C21092190510926C
:103A1000180582E0809315058093170584E0809354
:103A2000510381E080933405C5C4309134053111D0
:103A300039C3813061F410921E0510921D058093E8
:103A4000510398E09093150580931605B3C4823016
:103A500051F410921E0510921D058093510387E0CA
:103A600080931505A7C4863171F410921F0581E07B
:103A700080931D0592E090931E0593E0909351036F
:103A80008093340597C48831A9F410921E051092D2
:103A90001D0584E08093150510921F0581E0809339
:103AA0001A0592E090931B0593E090935103809345
:103AB000340580C48731A9F410921E0510921D05AB
:103AC00085E08093150510921F0581E0809318050D
:103AD00092E09093190594E09093510380933405FC
:103AE00069C48530F9F410921E0510921D0580936B
:103AF000510381E08093150580914103843009F0E2
:103B000059C480913303909134038039914009F076
:103B100051C4809121039091220390932A038093B2
:103B2000290348C4853181F410921E0510921D05A9
:103B300083E08093150592E090931C0580935103D8
:103B400081E08093340536C4843109F0ABC2109211
:103B50001E0510921D0582E08093150580931705C0
:103B600084E08093510381E08093340523C49091D5
:103B7000340591111FC4B7CC8093510381E0809329
:103B8000150580914103843009F014C480913303FA
:103B9000909134038039914009F00CC48091210345
:103BA0009091220390932A038093290303C438172A
:103BB00009F422C3813041F48093510398E090933B
:103BC000150580931605F6C3823041F41092160550
:103BD0008093510387E080931505ECC3863199F4F7
:103BE0001092160586E08093150510921F0581E05E
:103BF00080931D0592E090931E0593E090935103EE
:103C000080933405D7C3883199F41092160584E067
:103C10008093150510921F0581E080931A0592E0AC
:103C200090931B0593E09093510380933405C2C396
:103C3000873199F41092160585E08093150510924E
:103C40001F0581E08093180592E09093190594E098
:103C50009093510380933405ADC38530E9F41092FD
:103C600016058093510381E08093150580914103EF
:103C7000843009F09FC380913303909134038039DD
:103C8000914009F097C38091210390912203909372
:103C90002A03809329038EC3853171F4109216058F
:103CA00083E08093150592E090931C058093510367
:103CB00081E0809334057EC3843109F09DC2109267
:103CC000160582E0809315058093170584E08093A4
:103CD000510381E0809334056DC3809120058530C8
:103CE00060F0809121039091220390932A038093A6
:103CF000290381E0809315055DC38F5F80932005C4
:103D000059C320911C05213009F454C38091330319
:103D100090913403223009F041C020912503309165
:103D200026038217930761F4809123039091240363
:103D300090932A038093290383E080931C053AC360
:103D400040912103509122038417950741F4309349
:103D50002A032093290383E080931C052BC3209121
:103D60002703309128038217930741F450932A03C5
:103D70004093290383E080931C051CC340912303D7
:103D8000509124038417950709F014C330932A0334
:103D90002093290383E080931C050CC32091290301
:103DA00030912A038217930709F004C380916903B5
:103DB000882309F4FFC281E080931C05109234052A
:103DC000F9C220911705213009F4F4C28091330320
:103DD00090913403223009F041C0209121033091A9
:103DE00022038217930761F480912703909128039F
:103DF00090932A038093290383E080931705DAC206
:103E000040912503509126038417950741F4309380
:103E10002A032093290383E080931705CBC22091C6
:103E20002303309124038217930741F450932A030C
:103E30004093290383E080931705BCC24091270378
:103E4000509128038417950709F0B4C230932A03D0
:103E50002093290383E080931705ACC220912903A6
:103E600030912A038217930709F0A4C28091690355
:103E7000882309F49FC281E08093170510923405CE
:103E800099C280911A05813009F094C2923039F4B8
:103E900010921B0590931A05109234058BC2409125
:103EA0001B05413009F486C220913303309134035D
:103EB0004230C9F5809125039091260328173907D0
:103EC00061F4809123039091240390932A038093BB
:103ED000290383E080931B056DC28091210390919B
:103EE00022032817390769F34091270350912803CB
:103EF0002417350741F490932A038093290383E024
:103F000080931B0557C2409123035091240324172B
:103F1000350709F04FC290932A038093290383E069
:103F200080931B0547C24091290350912A0324170F
:103F3000350709F03FC220916903222309F43AC2F0
:103F400080931B059F5F90931F051092340532C22A
:103F500080911805813009F076C0913051F42130FC
:103F600089F01092190583E080931805909351030E
:103F700021C2923039F410921905909318051092CD
:103F8000340518C280911905813009F413C22091BB
:103F9000330330913403823009F041C08091210312
:103FA000909122032817390761F48091270390919B
:103FB000280390932A038093290383E080931905B3
:103FC000F9C140912503509126032417350741F488
:103FD00090932A038093290383E080931905EAC113
:103FE00080912303909124032817390741F45093BB
:103FF0002A034093290383E080931905DBC1409194
:104000002703509128032417350709F0D3C1909353
:104010002A038093290383E080931905CBC1409143
:10402000290350912A032417350709F0C3C1809151
:104030006903882309F4BEC181E0809319059F5F5D
:1040400090931F05B7C1823009F4B4C1A70196014E
:10405000C501B4010E943A398823B1F020E030E074
:1040600040E85FE3C701B6010E943A3981110CC0F4
:1040700081E08093180592E09093190594E0909365
:1040800051038093340596C180919A0490919B04CA
:10409000A0919C04B0919D040197A105B10509F080
:1040A00089C1E6CF80911D05813009F076C02917BE
:1040B00051F0913041F410921E0583E080931D056C
:1040C0009093510377C1923039F410921E0590936A
:1040D0001D05109234056EC180911E05813009F4D2
:1040E00069C12091330330913403823009F041C01B
:1040F00080912503909126032817390761F4809158
:1041000023039091240390932A038093290383E04F
:1041100080931E054FC14091210350912203241723
:10412000350741F490932A038093290383E0809319
:104130001E0540C180912703909128032817390755
:1041400041F450932A034093290383E080931E0592
:1041500031C140912303509124032417350709F0FE
:1041600029C190932A038093290383E080931E053D
:1041700021C14091290350912A032417350709F0E2
:1041800019C180916903882309F414C181E08093E7
:104190001E059F5F90931F050DC1823009F40AC16F
:1041A000A7019601C501B4010E943A398823B1F0F4
:1041B00020E030E040E85FE3C701B6010E943A39F1
:1041C00081110CC081E080931D0592E090931E0543
:1041D00093E09093510380933405ECC080919A044E
:1041E00090919B04A0919C04B0919D040197A1051E
:1041F000B10509F0DFC0E6CF80911605813009F0E6
:10420000B9C0C0901B03D0901C03E0901D03F09038
:104210001E03C0912903D0912A0384E68C9F80015C
:104220008D9F100D1124B801645F714080E090E013
:104230000E94D7392B013C019B01AC01C701B6019B
:104240000E94013B87FD10C0B8016C507E4F80E09A
:1042500090E00E94D7399B01AC01C701B6010E94D2
:104260003A3918160CF092C0A0902103B0902203A6
:104270008091230390912403CA15DB0571F514E6A0
:10428000189FB001199F700D1124072E000C880B88
:10429000990B0E94D9399B01AC01C701B6010E945C
:1042A0003A3987FD13C01C9FB0011D9F700D11246A
:1042B000072E000C880B990B0E94D9399B01AC0189
:1042C000C701B6010E94013B18168CF584E080936B
:1042D000510382E0809316056DC0C817D90771F5A8
:1042E00014E61C9FB0011D9F700D1124072E000CB9
:1042F000880B990B0E94D9399B01AC01C701B6010B
:104300000E943A3987FD13C01A9DB0011B9D700DA4
:104310001124072E000C880B990B0E94D9399B01A0
:10432000AC01C701B6010E94013B18167CF683E080
:104330008093510382E0809316053CC020912503B1
:10434000309126038091270390912803C217D30749
:1043500039F424E6289FB001299F700D1124D9CF8C
:10436000C817D90759F484E68C9FB0018D9F700D52
:1043700011249ECF81E0809316051CC0A3019201F9
:10438000C701B6010E94013B87FD14C0B8016C5003
:104390007E4F80E090E00E94D7399B01AC01C701BD
:1043A000B6010E943A3918162CF081E0809351032F
:1043B00080931605DF91CF911F910F91FF90EF90A1
:1043C000DF90CF90BF90AF909F908F907F906F9035
:1043D0005F904F9008951092D5041092E2041092CD
:1043E00016041092170410921804109219041092D7
:1043F000E30481E08093D60410921A0410921B0407
:1044000010921C0410921D048093D70410921E0475
:1044100010921F0410922004109221041092E404C0
:104420001092220410922304109224041092250466
:10443000109225051092260510928A0410928B0482
:1044400010928C0410928D0410926C0310925203FF
:104450001092170510921C0510921A0510921B0558
:10446000109218051092190510921D0510921E0544
:10447000109216051092140510921505109234052D
:1044800010921F05109220051092510310922A03DA
:104490001092290310922105109222051092130503
:1044A00010926B0310924F03109250031092FF0270
:1044B00010920003109201031092020310926A03FB
:1044C00010924E0308952F923F924F925F926F92F7
:1044D0007F928F929F92AF92BF92CF92DF92EF9294
:1044E000FF920F931F93CF93DF93CDB7DEB728973B
:1044F0000FB6F894DEBF0FBECDBFE091D50460913A
:104500000F03709110038091110390911203209179
:104510000B0330910C0340910D0350910E03F09169
:104520002505F11104C081E08093250554C011E0F8
:10453000E13009F010E00E94743820E030E040E003
:104540005FE30E940C3B20912605223031F023309E
:1045500059F0213009F043C03EC080915C038111C5
:104560004DC010926C0337C020915C032223C9F028
:1045700020918A0430918B0440918C0450918D04D9
:104580000E94733820E030E04AE753E40E94013B88
:1045900087FD1FC082E08093260581E080936C0335
:1045A0002DC020918A0430918B0440918C0450914D
:1045B0008D040E94733820E030E048E452E40E9409
:1045C000013B87FD06C081E080932605809352035E
:1045D00015C0111113C084E0809326050FC011236C
:1045E00069F023E02093260560938A0470938B047E
:1045F00080938C0490938D041092520360916C030D
:1046000070E080E090E00E94D7396093FB027093E5
:10461000FC028093FD029093FE028091E20480935D
:1046200069034091650521E030E0413011F020E060
:1046300030E080916F0390E02817390741F031E0B6
:1046400020E0433009F430E0832F922F02C080E055
:1046500090E04091660561E070E0413011F060E06B
:1046600070E02091700330E06217730739F0433037
:1046700029F0892B99F001E010E004C0892BE1F0CA
:1046800000E010E010929A0410929B0410929C0497
:1046900010929D040E949119012B71F081E090E02D
:1046A000A0E0B0E080939A0490939B04A0939C04B4
:1046B000B0939D040E94911980916F0380936505CA
:1046C000809170038093660530905103809146037A
:1046D00095E039120CC0853051F091E080E02091D6
:1046E0004C032D3109F490E0092F182F02C000E08F
:1046F00010E02091290330912A03A4E6B0E00E9443
:104700009A3B4B015C0140901B0350901C0360904E
:104710001D0370901E030E94D93969837A838B83AD
:104720009C839B01AC01C301B2010E9473386B01F1
:104730007C0120E030E0A9010E943A3987FF1EC0C9
:1047400020E030EA4CE057E4C301B2010E94743823
:1047500029813A814B815C810E9473384B015C0155
:1047600020E030EA4CE856E40E94013B18161CF4A5
:10477000C701B6011BC0C501B4011CC020E030EA6E
:104780004CE856E4C701B6010E94013B181684F4B8
:10479000C501B401605673478F4F9F4F0E94D939AE
:1047A0009B01AC01C301B2010E9473389F7703C023
:1047B000C701B601905820E030EA4CE856E40E9468
:1047C0003E396B017C012090E30421100DC08091E3
:1047D000D604811109C020911A0430911B04409124
:1047E0001C0450911D0403C020E030E0A901C70162
:1047F000B6010E9473382B013C0121100DC080913D
:10480000D704811109C060911E0470911F0480912A
:1048100020049091210403C060E070E0CB01A70167
:1048200096010E94743869837A838B839C8380917C
:10483000160490911704A0911804B09119048D8367
:104840009E83AF83B8872AE037ED43EA5BE3C30179
:10485000B2010E940C3B4B015C0120E030E040E4DF
:1048600050E4C701B6010E940C3B9B01AC01C5019D
:10487000B4010E9474384B015C0126EA3BE944E430
:104880005BE369817A818B819C810E940C3B9B0157
:10489000AC01C501B4010E9474382D813E814F8165
:1048A00058850E9473384B015C0120E030E0A9017B
:1048B0000E94013B18168CF420E030E040E250E406
:1048C000C501B4010E94013B87FD17C0812C912CCA
:1048D00090E2A92E90E4B92E10C020E030E040E232
:1048E00050ECC501B4010E94013B87FF06C0812C3A
:1048F000912C80E2A82E80ECB82EA50194016D8148
:104900007E818F8198850E9474384B015C01012B58
:1049100049F01092FF0210920003109201031092CE
:1049200002030CC08FEF830D823098F38092FF0258
:1049300090920003A0920103B0920203C701B60156
:104940009F7729E33EE843EE5CE30E943A3918166C
:1049500074F0809113058F5F853618F480931305EA
:104960000AC01092130581E080936B0304C010927B
:10497000130510926B038091E40410915103882376
:1049800019F010934E0314C020E030E0A9016091AB
:1049900022047091230480912404909125040E94A4
:1049A000013B181614F483E001C084E080934E03A9
:1049B000222089F010921A0410921B0410921C04F9
:1049C00010921D0410921E0410921F0410922004D5
:1049D0001092210414C040921A0450921B04609259
:1049E0001C0470921D0489819A81AB81BC818093E3
:1049F0001E0490931F04A0932004B093210480917F
:104A00004E03843029F481E080934F0382E00EC08E
:104A1000833029F482E080934F0381E007C0813026
:104A200019F0823009F085E080934F0380935003A2
:104A300080916B0380936A031093D5048093E20402
:104A40008092160490921704A0921804B092190450
:104A50008093E3041092D6041092D7048093E40468
:104A60008091FF0290910003A0910103B091020395
:104A70008093220490932304A0932404B0932504EC
:104A800028960FB6F894DEBF0FBECDBFDF91CF9151
:104A90001F910F91FF90EF90DF90CF90BF90AF905C
:104AA0009F908F907F906F905F904F903F902F904E
:104AB000089520E030E040E85FEB60918E03709154
:104AC0008F0380919003909191030E943A3988233B
:104AD00061F080E090E0A0E8BFEB80938E039093BC
:104AE0008F03A0939003B093910382E00E94CA00C9
:104AF000809371038091EB04853018F48F5F80936D
:104B0000EB048091EC04823318F48F5F8093EC0403
:104B10008091E90481110AC081E08093E9048093C7
:104B2000EA041092EB041092EC041CC0C4D50E945D
:104B300035020E94E8038091EB04853069F40E94FD
:104B4000E7090E94D7000E945D0920D15CD157D2AD
:104B5000BADC0E9412125CD48091EC04823311F40E
:104B60000E9406018091EB04853011F41092EB0451
:104B70008091EC04823311F41092EC0460913903BB
:104B800070E085E00E94273360913A0370E086E090
:104B90000E94273360913B0370E089E00E94273335
:104BA00060913C0370E08AE00E94273360915803D3
:104BB00083E00E94C300609157038BE00C94C30014
:104BC000CF92DF92EF92FF92CF9384E090E012D5E4
:104BD0001092600510925F058BECEFEBF2E0DF01C5
:104BE0001D928A95E9F7EAE8F3E085ED91E0DF01AF
:104BF0009C011D9221503040E1F7C1E0C09338057F
:104C000080E090E0A0E8BFEB84839583A683B78320
:104C1000C12CD12C7601C394C082D182E282F3826E
:104C200060E082E00E94BC000E942A020E94E10330
:104C30000E940A1261E085E00E94AD3361E086E0E7
:104C40000E94AD3361E089E00E94AD3361E08AE00B
:104C50000E94AD33C0933705C092AA04D092AB0432
:104C6000E092AC04F092AD0461E083E00E94BC00ED
:104C7000C0933605C092A604D092A704E092A8047F
:104C8000F092A90461E08BE00E94BC00E1E6F5E04F
:104C9000C087C18783E08483828380838583838305
:104CA0008183C683C7831092EB041092EC041092A8
:104CB000E9041092EA04E1D40E9421020E94E70272
:104CC0000E94D1090E94D2000E94580956D06AD091
:104CD0005FD181DB0E94271183D3CF91FF90EF90AA
:104CE000DF90CF900C94DB0080918A0390918B032E
:104CF000A0918C03B0918D030197A105B10561F4DA
:104D000082E090E0A0E0B0E080938A0390938B0370
:104D1000A0938C03B0938D038091AA049091AB046F
:104D2000A091AC04B091AD040197A105B10561F467
:104D300082E090E0A0E0B0E08093AA049093AB04FE
:104D4000A093AC04B093AD048091A6049091A70405
:104D5000A091A804B091A9040197A105B10561F43F
:104D600082E090E0A0E0B0E08093A6049093A704D6
:104D7000A093A804B093A904089510923003109250
:104D80002F03109232031092310308956FE273E003
:104D90008CE191E00E94B93161E373E08DE191E033
:104DA0000C94F2311092B7041092B6041092AF0432
:104DB0001092AE041092B9041092B8041092B1048B
:104DC0001092B0041092BB041092BA041092B30473
:104DD0001092B2041092BD041092BC041092B5045B
:104DE0001092B4041092BF041092BE041092C10439
:104DF0001092C00410922C0310922B0310922E03D9
:104E000010922D0308954F925F926F927F928F922E
:104E10009F92AF92BF92CF92DF92EF92FF920F9349
:104E20001F93CF93DF93A0902F03B09030038EEAAF
:104E3000882E84E0982ED4018D919C91E501C81BA9
:104E4000D90B96EBC92E94E0D92EF6018081918181
:104E5000C80FD91FCE010D2E000CAA0BBB0BBC0135
:104E6000CD012EE0660F771F881F991F2A95D1F775
:104E70000E94D93920E030E040E857E30E940C3B23
:104E800020E030E048EC51E40E943E390E94AB390A
:104E900070932C0360932B03009131031091320324
:104EA00038EBE32E34E0F32ED7018D919C9138013D
:104EB000681A790A40EC442E44E0542EF2018081B5
:104EC0009181680E791EC301072C000CAA0BBB0B45
:104ED000BC01CD015EE0660F771F881F991F5A95B0
:104EE000D1F70E94D93920E030E040E857E30E9432
:104EF0000C3B20E030E048EC51E40E943E390E9437
:104F0000AB3970932E0360932D03E0EBF4E08081C6
:104F10009181D4018D939C93A2EBB4E08D919C91EF
:104F2000119791838083E4EBF4E0808191818D93EC
:104F30009C93B182A082F601D183C083EAEBF4E0B6
:104F400080819181D7018D939C93ACEBB4E08D91DE
:104F50009C91119791838083EEEBF4E080819181A5
:104F60008D939C9311830083F20171826082DF91A3
:104F7000CF911F910F91FF90EF90DF90CF90BF9056
:104F8000AF909F908F907F906F905F904F9008951B
:104F90001092290510922B0510922A051092CD042B
:104FA0001092CC041092CB041092CA0410922705E0
:104FB0001092280510928E0410928F041092900483
:104FC00010929104109235051092530310926D03C4
:104FD00010926E0310929E0410929F041092A004EF
:104FE0001092A10410926F031092A2041092A304D5
:104FF0001092A4041092A504109270030895CF9209
:10500000DF92EF92FF92C0900F03D0901003E090D8
:105010001103F0901203A701960160910B037091A8
:105020000C0380910D0390910E030E94013B87FDBC
:1050300009C060910B0370910C0380910D03909156
:105040000E030DC0C701B6010CD38111F2CF6091E0
:105050000F0370911003809111039091120320911E
:105060002B05211103C021E020932B052091CA04B8
:105070003091CB042F3F41E0340730F42F5F3F4F96
:105080003093CB042093CA042091CC043091CD04FA
:105090002F3F4FE1340730F42F5F3F4F3093CD0463
:1050A0002093CC0420912705211108C081E0809332
:1050B00027058093280510922B05B0C020912B0561
:1050C0002130A9F4C0909E04D0909F04E090A004E9
:1050D000F090A1042FEFC21AD20AE20AF20AC0929B
:1050E0009E04D0929F04E092A004F092A10420912B
:1050F0002905233059F1C090A204D090A304E09078
:10510000A404F090A504243028F4213071F1223059
:1051100039F06FC0243069F1253009F447C069C007
:105120004091CA045091CB044530510508F411C197
:1051300034E03093290560938E0470938F0480933C
:105140009004909391042093530303C180917103C1
:10515000882309F4FEC081E080936D0382E0809390
:1051600029051092CB041092CA0485E08093530362
:10517000F0C09B01AC0160918E0470918F0480910E
:105180009004909191040E94733820E030E046E151
:1051900053E40E94013B18160CF0DBC085E08093BD
:1051A00029051092CB041092CA04E0CF80917103BC
:1051B000882329F18091CA049091CB0480399140D1
:1051C00008F4C7C01092350586E080932905109237
:1051D000CD041092CC0440912B0350912C032091CC
:1051E0002D0330912E034217530708F084C087E047
:1051F00067C0209135052223A9F010922A0510924C
:105200006D034FEFC41AD40AE40AF40AC092A20450
:10521000D092A304E092A404F092A50483E08093CA
:10522000290597C02091CC043091CD0428353B410D
:1052300058F010922A0581E08093290595E090931B
:10524000530380936E0385C020912A05233009F40F
:1052500080C038F430916A03213051F0223041F09F
:105260005FC02530A9F1C0F0263009F44CC058C009
:10527000332309F46EC08091CA049091CB04059742
:1052800008F467C083E080932A0585E08093530388
:1052900081E0809335055DC020918E0430918F04AC
:1052A00040919004509191040E94733820E030E0C6
:1052B00048E452E40E94013B18160CF04AC082E018
:1052C00080932A051092CB041092CA0485E14ECF38
:1052D00020918E0430918F0440919004509191045C
:1052E0000E94733820E030E048E452E40E94013B21
:1052F00018167CF581E080932A051092CB04109259
:10530000CA0484E133CF20916A03222311F1209152
:10531000CA043091CB0425303105D8F024E00CC00C
:1053200020916A032223A9F02091CA043091CB0472
:105330002530310570F025E020932A0521E02093E7
:10534000530360938E0470938F0480939004909322
:10535000910480912B05813011F410922B058091DE
:105360009E0490919F04A091A004B091A104009785
:10537000A105B10591F021E030916F03311120E0DA
:1053800020936F030197A109B10980939E04909324
:105390009F04A093A004B093A1048091A2049091D3
:1053A000A304A091A404B091A5040097A105B105A0
:1053B00091F021E030917003311120E020937003CF
:1053C0000197A109B1098093A2049093A304A0932B
:1053D000A404B093A504FF90EF90DF90CF900895C0
:1053E00081E08093D0048FE692E1A3E8BAE3809352
:1053F0000E0490930F04A0931004B0931104109224
:10540000390310923A0310923B0310923C03089523
:105410004F925F926F927F92AF92BF92CF92DF9244
:10542000EF92FF920F931F93CF93DF93C090FF02F1
:10543000D0900003E0900103F0900203E894F7F8A5
:1054400080914E038150AA24A394823008F0A12CAD
:1054500081E0BA2CB82669F48091D004811109C08A
:1054600040900E0450900F0460901004709011044E
:1054700008C09FE6492E92E1592E93E8692E9AE3DF
:10548000792E2FE632E143E85AE3C701B6010E94C4
:1054900074389B01AC01C301B2010E9474388B01C6
:1054A000D82FC92F20E030E040E050E4AA2091F04E
:1054B0000E94013B1816A4F020E030E0A901B801D9
:1054C0008D2F9C2F0E943A3987FD10C06801ED2E68
:1054D000FC2E0FC0C701B6010E94013B18164CF408
:1054E000C12CD12CE12C80E4F82E03C0C12CD12C8E
:1054F000760120E030E04CEF52E4C701B6010E9493
:105500000C3B0E94AB3980915003823019F4109209
:1055100039030EC0813019F46093390304C085301B
:1055200029F41092390310923A0304C060933903AE
:1055300060933A0380914F03823019F410923B0339
:105540000EC0813019F460933B0304C0853029F408
:1055500010923B0310923C0304C060933B036093A2
:105560003C031092D004BB2069F08FE692E1A3E8DF
:10557000BAE380930E0490930F04A0931004B093A9
:1055800011040BC0A8016D2F7C2F40930E04509383
:105590000F046093100470931104DF91CF911F9159
:1055A0000F91FF90EF90DF90CF90BF90AF907F90E2
:1055B0006F905F904F90089560E070E080E89FE703
:1055C000089560E070E080E89FE7089560E070E093
:1055D00080E89FEF089560E070E080E89FEF089515
:1055E00060E070E080EC9FEF089560E070E080EC98
:1055F0009FEF0895F5DF60937705709378058093AA
:10560000790590937A05F1DF60936B0570936C05D3
:1056100080936D0590936E05CFDF60937305709353
:1056200074058093750590937605CBDF60936F05C5
:10563000709370058093710590937205C7DF609336
:105640007B0570937C0580937D0590937E05C3DF79
:1056500060937F0570938005809381059093820508
:105660000895CF93C1E09B01AC010E943A398111AA
:1056700001C0C0E08C2FCF9108951092E6048EE017
:1056800091E09093C3048093C20481E080932E053F
:1056900080932F0510921B0310921C0310921D0380
:1056A00010921E0310921703109218031092190300
:1056B00010921A0308952F923F924F925F926F9229
:1056C0007F928F929F92AF92BF92CF92DF92EF9292
:1056D000FF920F931F93CF93DF9300D01F92CDB70C
:1056E000DEB72091E6042B8380911F039091200365
:1056F0009A8389838091C2049091C304E981FA81DD
:10570000E81BF90BCF01F7FF09C08115F0E89F07EF
:1057100039F022273327281B390B04C09F0102C010
:105720002FEF3FE711E02536310534F410E048E66D
:10573000A42EBB24B39411C097FF04C0AA24A39441
:10574000B12C04C028E6A22EBB24B3948091690535
:10575000813019F081E080932E05109369058091C6
:105760002E05882369F0B50180E090E00E94D739CA
:1057700060936E0470936F0480937004909371042F
:1057800020910703309108034091090350910A03C7
:1057900060910303709104038091050390910603C7
:1057A0000E94733820E030E04AE753E40E943E391B
:1057B0002FE632E143E85AE30E940C3B21EE3EE241
:1057C00045E652E40E940C3B20916E0430916F0438
:1057D00040917004509171040E9474386B017C01F7
:1057E000112339F080916A05813019F081E08093AE
:1057F0002F0510936A0580912F05882369F0B50164
:1058000080E090E00E94D739609372047093730433
:10581000809374049093750420E030E040EC5FE3E3
:105820006091720470917304809174049091750476
:105830000E940C3B4B015C012AE939E949E95FE32D
:105840000E947438A50194010E943E392B013C014D
:1058500029813A81B901330F880B990B0E94D939FC
:10586000A70196010E947338A30192010E940C3B8C
:10587000A70196010E947438D62EC72E182F092F23
:1058800020E030E040EA50E40E9473380E94143A6D
:105890000E94A639693671405CF020E030E044EBAC
:1058A00053E46D2D7C2D812F902F0E9473381AC0E8
:1058B00020E030E040EA50E46D2D7C2D812F902FC8
:1058C0000E9474380E94143A0E94A63977FF0EC0D5
:1058D00020E030E044EB53E46D2D7C2D812F902FA0
:1058E0000E947438D62EC72E182F092F20E030E0E2
:1058F00044EB53E46D2D7C2D812F902F0E94013BB2
:1059000018160CF43EC020E030E0A9016D2D7C2D6E
:10591000812F902F0E943A3987FDA2C08B81882366
:1059200049F0F0901303E090140330901503209099
:10593000160302C07601180120E030E044EB53E486
:105940006F2D7E2D832D922D0E94013B18162CF475
:1059500080E090E0A4EBB3E421C020E030E0A901B6
:105960006F2D7E2D832D922D0E943A3987FF12C014
:1059700010921703109218031092190310921A0331
:1059800015C0F12CE12C84EB382E93E4292EFB81F9
:10599000F111C7CF8F2D9E2DA32DB22D809317030C
:1059A00090931803A0931903B0931A0320E030E0FA
:1059B00048EC52E460911703709118038091190329
:1059C00090911A030E940C3B60931B0370931C037D
:1059D00080931D0390931E0380915E038093E604E1
:1059E000E981FA81F093C304E093C20410922E057A
:1059F0008D2D9C2DA12FB02F80936E0490936F045A
:105A0000A0937004B093710410922F05A30192012A
:105A100060E070E080E89FE30E947338A501940184
:105A20000E940C3B6093720470937304809374041F
:105A3000909375040F900F900F90DF91CF911F916D
:105A40000F91FF90EF90DF90CF90BF90AF909F901D
:105A50008F907F906F905F904F903F902F90089520
:105A6000F12CE12C312C212C92CF413208F043C093
:105A70009091B1019111FCCF91E09093B1012093ED
:105A8000AF012FEF2093440110928901240F20933E
:105A900088019093B0019091B001880F892B809379
:105AA000B0018091AE01813061F41092AE0180911D
:105AB000B0018093BB008091BC0083FDF8CF85ECE2
:105AC00001C085EE8093BC008091B1018130E1F38B
:105AD00080918901841710F4409189012AE831E00E
