:1000000063C00000FEC0000029C1000084C00000E1
:1000100082C0000080C000007EC000002BC700002E
:100020007AC0000078C0000076C0000074C00000F4
:1000300072C000007BC700006EC000006CC00000F2
:100040003AC1000068C0000013C4000043C40000AF
:1000500062C0000060C000005EC000005CC0000024
:100060005AC0000058C00000000000080002010053
:100070000003040700000000000000000102040863
:100080001020408001020408102001020408102002
:10009000040404040404040402020202020203032E
:1000A00003030303000000002300260029000000D2
:1000B0000000250028002B0000000000240027007D
:1000C0002A0002008F04090511241FBECFEFD8E0DB
:1000D000DEBFCDBF11E0A0E0B1E0EEE2F5E102C08D
:1000E00005900D92AC33B107D9F721E0ACE3B1E054
:1000F00001C01D92AC3FB207E1F710E0C8ECD0E0C0
:1001000004C02297FE010E94820AC43CD107C9F7AD
:1001100071D70C94950A74CF66EF71E08AE091E094
:1001200011D086EF91E04CC01092FB011092FA01C1
:100130001092F6011092F7011092F8011092F90155
:10014000089508950F931F93CF93DF93EC018B01D4
:1001500080910B01811110920B0161E0888163D1C4
:1001600060E0888199D183E090E0EFD061E0888100
:1001700093D185E090E0E9D060E088818DD160E0A6
:10018000888151D128EE33E040E050E061E0888181
:10019000B8D10E9437092EE53BE44BEE51E4CED7AF
:1001A00020E030E040E05FE30E94ED09F801608369
:1001B000718382839383DF91CF911F910F91089573
:1001C000CF93DF93EC0180910C01882351F026E05E
:1001D00040E855E260E070E089E491E0E9D21092F5
:1001E0000C0160E171E089E491E060D448815981BB
:1001F0006A817B8122E030E089E491E0DF91CF9158
:10020000F6C51F920F920FB60F9211242F933F93B2
:100210004F935F936F937F938F939F93AF93BF930E
:10022000EF93FF9380913C0190913D01892B29F040
:10023000E0913C01F0913D010995FF91EF91BF9153
:10024000AF919F918F917F916F915F914F913F916E
:100250002F910F900FBE0F901F9018951F920F9225
:100260000FB60F9211242F933F934F935F936F9389
:100270007F938F939F93AF93BF93EF93FF9380915F
:100280003E0190913F01892B29F0E0913E01F091D0
:100290003F010995FF91EF91BF91AF919F918F9190
:1002A0007F916F915F914F913F912F910F900FBE72
:1002B0000F901F9018951F920F920FB60F92112456
:1002C0002F933F938F939F93AF93BF93809141015F
:1002D00090914201A0914301B091440130914001BD
:1002E00023E0230F2D3720F40196A11DB11D05C079
:1002F00026E8230F0296A11DB11D20934001809393
:10030000410190934201A0934301B0934401809135
:10031000450190914601A0914701B0914801019695
:10032000A11DB11D8093450190934601A093470103
:10033000B0934801BF91AF919F918F913F912F91C1
:100340000F900FBE0F901F901895019739F0880FEE
:10035000991F880F991F02970197F1F708957894D4
:1003600084B5826084BD84B5816084BD85B58260BA
:1003700085BD85B5816085BDEEE6F0E08081816058
:100380008083E1E8F0E01082808182608083808158
:1003900081608083E0E8F0E0808181608083E1EB30
:1003A000F0E0808184608083E0EBF0E08081816018
:1003B0008083EAE7F0E080818460808380818260CE
:1003C00080838081816080838081806880831092B7
:1003D000C1000895833081F028F4813099F0823093
:1003E000A1F008958730A9F08830B9F08430D1F4B5
:1003F000809180008F7D03C0809180008F778093F3
:100400008000089584B58F7702C084B58F7D84BD48
:1004100008958091B0008F7703C08091B0008F7DE8
:100420008093B0000895CF93DF9390E0FC01E458EF
:10043000FF4F2491FC01E057FF4F8491882349F13D
:1004400090E0880F991FFC01E854FF4FA591B491EB
:1004500082559F4FFC01C591D4919FB7611108C08F
:10046000F8948C91209582238C93888182230AC0F2
:10047000623051F4F8948C91322F309583238C9311
:100480008881822B888304C0F8948C91822B8C9372
:100490009FBFDF91CF9108950F931F93CF93DF9369
:1004A0001F92CDB7DEB7282F30E0F901E859FF4F92
:1004B0008491F901E458FF4F1491F901E057FF4F7F
:1004C00004910023C1F0882319F0698383DF6981D7
:1004D000E02FF0E0EE0FFF1FE255FF4FA591B49122
:1004E0009FB7F8948C91611103C01095812301C0CE
:1004F000812B8C939FBF0F90DF91CF911F910F9114
:100500000895CF92DF92EF92FF920F931F93CF93B4
:10051000DF9390E0FC01E458FF4FD491FC01E057D9
:10052000FF4F7491611102C0C0E001C0CD2FDA010C
:10053000C901BF70672F70E0660F771F6C557F4F42
:1005400000E010E09801FB01E590F490F701408194
:100550004D234C131EC0680179014FEFC41AD40A11
:10056000E40AF40A081719072A073B0709F441C0EF
:1005700097018601E8CF68017901FFEFCF1ADF0A02
:10058000EF0AFF0A081719072A073B0791F197019D
:100590008601FB01E590F490F70140814D234C1357
:1005A000EACF801B910BA20BB30B20E030E0A90136
:1005B000FB01E590F490F701F080FD22FC120AC0E7
:1005C000281739074A075B07A1F02F5F3F4F4F4FAE
:1005D0005F4FEECFA8E1B0E089D7605F7F4F8F4FCC
:1005E0009F4F24E096958795779567952A95D1F743
:1005F00003C060E070E0CB01DF91CF911F910F91BC
:10060000FF90EF90DF90CF900895FC01818D228DB7
:1006100090E0805C9F4F821B91098F73992708950A
:10062000FC01918D828D981731F0828DE80FF11DBC
:10063000858D90E008958FEF9FEF0895FC01918DD7
:10064000828D981761F0828DDF01A80FB11D5D9634
:100650008C91928D9F5F9F73928F90E008958FEFA2
:100660009FEF0895FC01848DDF01A80FB11DA35AEF
:10067000BF4F2C91848D90E001968F739927848FC2
:10068000A689B7892C93A089B1898C9180648C93B9
:10069000938D848D981306C00288F389E02D8081A4
:1006A0008F7D80830895CF93DF93EC01888D88231D
:1006B000C1F0EA89FB89808185FD05C0A889B989D7
:1006C0008C9186FD0EC00FB607FCF5CF808185FFAB
:1006D000F2CFA889B9898C9185FFEDCFCE01C2DF19
:1006E000E8CFDF91CF910895CF92DF92FF920F93E1
:1006F0001F93CF93DF931F92CDB7DEB76C01DC0160
:100700005B969C915B975C968C915C97981307C065
:100710005096ED91FC915197808185FD31C0F60195
:10072000038D10E00F5F1F4F0F731127F02EF6019E
:10073000848DF81210C00FB607FCF9CFD601509681
:10074000ED91FC915197808185FFF1CFC6016983BE
:1007500089DF6981ECCF838DE80FF11DE35AFF4FEC
:100760006083D6015B960C935B975296ED91FC915A
:10077000539780818062808381E058968C930DC06E
:10078000D6015696ED91FC91579760835096ED9166
:10079000FC91519780818064808381E090E00F908C
:1007A000DF91CF911F910F91FF90DF90CF9008952F
:1007B000BF92CF92DF92EF92FF92CF93DF93EC0143
:1007C0006A017B01B22EE889F98982E080834115B4
:1007D00081EE58076105710599F060E079E08DE3DD
:1007E00090E0A701960160D62150310941095109D5
:1007F0005695479537952795211580E1380790F054
:10080000E889F989108260E874E88EE190E0A70138
:1008100096014AD62150310941095109569547950B
:1008200037952795EC85FD853083EE85FF85208300
:10083000188EEC89FD89B082EA89FB89808180610C
:100840008083EA89FB89808188608083EA89FB89CB
:10085000808180688083EA89FB8980818F7D8083A5
:10086000DF91CF91FF90EF90DF90CF90BF900895F0
:100870001F920F920FB60F9211242F938F939F9375
:10088000EF93FF93E0915901F0915A018081E0913B
:100890005F01F091600182FD12C090818091620140
:1008A0008F5F8F7320916301821751F0E091620195
:1008B000F0E0E75BFE4F958F8093620101C080817D
:1008C000FF91EF919F918F912F910F900FBE0F90FD
:1008D0001F9018951F920F920FB60F9211242F930D
:1008E0003F934F935F936F937F938F939F93AF93B8
:1008F000BF93EF93FF9389E491E0B4DEFF91EF9112
:10090000BF91AF919F918F917F916F915F914F9127
:100910003F912F910F900FBE0F901F90189510923E
:100920004C0110924B0188EE93E0A0E0B0E0809380
:100930004D0190934E01A0934F01B09350018CE173
:1009400091E090934A018093490185EC90E0909367
:1009500056018093550184EC90E090935801809368
:10096000570180EC90E090935A018093590181ECFB
:1009700090E090935C0180935B0182EC90E0909317
:100980005E0180935D0186EC90E09093600180931E
:100990005F01109262011092630110926401109243
:1009A00065010895AF92BF92CF92DF92EF92FF92CE
:1009B0000F931F93CF93DF936C017B01C0E0D0E0D6
:1009C00000E010E0F601EC0FFD1F4AE050E062810C
:1009D000C70130D15C016EE2C70169D08A0D9B1D51
:1009E000080F191F2196C330D10561F74AE050E086
:1009F000F6016581C7011ED1800F911FDF91CF9154
:100A00001F910F91FF90EF90DF90CF90BF90AF902C
:100A100008958CE291E09093E7018093E6011092B3
:100A2000E8011092E9011092EA011092EB01089599
:100A3000CF92DF92EF92FF920F931F93CF93DF93AA
:100A40006C017A01EB01E60EF71E00E010E0CE1516
:100A5000DF0561F06991D601ED91FC910190F08183
:100A6000E02DC6010995080F191FF1CFC801DF91CC
:100A7000CF911F910F91FF90EF90DF90CF9008954D
:100A80006115710581F0DB010D900020E9F7AD01E2
:100A900041505109461B570BDC01ED91FC9102803E
:100AA000F381E02D099480E090E00895E9CFDC0126
:100AB000ED91FC910190F081E02D09940F931F932B
:100AC000CF93DF93EC016DE0F2DF8C016AE0CE01A1
:100AD000EEDF800F911FDF91CF911F910F9108954D
:100AE0008F929F92AF92BF92CF92DF92EF92FF923E
:100AF0000F931F93CF93DF93CDB7DEB7A1970FB6B8
:100B0000F894DEBF0FBECDBF7C01C42EE52FCB0114
:100B1000D22E19A221E02D1510F02AE0D22E8E013E
:100B20000F5D1F4F8D2C912CA12CB12C6C2D7E2F85
:100B3000A5019401B9D48C2DD29E801911240150A5
:100B400011098A3014F4805D01C0895CF80180834A
:100B5000211531054105510521F0C22EE32FCA01AF
:100B6000E5CFB801C7018CDFA1960FB6F894DEBFC0
:100B70000FBECDBFDF91CF911F910F91FF90EF90EE
:100B8000DF90CF90BF90AF909F908F900895CF92BD
:100B9000DF92EF92FF920F931F93CF93DF93EC01BD
:100BA0006A017B012115310579F4E881F981019011
:100BB000F081E02D642FDF91CF911F910F91FF9075
:100BC000EF90DF90CF9009942A303105D9F477FF68
:100BD00018C06DE26CDF8C0144275527BA014C190F
:100BE0005D096E097F092AE0CE017ADF800F911F2F
:100BF000DF91CF911F910F91FF90EF90DF90CF90F9
:100C000008952AE0B701A601CE01DF91CF911F918F
:100C10000F91FF90EF90DF90CF9062CF21153105BB
:100C200041F4DC01ED91FC910190F081E02D642F05
:100C3000099456CF9A01462F50E060E070E0EECF65
:100C40004F925F926F927F928F929F92AF92BF92DC
:100C5000CF92DF92EF92FF920F931F93CF93DF9388
:100C6000EC016A017B01B22E9A01AB01C701B6010A
:100C700017D4882319F06EE271E024C026013701F1
:100C8000E89477F82FEF3FEF4FE75FE7C301B2013A
:100C900007D481110CC02FEF3FEF4FE75FE7C3018F
:100CA000B20148D218161CF462E371E00BC02FEFBA
:100CB0003FEF4FE75FE4C701B6018BD31816A4F4EA
:100CC00066E371E0CE01DF91CF911F910F91FF900C
:100CD000EF90DF90CF90BF90AF909F908F907F90DC
:100CE0006F905F904F90CCCE2FEF3FEF4FE75FECD0
:100CF000C701B6011FD287FDE3CF20E030E0A90194
:100D0000C701B60117D287FF09C06DE2CE01CFDE61
:100D10008C01F7FAF094F7F8F09402C000E010E0CC
:100D2000A12C60E070E080E09FE3AB1439F020E09C
:100D300030E040E251E402D2A394F7CF9B01AC0132
:100D4000C701B60193D16B017C0165D22B013C0137
:100D50008ED29B01AC01C701B60187D16B017C012A
:100D60002AE0B301A201CE01BBDE080F191FBB2090
:100D700031F06AE371E0CE0183DE080F191F7B2C8E
:100D8000772019F120E030E040E251E4C701B601DC
:100D900024D36B017C013AD24B01AA2497FCA09486
:100DA000BA2C2AE030E0B501A401CE01F0DE080F34
:100DB000191FC501B4015DD29B01AC01C701B60189
:100DC00054D16B017C017A94DBCFC801DF91CF91C4
:100DD0001F910F91FF90EF90DF90CF90BF90AF9059
:100DE0009F908F907F906F905F904F9008950F939A
:100DF0001F93CF93DF93EC0123DF8C01CE015EDEE6
:100E0000800F911FDF91CF911F910F910895813035
:100E100039F018F0823051F0089510926E00089564
:100E200080916F008D7F80936F0008958091700096
:100E30008D7F8093700081E08093B0008091B1003D
:100E4000887F84608093B1001092B3000895CF939F
:100E5000C82F80910D018C1307C0E2ECF0E0849163
:100E60009FEF90930D0101C08FEFD1DF60E08C2FD9
:100E7000CF9112CB1F920F920FB60F9211242F9386
:100E80003F934F935F936F937F938F939F93AF9312
:100E9000BF93EF93FF938091EF019091F001A091A8
:100EA000F101B091F201892B8A2B8B2B51F190919A
:100EB000EC01E091ED01F091EE01808189278083C2
:100EC0008091EF019091F001A091F101B091F201B8
:100ED000181619061A061B06BCF48091EF019091B2
:100EE000F001A091F101B091F2010197A109B109BE
:100EF0008093EF019093F001A093F101B093F20180
:100F000003C080910D01A3DFFF91EF91BF91AF91DD
:100F10009F918F917F916F915F914F913F912F9111
:100F20000F900FBE0F901F90189508951F920F926B
:100F30000FB60F9211242F933F934F935F936F93AC
:100F40007F938F939F93AF93BF93EF93FF938EE124
:100F50009BEF909385008093840032D0FF91EF91B6
:100F6000BF91AF919F918F917F916F915F914F91C1
:100F70003F912F910F900FBE0F901F9018958EE10B
:100F80009BEF9093850080938400AFE6B0E08C9156
:100F90008E7F8C93E0E8F0E080818C7F8083E1E8B5
:100FA000F0E08081877E8083808183608083808180
:100FB0008B7F80838C9181608C93089581E008956C
:100FC0002091F30181E0820F8093F301222349F005
:100FD00081E090E09093F5018093F4012093F30178
:100FE0000895789499D8F8948091F3018150809372
:100FF000F30108950F931F93CF93DF931F92CDB703
:10100000DEB781E08983ABD990DF00910E011091AA
:101010000F01F8011182108287D8B1DF21E0F801B9
:1010200080819181892B09F020E02983789478943C
:101030008981882381F021E0F80180819181892BC9
:1010400009F020E029838981882311F0B7DF01C0EE
:1010500080E08983EDCF75D8F89480E090E00F9020
:10106000DF91CF911F910F9108955058BB27AA2768
:101070000ED075C166D130F06BD120F031F49F3FB6
:1010800011F41EF45BC10EF4E095E7FB51C1E92FAA
:1010900077D180F3BA17620773078407950718F0B2
:1010A00071F49EF58FC10EF4E0950B2EBA2FA02D92
:1010B0000B01B90190010C01CA01A0011124FF2705
:1010C000591B99F0593F50F4503E68F11A16F04000
:1010D000A22F232F342F4427585FF3CF46953795FF
:1010E0002795A795F0405395C9F77EF41F16BA0BC4
:1010F000620B730B840BBAF09150A1F0FF0FBB1F72
:10110000661F771F881FC2F70EC0BA0F621F731FBA
:10111000841F48F4879577956795B795F7959E3F17
:1011200008F0B3CF9395880F08F09927EE0F9795A5
:1011300087950895D9D008F481E008950CD00FC1A7
:1011400007D140F0FED030F021F45F3F19F0F0C03D
:10115000511139C1F3C014D198F39923C9F3552320
:10116000B1F3951B550BBB27AA276217730784079A
:1011700038F09F5F5F4F220F331F441FAA1FA9F350
:1011800033D00E2E3AF0E0E830D091505040E69542
:10119000001CCAF729D0FE2F27D0660F771F881FA3
:1011A000BB1F261737074807AB07B0E809F0BB0B92
:1011B000802DBF01FF2793585F4F2AF09E3F5105B6
:1011C00068F0B6C000C15F3FECF3983EDCF3869553
:1011D00077956795B795F7959F5FC9F7880F911D2C
:1011E0009695879597F90895E1E0660F771F881F18
:1011F000BB1F621773078407BA0720F0621B730BCB
:10120000840BBA0BEE1F88F7E095089504D068941C
:10121000B111D9C00895BCD088F09F5790F0B92F74
:101220009927B751A0F0D1F0660F771F881F991F3B
:101230001AF0BA95C9F712C0B13081F0C3D0B1E04D
:101240000895C0C0672F782F8827B85F39F0B93F5D
:10125000CCF3869577956795B395D9F73EF490953D
:101260008095709561957F4F8F4F9F4F0895E894BB
:1012700009C097FB3EF490958095709561957F4FDE
:101280008F4F9F4F9923A9F0F92F96E9BB2793958C
:10129000F695879577956795B795F111F8CFFAF49C
:1012A000BB0F11F460FF1BC06F5F7F4F8F4F9F4FCD
:1012B00016C0882311F096E911C0772321F09EE82B
:1012C000872F762F05C0662371F096E8862F70E091
:1012D00060E02AF09A95660F771F881FDAF7880F6B
:1012E0009695879597F90895990F0008550FAA0BC1
:1012F000E0E8FEEF16161706E807F907C0F0121629
:101300001306E407F50798F0621B730B840B950B2B
:1013100039F40A2661F0232B242B252B21F4089580
:101320000A2609F4A140A6958FEF811D811D08951D
:1013300097F99F6780E870E060E008959FEF80EC88
:10134000089500240A94161617061806090608952B
:1013500000240A9412161306140605060895092E91
:101360000394000C11F4882352F0BB0F40F4BF2B00
:1013700011F460FF04C06F5F7F4F8F4F9F4F089540
:1013800057FD9058440F551F59F05F3F71F0479536
:10139000880F97FB991F61F09F3F79F0879508951B
:1013A000121613061406551FF2CF4695F1DF08C03A
:1013B000161617061806991FF1CF86957105610557
:1013C00008940895E894BB2766277727CB0197F9FF
:1013D00008958ADF08F48FEF08950BD0C0CFB1DFF6
:1013E00028F0B6DF18F0952309F0A2CFA7CF11247B
:1013F000EACFC6DFA0F3959FD1F3950F50E0551FBC
:10140000629FF001729FBB27F00DB11D639FAA2759
:10141000F00DB11DAA1F649F6627B00DA11D661FA8
:10142000829F2227B00DA11D621F739FB00DA11DC9
:10143000621F839FA00D611D221F749F3327A00D83
:10144000611D231F849F600D211D822F762F6A2F1F
:1014500011249F5750408AF0E1F088234AF0EE0FA4
:10146000FF1FBB1F661F771F881F91505040A9F7B1
:101470009E3F510570F05CCFA6CF5F3FECF3983EE6
:10148000DCF3869577956795B795F795E7959F5F18
:10149000C1F7FE2B880F911D9695879597F90895B2
:1014A00023DF880B990B0895A1E21A2EAA1BBB1B00
:1014B000FD010DC0AA1FBB1FEE1FFF1FA217B30720
:1014C000E407F50720F0A21BB30BE40BF50B661F36
:1014D000771F881F991F1A9469F7609570958095FA
:1014E00090959B01AC01BD01CF0108950FD0A59F40
:1014F000900DB49F900DA49F800D911D112408950F
:10150000EE0FFF1F0590F491E02D0994A29FB0010A
:10151000B39FC001A39F700D811D1124911DB29F27
:0E152000700D811D1124911D0895F894FFCFC8
:10152E000000FC01800001000000070101FFFA012C
:10153E00496E7075743A200000000000740318059F
:10154E0005031E031003530300000000D2046E6156
:0C155E006E00696E66006F7666002E005D
:00000001FF
