:1000000071C000000C94030A0C94300A93C00000E5
:1000100091C000008FC000008DC000000C94810FC3
:1000200089C0000087C0000085C0000083C00000B8
:1000300081C000000C94DD0F7DC000007BC000007B
:100040000C945D0A77C000000C947F0C0C94B10CEA
:1000500071C000006FC000006DC000006BC00000E8
:10006000E3C1000067C00000084AD73B3BCE016EE9
:1000700084BCBFFDC12F3D6C74319ABD56833DDAFF
:100080003D00C77F11BED9E4BB4C3E916BAAAABE0E
:10009000000000803F000000000800020100000393
:1000A0000407000000000000000001020408102006
:1000B00040800102040810200102040810200404FA
:1000C0000404040404040202020202020303030300
:1000D000030300000000250028002B000200DC09BB
:1000E000D60C500D11241FBECFEFD8E0DEBFCDBF20
:1000F00011E0A0E0B1E0E8EEF7E202C005900D9259
:10010000A835B107D9F723E0A8E5B1E001C01D92F9
:10011000A630B207E1F710E0C4EED0E004C02297A9
:10012000FE010E94DF13CE3DD107C9F70E944210A5
:100130000C94F21365CF80E093E00E94A70980E061
:1001400093E00C94E20910920503109204031092BC
:10015000000310920103109202031092030308950A
:1001600008958091B60190E02091B701821B91091A
:1001700008952091B7018091B601281750F4E22F1D
:10018000F0E0E854FE4F808190E02F5F2093B701AC
:1001900008958FEF9FEF0895E091B7018091B60128
:1001A000E81730F4F0E0E854FE4F808190E00895C5
:1001B0008FEF9FEF089508951092450281E080939C
:1001C00043021092420261E082E10E94170B61E05B
:1001D00083E10E94170BE9EBF0E080818E7F808342
:1001E00080818D7F808388E48093B80085E480934C
:1001F000BC000895413208F03FC090914502911132
:10020000FCCF91E090934502209343022FEF20937F
:10021000D80110921D02240F20931C0290934402D7
:1002200090914402880F892B80934402809142026E
:10023000813041F410924202809144028093BB00CD
:1002400085EC01C085EE8093BC0080914502813031
:10025000E1F380911D02841710F440911D022EE1FC
:1002600032E0FB01D9018A2F821B841718F48D918B
:100270008193F9CF842F089580E008950F93413240
:10028000C8F5909145029111FCCF92E09093450200
:10029000009343029FEF9093D80110921D02409368
:1002A0001C02FB016EE172E0DB019A2F961B941792
:1002B00018F491919D93F9CF1092440290914402C9
:1002C000880F892B8093440280914202813041F44F
:1002D00010924202809144028093BB0085EC01C0E1
:1002E00085EE8093BC00222339F080914502823054
:1002F00019F4FBCF81E013C08091D8018F3F71F0DA
:100300008091D801803231F08091D801803321F47E
:1003100083E005C082E003C084E001C080E00F916B
:100320000895613298F420914502243089F4609355
:10033000FA01FC018CEF91E0DC012A2F281B261723
:1003400018F421912D93F9CF80E0089581E008956C
:1003500082E00895CF93DF931F92CDB7DEB7698314
:10036000209192012223D1F020919301203240F07C
:1003700021E030E0FC013383228380E090E014C070
:1003800080919401E82FF0E0EB56FE4F9981908325
:100390008F5F809394018093930104C061E0CE014C
:1003A0000196BFDF81E090E00F90DF91CF9108953B
:1003B000CF92DF92EF92FF920F931F93CF93DF9331
:1003C0007C01CB018A0120919201222389F0EB016B
:1003D0006B01C40ED51ECC15DD0561F06991D70106
:1003E000ED91FC910190F081E02DC7010995F3CFCB
:1003F000642F97DFC801DF91CF911F910F91FF907C
:10040000EF90DF90CF90089585ED8093BC008091B0
:10041000BC0084FDFCCF10924502089585EC8093CA
:10042000BC001092450208951F920F920FB60F92D2
:1004300011242F933F934F935F936F937F938F93E9
:100440009F93AF93BF93EF93FF938091B900887F01
:10045000803609F49CC068F5883209F45BC090F4DA
:10046000803109F454C038F4882309F4F3C088308B
:1004700009F44DC0F2C0883109F44CC0803209F44F
:100480005DC0EBC0803409F468C048F4803309F4DF
:1004900055C0883309F0E1C08093D801A7C08035EA
:1004A00009F44FC0883509F45DC0883409F0D5C01F
:1004B000D3C0883909F4C4C0A8F4883709F467C0E8
:1004C00038F4883609F463C0803709F460C0C5C0C9
:1004D000883809F4B5C0803909F45FC0803809F064
:1004E000BCC05BC0803B09F483C038F4803A09F497
:1004F00066C0883A09F47CC0B0C0803C09F4A4C04E
:10050000883C09F4A1C0883B09F487C0A6C080914B
:10051000440210C090911D0280911C02981770F542
:10052000E0911D0281E08E0F80931D02F0E0E25EFB
:10053000FD4F80818093BB0085EC83C08093D80100
:100540008BC0E0911D0281E08E0F80931D0280918F
:10055000BB00F0E0E25EFD4F808390911D02809130
:100560001C026BC0E0911D0281E08E0F80931D0282
:100570008091BB00F0E0E25EFD4F808380914302FA
:1005800081116AC081E08093420284EA5EC083E008
:10059000809345021092D901CFCF8091D90180324A
:1005A00008F04EC0E091D90181E08E0F8093D9010F
:1005B0008091BB00F0E0E652FE4F8083BDCF80917A
:1005C000D901803230F4E091D901F0E0E652FE4FDB
:1005D00010821ADF6091D90170E0E0913E02F09143
:1005E0003F028AED91E009951092D90117DF35C0DD
:1005F00084E0809345021092FB011092FA01E09191
:100600004002F091410209958091FA01811105C0E3
:1006100081E08093FA011092FC01E091FB0181E0FE
:100620008E0F8093FB01F0E0E450FE4F80818093B9
:10063000BB009091FB018091FA01981708F47CCFE0
:1006400085E88093BC0009C085EC8093BC001092C3
:10065000450203C01092D801D7DEFF91EF91BF9100
:10066000AF919F918F917F916F915F914F913F914A
:100670002F910F900FBE0F901F901895DC01ED91F8
:10068000FC910190F081E02D0994FC01138212820B
:1006900048EE53E060E070E04483558366837783DF
:1006A0008FE191E09183808308951092B7011092B9
:1006B000B60110929401109293017ECD862F4132A3
:1006C00008F040E268EB71E095DD1092B70180938D
:1006D000B601089521E0F2CF81E08093920160930A
:1006E000B501109294011092930108950F93062F73
:1006F00021E04091930165E971E08091B501BEDD93
:100700001092940110929301109292010F9108950A
:1007100061E0ECCFCF93DF93EC0186E0EDE0F1E018
:10072000DE01529601900D928A95E1F786E0E3E1B1
:10073000F1E0DE011C9601900D928A95E1F784E0CC
:1007400090E09A8F898F1CA61BA61DA6DF91CF91E2
:100750000895EF92FF921F93CF93DF931F92CDB72F
:10076000DEB77C01162FFC01638D86E891E049839A
:10077000B3DF612F86E891E0EDDD4981642F86E8E3
:1007800091E0E8DD86E891E0C3DFF701808F0F900C
:10079000DF91CF911F91FF90EF900895EF92FF921C
:1007A0001F93CF93DF931F92CDB7DEB77C01162F37
:1007B000FC01648D86E891E049838EDF612F86E835
:1007C00091E0C8DD4981642F86E891E0C3DD86E8C9
:1007D00091E09EDFF701808F0F90DF91CF911F9105
:1007E000FF90EF900895FC01218D328D233031056B
:1007F00011F0603208F4D2CFACCFCF93DF93EC018D
:10080000898D9A8D83309105B1F440E061E2CE018B
:10081000EADF47E560E2CE01E6DF44E664E2CE01CE
:10082000E2DF40E265E2CE01DEDF40E066E2CE01DB
:10083000DF91CF91D8CF029731F448E063E2CE0147
:1008400088DF47E405C040E063E2CE0182DF47E293
:1008500060E2CE017EDF4CE060E0CE019FDF40E24F
:1008600061E0CE019BDF40E062E0CE01DF91CF91FD
:1008700095CF9F92AF92BF92CF92DF92EF92FF926D
:100880000F931F93CF93DF93EC016B8D86E891E07C
:1008900023DF68EA70E086E891E0F0DE86E891E028
:1008A00037DF888F46E06B8D86E891E013DF4FD607
:1008B0006B018091B60190E02091B701821B9109F4
:1008C00006977CF48BA59CA5892B99F340D66C19CF
:1008D0007D098BA59CA58617970758F781E08DA702
:1008E00026C086E891E045DCA82E86E891E041DC50
:1008F000982E86E891E03DDCC82E86E891E039DC50
:10090000B82E86E891E035DCD82E86E891E031DC1F
:10091000F92CE12CEA28F982E8821B2D00E00C2951
:100920001B830A83982F88278D299D838C83DF91D1
:10093000CF911F910F91FF90EF90DF90CF90BF90DC
:10094000AF909F900895CF92DF92EF92FF920F9316
:100950001F93CF93DF93EC016C8D86E891E0BCDEB2
:10096000898D9A8D039721F469A17AA1606802C0EC
:100970006F8D78A186E891E081DE86E891E0C8DE9F
:10098000888F46E06C8D86E891E0A4DEE0D58B018F
:100990008091B60190E02091B701821B91090697E2
:1009A0007CF48BA59CA5892B99F3D1D5601B710B89
:1009B0008BA59CA58617970758F781E08DA757C090
:1009C000898D9A8D0397C9F486E891E0D2DBC82E11
:1009D00086E891E0CEDBD82E86E891E0CADBE82EEF
:1009E00086E891E0C6DB182F86E891E0C2DBF82E9E
:1009F00086E891E0BEDB082F2BC086E891E0B9DBEA
:100A0000D82E86E891E0B5DBC82E298D3A8D86E890
:100A100091E0232B79F4ADDB182F86E891E0A9DB78
:100A2000E82E86E891E0A5DB082F86E891E0A1DBBF
:100A3000F82E0EC09EDB082F86E891E09ADBF82E98
:100A400086E891E096DB182F86E891E092DBE82EAD
:100A50006C2D70E07D297F836E834E2D50E0512BED
:100A6000598748872F2D30E0302B3B872A87DF912D
:100A7000CF911F910F91FF90EF90DF90CF9008954D
:100A8000CF93DF93EC01F5DECE01DF91CF915BCF09
:100A90004F925F926F927F928F929F92AF92BF928E
:100AA000CF92DF92EF92FF920F931F93CF93DF933A
:100AB00000D000D0CDB7DEB78C01DC014D905D9049
:100AC0006D907C90139714968D909D90AD90BC90F6
:100AD000179718968D919D910D90BC91A02D8983AB
:100AE0009A83AB83BC83A3019201C301B2010E942C
:100AF000C5126B017C01A5019401C501B4010E94DE
:100B0000C5129B01AC01C701B6010E9480106B01A8
:100B10007C0129813A814B815C81CA01B9010E9423
:100B2000C5129B01AC01C701B6010E9480100E9452
:100B30002C136B017C019B01AC01C301B2010E942B
:100B40004A11F8016083718382839383A701960120
:100B5000C501B4010E944A11D80114966D937D938A
:100B60008D939C931797A701960169817A818B8158
:100B70009C810E944A11F801608771878287938760
:100B80000F900F900F900F90DF91CF911F910F91C9
:100B9000FF90EF90DF90CF90BF90AF909F908F909D
:100BA0007F906F905F904F9008951F93CF93DF9346
:100BB0001F92CDB7DEB7162F86E891E049838CDD12
:100BC0004981642F86E891E0C5DB86E891E0A0DDED
:100BD000811112C041E0612F86E891E07BDD9091A8
:100BE000B6018091B701981739F086E891E00F902F
:100BF000DF91CF911F91BDCA8FEF9FEF0F90DF91D3
:100C0000CF911F910895EF92FF920F931F93CF936F
:100C1000DF93EC018B017A016430710521F04230E1
:100C2000510509F050C0C8010397029708F0C8C0E9
:100C3000E114F10469F04FE050E06DE1CE01B5DF61
:100C40008934910509F4B4C081E0E816F10449F053
:100C50004FE050E06EE1CE01A8DF8934910509F440
:100C6000ABC00430110509F0CCC0E114F10461F00F
:100C700040E250E069E1CE0198DF019671F421E095
:100C8000E216F10409F4A1C040E250E068E1CE01AF
:100C90008CDF019609F0A3C098C00430110509F05B
:100CA0009AC04FE050E06EE1CE017FDFEE24E39486
:100CB000F12CCC9709F0A8C002E010E082E0E81621
:100CC000F10409F486C01A8F098F0130110569F10A
:100CD00024F4012B09F449C069C00230110541F127
:100CE0000330110509F062C0EA94EF2811F48DE198
:100CF00001C08EE18C8F8B8F88E090E09AA389A34E
:100D000089E090E098A38F8F8AE090E09EA38DA366
:100D10008BE090E09CA38BA38CE090E09AA789A73E
:100D20008DE090E098A78FA341C0EA94EF2811F4DA
:100D300089E101C088E18B8F8EE18C8F83E090E0A8
:100D400098A38F8F84E090E09AA389A387E090E036
:100D50009CA38BA388E090E09EA38DA385E090E008
:100D600098A78FA386E090E01FC0EA94EF2811F4C3
:100D700089E101C088E18B8F8EE18C8F83E090E068
:100D800098A38F8F84E090E09AA389A385E090E0F8
:100D90009CA38BA386E090E09EA38DA387E090E0C8
:100DA00098A78FA388E090E09AA789A781E02FC039
:100DB000EE24E394F12C02C0E12CF12C03E010E0CE
:100DC0000330110508F451CF79CF0430110509F033
:100DD00075CF80E01CC0EE24E394F12C6FCF04307B
:100DE000110561F44FE050E06EE1CE01DEDE31E04E
:100DF00020E0CC9709F030E0032F122FE12CF12CEA
:100E00005DCF03E010E05ACF00E010E057CFDF9154
:100E1000CF911F910F91FF90EF9008954F925F92A5
:100E20006F927F928F929F92AF92BF92CF92DF92FA
:100E3000EF92FF920F931F93CF93DF93CDB7DEB75F
:100E4000AA970FB6F894DEBF0FBECDBF8C01298FD5
:100E50003A8F4B8F5C8F6D8F7E8FDC0116968D9154
:100E60009C9117979C01442737FD4095542F2F8F55
:100E700038A349A35AA352966D917C915397882722
:100E800077FD8095982F1C96CD90DC901D97EE24D1
:100E9000D7FCE094FE2C6C0D7D1D8E1D9F1DE2E0A5
:100EA0008E2E912CA12CB12CA50194010E94B71378
:100EB0008F8D98A1A9A1BAA1821B930BA40BB50B8E
:100EC0008F8F98A3A9A3BAA3D80118968D919C914E
:100ED00019979C01442737FD4095542F2BA33CA321
:100EE0004DA35EA354966D917C915597882777FD0D
:100EF0008095982F1E96CD90DC901F97EE24D7FCFE
:100F0000E094FE2C6C0D7D1D8E1D9F1DA50194018E
:100F10000E94B7138BA19CA1ADA1BEA1821B930B14
:100F2000A40BB50B8BA39CA3ADA3BEA3D8011A96AB
:100F3000CD90DC901B97EE24D7FCE094FE2C5696C7
:100F40006D917C915797882777FD8095982F5096C3
:100F50004D905C905197662457FC6094762C640DFC
:100F6000751D861D971DA50194010E94B713C21A15
:100F7000D30AE40AF50AF80144805580662457FC38
:100F80006094762C828193819C01442737FD4095A3
:100F9000542F2FA338A749A75AA72BA13CA14DA195
:100FA0005EA1C301B2010E9486134B015C01A7013F
:100FB00096016FA178A589A59AA50E948613861A25
:100FC000970AA80AB90AC501B4010E94E5116D8704
:100FD0007E878F87988BD8018D909C90AA2497FC50
:100FE000A094BA2CA7019601C501B4010E948613F2
:100FF0006B017C012F8D38A149A15AA1C301B20117
:101000000E948613C61AD70AE80AF90AC701B60170
:101010000E94E511698B7A8B8B8B9C8B2F8D38A16D
:1010200049A15AA16FA178A589A59AA50E94861306
:101030006B017C012BA13CA14DA15EA1C501B401B6
:101040000E948613C61AD70AE80AF90AC701B60130
:101050000E94E5116D8B7E8B8F8B988FCE010D9644
:1010600017DDF80162817381882777FD8095982FBD
:101070000E94E5116B017C012D893E894F89588DB5
:101080002F8F38A349A35AA3D80114966D917C9150
:101090001597882777FD8095982F0E94E5112B01E1
:1010A0003C0129893A894B895C892BA33CA34DA338
:1010B0005EA32F8D38A149A15AA1C701B6010E9494
:1010C000C5124B015C012BA13CA14DA15EA1C30146
:1010D000B2010E94C5129B01AC01C501B4010E947E
:1010E0007F1069837A838B839C838D859E85AF85F2
:1010F000B8898FA398A7A9A7BAA7D8016D917C91A9
:10110000882777FD8095982F0E94E5114B015C019F
:101110002FA138A549A55AA5C301B2010E94C51245
:101120002B013C012F8D38A149A15AA1C501B40161
:101130000E94C5129B01AC01C301B201E0D76D83CF
:101140007E838F8398872BA13CA14DA15EA1C50111
:10115000B4010E94C5124B015C012FA138A549A51D
:101160005AA5C701B6010E94C5129B01AC01C50179
:10117000B401C5D769877A878B879C87CE01019692
:1011800087DC698D7A8D882777FD8095982F0E945E
:10119000E5112B013C016B8D7C8D882777FD8095B7
:1011A000982F0E94E5114B015C016D8D7E8D882783
:1011B00077FD8095982F0E94E5116B017C012981B4
:1011C0003A814B815C81C301B2010E94C5126F8FCD
:1011D00078A389A39AA32D813E814F815885C501AB
:1011E000B4010E94C5129B01AC016F8D78A189A149
:1011F0009AA186D76F8F78A389A39AA329853A8568
:101200004B855C85C701B6010E94C5129B01AC01EC
:101210006F8D78A189A19AA173D76F8F78A389A3C5
:101220009AA32D853E854F855889C301B2010E943E
:10123000C5122B013C0129893A894B895C89C5017A
:10124000B4010E94C5129B01AC01C301B20158D781
:101250004B015C012D893E894F89588DC701B6012C
:101260000E94C5129B01AC01C501B40149D72F8D65
:1012700038A149A15AA1B7D720E030E044E353E4B4
:101280000E94C5122BED3FE049E450E40E944A1150
:101290006B017C0120E030E0A901F8D787FF09C08D
:1012A00020E030E044EB53E4C701B60129D76B01DD
:1012B0007C01C701B601AA960FB6F894DEBF0FBE37
:1012C000CDBFDF91CF911F910F91FF90EF90DF90F5
:1012D000CF90BF90AF909F908F907F906F905F90D6
:1012E0004F900895CF93DF93CDB7DEB72C970FB60D
:1012F000F894DEBF0FBECDBFFC01218D328D2330AF
:10130000310571F431E0232F3F8318861A86198640
:101310001C861B8630E040E05A8560E07C850DC06D
:101320001A8219822FEF422F2B832C831E821D825B
:1013300020E03A815FEF60E07E8170DD2C960FB691
:10134000F894DEBF0FBECDBFDF91CF910895CF934C
:10135000DF93EC0180910A01882309F186E891E08E
:10136000A4D942E050E064E070E088E591E04BDC15
:1013700088E591E042DA86E0EDE0F1E0AAE6B1E04E
:1013800001900D928A95E1F786E0E3E1F1E0A4E6B1
:10139000B1E001900D928A95E1F710920A0188E57B
:1013A00091E06EDB88E591E09DDF688379838A8335
:1013B0009B83DF91CF91089586E891E066D988E517
:1013C00091E0A8C9CF93DF93EC0180910B018823B2
:1013D00051F026E040E855E260E070E083E592E0FD
:1013E0002ED210920B016BE271E083E592E0A5D35F
:1013F000488159816A817B8122E030E083E592E077
:10140000DF91CF913BC51F920F920FB60F9211241F
:101410002F933F934F935F936F937F938F939F93FC
:10142000AF93BF93EF93FF93809146029091470251
:10143000892B29F0E0914602F09147020995FF912E
:10144000EF91BF91AF919F918F917F916F915F913C
:101450004F913F912F910F900FBE0F901F901895B5
:101460001F920F920FB60F9211242F933F934F9319
:101470005F936F937F938F939F93AF93BF93EF93FC
:10148000FF938091480290914902892B29F0E091C5
:101490004802F09149020995FF91EF91BF91AF91F8
:1014A0009F918F917F916F915F914F913F912F917C
:1014B0000F900FBE0F901F9018951F920F920FB6AE
:1014C0000F9211242F933F938F939F93AF93BF93CA
:1014D00080914B0290914C02A0914D02B0914E022E
:1014E00030914A0223E0230F2D3720F40196A11DED
:1014F000B11D05C026E8230F0296A11DB11D209342
:101500004A0280934B0290934C02A0934D02B093F9
:101510004E0280914F0290915002A0915102B091E1
:1015200052020196A11DB11D80934F02909350026B
:10153000A0935102B0935202BF91AF919F918F91AE
:101540003F912F910F900FBE0F901F9018952FB7BE
:10155000F89460914B0270914C0280914D029091F1
:101560004E022FBF0895789484B5826084BD84B5FF
:10157000816084BD85B5826085BD85B5816085BD8E
:10158000EEE6F0E0808181608083E1E8F0E01082A7
:10159000808182608083808181608083E0E8F0E0E8
:1015A000808181608083E1EBF0E0808184608083D2
:1015B000E0EBF0E0808181608083EAE7F0E0808109
:1015C0008460808380818260808380818160808369
:1015D0008081806880831092C1000895833081F0FB
:1015E00028F4813099F08230A1F008958730A9F075
:1015F0008830B9F08430D1F4809180008F7D03C0B1
:10160000809180008F7780938000089584B58F77D4
:1016100002C084B58F7D84BD08958091B0008F771E
:1016200003C08091B0008F7D8093B00008950F9328
:101630001F93CF93DF931F92CDB7DEB7282F30E0F3
:10164000F901EA56FF4F8491F901E655FF4F1491D5
:10165000F901E254FF4F04910023C1F0882319F0EF
:101660006983BCDF6981E02FF0E0EE0FFF1FEE52CF
:10167000FF4FA591B4919FB7F8948C91611103C06D
:101680001095812301C0812B8C939FBF0F90DF9118
:10169000CF911F910F910895FC01818D228D90E0D3
:1016A000805C9F4F821B91098F7399270895FC01DD
:1016B000918D828D981731F0828DE80FF11D858D07
:1016C00090E008958FEF9FEF0895FC01918D828D3A
:1016D000981761F0828DDF01A80FB11D5D968C9186
:1016E000928D9F5F9F73928F90E008958FEF9FEF91
:1016F0000895FC01848DDF01A80FB11DA35ABF4FCF
:101700002C91848D90E001968F739927848FA68900
:10171000B7892C93A089B1898C9180648C93938D27
:10172000848D981306C00288F389E02D80818F7D17
:1017300080830895CF93DF93EC01888D8823C1F0D7
:10174000EA89FB89808185FD05C0A889B9898C91CA
:1017500086FD0EC00FB607FCF5CF808185FFF2CF66
:10176000A889B9898C9185FFEDCFCE01C2DFE8CF82
:10177000DF91CF910895CF92DF92FF920F931F9345
:10178000CF93DF931F92CDB7DEB76C01DC015B9680
:101790009C915B975C968C915C97981307C05096D0
:1017A000ED91FC915197808185FD31C0F601038D4B
:1017B00010E00F5F1F4F0F731127F02EF601848D7D
:1017C000F81210C00FB607FCF9CFD6015096ED9174
:1017D000FC915197808185FFF1CFC601698389DF34
:1017E0006981ECCF838DE80FF11DE35AFF4F6083D1
:1017F000D6015B960C935B975296ED91FC915397B3
:1018000080818062808381E058968C930DC0D601E0
:101810005696ED91FC91579760835096ED91FC910F
:10182000519780818064808381E090E00F90DF9108
:10183000CF911F910F91FF90DF90CF900895BF92AD
:10184000CF92DF92EF92FF92CF93DF93EC016A0188
:101850007B01B22EE889F98982E08083411581EE0F
:1018600058076105710599F060E079E08DE390E03B
:10187000A70196015AD721503109410951095695BE
:10188000479537952795211580E1380790F0E8892D
:10189000F989108260E874E88EE190E0A701960172
:1018A00044D721503109410951095695479537953B
:1018B0002795EC85FD853083EE85FF852083188E86
:1018C000EC89FD89B082EA89FB898081806180830F
:1018D000EA89FB89808188608083EA89FB8980812D
:1018E00080688083EA89FB8980818F7D8083DF9196
:1018F000CF91FF90EF90DF90CF90BF9008951F920F
:101900000F920FB60F9211242F938F939F93EF9303
:10191000FF93E0916302F09164028081E09169029B
:10192000F0916A0282FD12C0908180916C028F5FFB
:101930008F7320916D02821751F0E0916C02F0E0FC
:10194000ED5AFD4F958F80936C0201C08081FF910D
:10195000EF919F918F912F910F900FBE0F901F903D
:1019600018951F920F920FB60F9211242F933F9349
:101970004F935F936F937F938F939F93AF93BF9397
:10198000EF93FF9383E592E0B4DEFF91EF91BF9177
:10199000AF919F918F917F916F915F914F913F9107
:1019A0002F910F900FBE0F901F9018951092560216
:1019B0001092550288EE93E0A0E0B0E080935702C9
:1019C00090935802A0935902B0935A0287E391E092
:1019D000909354028093530285EC90E090936002C0
:1019E00080935F0284EC90E09093620280936102A6
:1019F00080EC90E0909364028093630281EC90E02D
:101A0000909366028093650282EC90E09093680266
:101A10008093670286EC90E090936A02809369025B
:101A200010926C0210926D0210926E0210926F0270
:101A30000895AF92BF92CF92DF92EF92FF920F93F1
:101A40001F93CF93DF936C017B01C0E0D0E000E0F7
:101A500010E0F601EC0FFD1F4AE050E06281C70183
:101A600030D15C016EE2C70169D08A0D9B1D080F61
:101A7000191F2196C330D10561F74AE050E0F60105
:101A80006581C7011ED1800F911FDF91CF911F91FA
:101A90000F91FF90EF90DF90CF90BF90AF9008959F
:101AA00087E491E09093F1028093F0021092F202A9
:101AB0001092F3021092F4021092F5020895CF9260
:101AC000DF92EF92FF920F931F93CF93DF936C01FE
:101AD0007A01EB01E60EF71E00E010E0CE15DF05FF
:101AE00061F06991D601ED91FC910190F081E02DBA
:101AF000C6010995080F191FF1CFC801DF91CF91D9
:101B00001F910F91FF90EF90DF90CF900895611596
:101B1000710581F0DB010D900020E9F7AD01415026
:101B20005109461B570BDC01ED91FC910280F381BA
:101B3000E02D099480E090E00895E9CFDC01ED917B
:101B4000FC910190F081E02D09940F931F93CF93A6
:101B5000DF93EC016DE0F2DF8C016AE0CE01EEDF95
:101B6000800F911FDF91CF911F910F9108958F9258
:101B70009F92AF92BF92CF92DF92EF92FF920F931C
:101B80001F93CF93DF93CDB7DEB7A1970FB6F8942D
:101B9000DEBF0FBECDBF7C01C42EE52FCB01D22E00
:101BA00019A221E02D1510F02AE0D22E8E010F5D32
:101BB0001F4F8D2C912CA12CB12C6C2D7E2FA501AB
:101BC0009401B3D58C2DD29E801911240150110996
:101BD0008A3014F4805D01C0895CF801808321158E
:101BE00031054105510521F0C22EE32FCA01E5CF91
:101BF000B801C7018CDFA1960FB6F894DEBF0FBE07
:101C0000CDBFDF91CF911F910F91FF90EF90DF90AB
:101C1000CF90BF90AF909F908F900895CF92DF921A
:101C2000EF92FF920F931F93CF93DF93EC016A0122
:101C30007B012115310579F4E881F9810190F0816A
:101C4000E02D642FDF91CF911F910F91FF90EF90C6
:101C5000DF90CF9009942A303105D9F477FF18C06E
:101C60006DE26CDF8C0144275527BA014C195D09E0
:101C70006E097F092AE0CE017ADF800F911FDF9184
:101C8000CF911F910F91FF90EF90DF90CF9008952B
:101C90002AE0B701A601CE01DF91CF911F910F91EC
:101CA000FF90EF90DF90CF9062CF2115310541F486
:101CB000DC01ED91FC910190F081E02D642F0994FD
:101CC00056CF9A01462F50E060E070E0EECF4F9281
:101CD0005F926F927F928F929F92AF92BF92CF92BC
:101CE000DF92EF92FF920F931F93CF93DF93EC015C
:101CF0006A017B01B22E9A01AB01C701B601EDD496
:101D0000882319F069E471E024C026013701E894C2
:101D100077F82FEF3FEF4FE75FE7C301B201DDD464
:101D200081110CC02FEF3FEF4FE75FE7C301B20116
:101D3000ADD218161CF46DE471E00BC02FEF3FEF2D
:101D40004FE75FE4C701B60115D41816A4F461E5A6
:101D500071E0CE01DF91CF911F910F91FF90EF9035
:101D6000DF90CF90BF90AF909F908F907F906F90BB
:101D70005F904F90CCCE2FEF3FEF4FE75FECC70166
:101D8000B60184D287FDE3CF20E030E0A901C7018E
:101D9000B6017CD287FF09C06DE2CE01CFDE8C0197
:101DA000F7FAF094F7F8F09402C000E010E0A12CEC
:101DB00060E070E080E09FE3AB1439F020E030E0B9
:101DC00040E251E467D2A394F7CF9B01AC01C70175
:101DD000B60196D16B017C01CAD22B013C01F3D232
:101DE0009B01AC01C701B6018AD16B017C012AE0DD
:101DF000B301A201CE01BBDE080F191FBB2031F0D9
:101E000065E571E0CE0183DE080F191F7B2C77207A
:101E100019F120E030E040E251E4C701B601B5D34A
:101E20006B017C019FD24B01AA2497FCA094BA2C91
:101E30002AE030E0B501A401CE01F0DE080F191F41
:101E4000C501B401C2D29B01AC01C701B60157D193
:101E50006B017C017A94DBCFC801DF91CF911F9198
:101E60000F91FF90EF90DF90CF90BF90AF909F9039
:101E70008F907F906F905F904F9008950F931F9376
:101E8000CF93DF93EC0123DF8C01CE015EDE800F68
:101E9000911FDF91CF911F910F910895813039F0FB
:101EA00018F0823051F0089510926E0008958091DC
:101EB0006F008D7F80936F000895809170008D7FFB
:101EC0008093700081E08093B0008091B100887FA2
:101ED00084608093B1001092B3000895CF93C82F0F
:101EE00080910C018C1307C0ECEDF0E084919FEF22
:101EF00090930C0101C08FEFD1DF60E08C2FCF9168
:101F000096CB1F920F920FB60F9211242F933F93EF
:101F10004F935F936F937F938F939F93AF93BF93F1
:101F2000EF93FF938091F9029091FA02A091FB0246
:101F3000B091FC02892B8A2B8B2B51F19091F602E8
:101F4000E091F702F091F8028081892780838091E7
:101F5000F9029091FA02A091FB02B091FC021816CE
:101F600019061A061B06BCF48091F9029091FA0238
:101F7000A091FB02B091FC020197A109B1098093E5
:101F8000F9029093FA02A093FB02B093FC0203C003
:101F900080910C01A3DFFF91EF91BF91AF919F91D1
:101FA0008F917F916F915F914F913F912F910F9002
:101FB0000FBE0F901F90189508951F920F920FB6A5
:101FC0000F9211242F933F934F935F936F937F93BF
:101FD0008F939F93AF93BF93EF93FF938EE19BEF0C
:101FE000909385008093840032D0FF91EF91BF9150
:101FF000AF919F918F917F916F915F914F913F91A1
:102000002F910F900FBE0F901F9018958EE19BEFB0
:102010009093850080938400AFE6B0E08C918E7F32
:102020008C93E0E8F0E080818C7F8083E1E8F0E051
:102030008081877E808380818360808380818B7FA5
:1020400080838C9181608C93089581E00895209124
:10205000FD0281E0820F8093FD02222349F081E09E
:1020600090E09093FF028093FE022093FD0208957A
:1020700078940E949B00F8948091FD028150809397
:10208000FD0208950F931F93CF93DF931F92CDB757
:10209000DEB781E0898367DA8FDF00911901109143
:1020A0001A01F801118210820E94A300AFDF21E023
:1020B000F80180819181892B09F020E029837894AF
:1020C00078948981882381F021E0F80180819181D1
:1020D000892B09F020E029838981882311F0B5DF5D
:1020E00001C080E08983EDCF0E94B000F89480E0C9
:1020F00090E00F90DF91CF911F910F91089550586C
:10210000BB27AA270ED0FCC1EDD130F0F2D120F0D0
:1021100031F49F3F11F41EF4BDC10EF4E095E7FBCE
:10212000B3C1E92FFED180F3BA17620773078407A2
:10213000950718F071F49EF516C20EF4E0950B2E7B
:10214000BA2FA02D0B01B90190010C01CA01A00109
:102150001124FF27591B99F0593F50F4503E68F164
:102160001A16F040A22F232F342F4427585FF3CFA5
:10217000469537952795A795F0405395C9F77EF476
:102180001F16BA0B620B730B840BBAF09150A1F0BF
:10219000FF0FBB1F661F771F881FC2F70EC0BA0F45
:1021A000621F731F841F48F4879577956795B795CD
:1021B000F7959E3F08F0B3CF9395880F08F09927C5
:1021C000EE0F9795879508958DD158F080E891E0AE
:1021D00009F49EEF8ED128F040E851E059F45EEF0B
:1021E00009C058C1C0C1E92FE0789BD168F3092E1E
:1021F000052AC1F3261737074807590738F00E2E6E
:1022000007F8E02569F0E025E0640AC0EF6307F80D
:10221000009407FADB01B9019D01DC01CA01AD019F
:10222000EF9347D06DD10AD05F91552331F02BED5C
:102230003FE049E450FD49EC63CF0895DF93DD278B
:10224000B92FBF7740E85FE31616170648075B070C
:1022500010F4D92F93D19F938F937F936F933AD29A
:10226000E8E6F0E01AD14CD12F913F914F915F9168
:1022700098D1DD2349F09058A2EA2AED3FE049ECDD
:102280005FE3D0785D274DDFDF913AC1D9D008F404
:1022900081E008950CD034C12CD140F023D130F02E
:1022A00021F45F3F19F0F0C051115EC1F3C039D184
:1022B00098F39923C9F35523B1F3951B550BBB270D
:1022C000AA2762177307840738F09F5F5F4F220FBA
:1022D000331F441FAA1FA9F333D00E2E3AF0E0E8B3
:1022E00030D091505040E695001CCAF729D0FE2FFF
:1022F00027D0660F771F881FBB1F26173707480791
:10230000AB07B0E809F0BB0B802DBF01FF27935846
:102310005F4F2AF09E3F510568F0B6C025C15F3F70
:10232000ECF3983EDCF3869577956795B795F7952E
:102330009F5FC9F7880F911D9695879597F9089526
:10234000E1E0660F771F881FBB1F621773078407C2
:10235000BA0720F0621B730B840BBA0BEE1F88F7D1
:10236000E095089504D06894B111FEC00895E1D0BD
:1023700088F09F5790F0B92F9927B751A0F0D1F06E
:10238000660F771F881F991F1AF0BA95C9F712C0F8
:10239000B13081F0E8D0B1E00895E5C0672F782F23
:1023A0008827B85F39F0B93FCCF386957795679564
:1023B000B395D9F73EF490958095709561957F4FD0
:1023C0008F4F9F4F0895E89409C097FB3EF4909576
:1023D0008095709561957F4F8F4F9F4F9923A9F0FE
:1023E000F92F96E9BB279395F6958795779567958D
:1023F000B795F111F8CFFAF4BB0F11F460FF1BC0D1
:102400006F5F7F4F8F4F9F4F16C0882311F096E963
:1024100011C0772321F09EE8872F762F05C0662311
:1024200071F096E8862F70E060E02AF09A95660FCA
:10243000771F881FDAF7880F9695879597F9089583
:10244000990F0008550FAA0BE0E8FEEF16161706C5
:10245000E807F907C0F012161306E407F50798F02D
:10246000621B730B840B950B39F40A2661F0232B46
:10247000242B252B21F408950A2609F4A140A695C2
:102480008FEF811D811D089597F99F6780E870E0A7
:1024900060E008959FEF80EC0895DF93CF931F9342
:1024A0000F93FF92EF92DF927B018C01689405C03D
:1024B000DA2EEF0176D0FE01E894A59125913591B1
:1024C00045915591AEF3EF012CDEFE019701A80175
:1024D000DA9479F7DF90EF90FF900F911F91CF91F1
:1024E000DF91089500240A941616170618060906A7
:1024F000089500240A94121613061406050608957A
:10250000092E0394000C11F4882352F0BB0F40F401
:10251000BF2B11F460FF04C06F5F7F4F8F4F9F4F41
:10252000089557FD9058440F551F59F05F3F71F0C3
:102530004795880F97FB991F61F09F3F79F087952A
:102540000895121613061406551FF2CF4695F1DFB3
:1025500008C0161617061806991FF1CF8695710543
:10256000610508940895E894BB2766277727CB0177
:1025700097F9089565DF08F48FEF08959B01AC018A
:1025800060E070E080E89FE385CE0BD0B9CFAADF92
:1025900028F0AFDF18F0952309F076CF7BCF112418
:1025A000E3CFBFDFA0F3959FD1F3950F50E0551F08
:1025B000629FF001729FBB27F00DB11D639FAA2798
:1025C000F00DB11DAA1F649F6627B00DA11D661FE7
:1025D000829F2227B00DA11D621F739FB00DA11D08
:1025E000621F839FA00D611D221F749F3327A00DC2
:1025F000611D231F849F600D211D822F762F6A2F5E
:1026000011249F5750408AF0E1F088234AF0EE0FE2
:10261000FF1FBB1F661F771F881F91505040A9F7EF
:102620009E3F510570F030CF9FCF5F3FECF3983E57
:10263000DCF3869577956795B795F795E7959F5F56
:10264000C1F7FE2B880F911D9695879597F90895F0
:1026500011F40EF41FCF45C06CDFD0F39923D9F3EA
:10266000CEF39F57550B87FF4AD00024A0E640EADF
:10267000900180585695979528F4805C660F771FD7
:10268000881F20F026173707480730F4621B730BAA
:10269000840B202931294A2BA695179407942025CD
:1026A00031254A2758F7660F771F881F20F0261715
:1026B0003707480730F4620B730B840B200D311D74
:1026C000411DA09581F7B901842F9158880F9695E7
:1026D000879508959B01AC0158CFB2DE880B990B0A
:1026E00008959F3F31F0915020F487957795679535
:1026F000B795880F911D9695879597F908959150F4
:102700005040660F771F881FD2F70895DB018F9323
:102710009F9349D0BF91AF91A29F800D911DA39F20
:10272000900DB29F900D11240895A1E21A2EAA1BBC
:10273000BB1BFD010DC0AA1FBB1FEE1FFF1FA21771
:10274000B307E407F50720F0A21BB30BE40BF50B6E
:10275000661F771F881F991F1A9469F760957095F7
:10276000809590959B01AC01BD01CF010895052E88
:1027700097FB16F400940FD057FD05D0D6DF07FC69
:1027800002D046F408C050954095309521953F4FB2
:102790004F4F5F4F089590958095709561957F4F4D
:1027A0008F4F9F4F08950FD0A59F900DB49F900D10
:1027B000A49F800D911D11240895EE0FFF1F059019
:1027C000F491E02D0994A29FB001B39FC001A39F93
:1027D000700D811D1124911DB29F700D811D11245A
:0827E000911D0895F894FFCF4C
:1027E800000006038000010000000101FF018001D4
:1027F800800180FF7FFF7FFF7F040300000000AAA5
:1028080001D801B100B900CC00DB00496E707574C5
:102818003A200000000000BB0B5F0D4C0B650B5706
:102828000B9A0B00000000190D6E616E00696E6650
:08283800006F7666002E00001F
:00000001FF
